{
	"contracts/mulSignature.sol": {
		"multiSignature": {
			"abi": [
				{
					"anonymous": false,
					"inputs": [
						{
							"indexed": true,
							"internalType": "address",
							"name": "from",
							"type": "address"
						},
						{
							"indexed": true,
							"internalType": "address",
							"name": "to",
							"type": "address"
						},
						{
							"indexed": true,
							"internalType": "bytes32",
							"name": "msgHash",
							"type": "bytes32"
						},
						{
							"indexed": false,
							"internalType": "uint256",
							"name": "expiry",
							"type": "uint256"
						}
					],
					"name": "CreateApplication",
					"type": "event"
				},
				{
					"anonymous": false,
					"inputs": [
						{
							"indexed": true,
							"internalType": "address",
							"name": "previousOwner",
							"type": "address"
						},
						{
							"indexed": true,
							"internalType": "address",
							"name": "newOwner",
							"type": "address"
						}
					],
					"name": "OwnershipTransferred",
					"type": "event"
				},
				{
					"anonymous": false,
					"inputs": [
						{
							"indexed": true,
							"internalType": "address",
							"name": "from",
							"type": "address"
						},
						{
							"indexed": true,
							"internalType": "bytes32",
							"name": "msgHash",
							"type": "bytes32"
						}
					],
					"name": "RevokeApplication",
					"type": "event"
				},
				{
					"anonymous": false,
					"inputs": [
						{
							"indexed": true,
							"internalType": "address",
							"name": "from",
							"type": "address"
						},
						{
							"indexed": true,
							"internalType": "bytes32",
							"name": "msgHash",
							"type": "bytes32"
						},
						{
							"indexed": false,
							"internalType": "uint256",
							"name": "_nonce",
							"type": "uint256"
						}
					],
					"name": "SignApplication",
					"type": "event"
				},
				{
					"anonymous": false,
					"inputs": [
						{
							"indexed": true,
							"internalType": "address",
							"name": "sender",
							"type": "address"
						},
						{
							"indexed": true,
							"internalType": "address",
							"name": "oldOwner",
							"type": "address"
						},
						{
							"indexed": true,
							"internalType": "address",
							"name": "newOwner",
							"type": "address"
						}
					],
					"name": "TransferOwner",
					"type": "event"
				},
				{
					"inputs": [
						{
							"internalType": "address[]",
							"name": "owners",
							"type": "address[]"
						},
						{
							"internalType": "uint256",
							"name": "limitedSignNum",
							"type": "uint256"
						}
					],
					"name": "Initialize",
					"outputs": [],
					"stateMutability": "nonpayable",
					"type": "function"
				},
				{
					"inputs": [
						{
							"internalType": "address",
							"name": "to",
							"type": "address"
						},
						{
							"internalType": "bytes32",
							"name": "funcSig",
							"type": "bytes32"
						}
					],
					"name": "createApplication",
					"outputs": [
						{
							"internalType": "uint256",
							"name": "index",
							"type": "uint256"
						}
					],
					"stateMutability": "nonpayable",
					"type": "function"
				},
				{
					"inputs": [
						{
							"internalType": "address",
							"name": "from",
							"type": "address"
						},
						{
							"internalType": "address",
							"name": "to",
							"type": "address"
						},
						{
							"internalType": "bytes32",
							"name": "funcSig",
							"type": "bytes32"
						},
						{
							"internalType": "uint256",
							"name": "_nonce",
							"type": "uint256"
						}
					],
					"name": "getApplicationHash",
					"outputs": [
						{
							"internalType": "bytes32",
							"name": "",
							"type": "bytes32"
						}
					],
					"stateMutability": "pure",
					"type": "function"
				},
				{
					"inputs": [
						{
							"internalType": "bytes32",
							"name": "msghash",
							"type": "bytes32"
						}
					],
					"name": "getApplicationInfo",
					"outputs": [
						{
							"internalType": "address",
							"name": "",
							"type": "address"
						},
						{
							"internalType": "address[]",
							"name": "",
							"type": "address[]"
						},
						{
							"internalType": "bool",
							"name": "",
							"type": "bool"
						},
						{
							"internalType": "uint256",
							"name": "",
							"type": "uint256"
						},
						{
							"internalType": "uint256",
							"name": "",
							"type": "uint256"
						}
					],
					"stateMutability": "view",
					"type": "function"
				},
				{
					"inputs": [],
					"name": "nonce",
					"outputs": [
						{
							"internalType": "uint256",
							"name": "",
							"type": "uint256"
						}
					],
					"stateMutability": "view",
					"type": "function"
				},
				{
					"inputs": [],
					"name": "owner",
					"outputs": [
						{
							"internalType": "address",
							"name": "",
							"type": "address"
						}
					],
					"stateMutability": "view",
					"type": "function"
				},
				{
					"inputs": [],
					"name": "renounceOwnership",
					"outputs": [],
					"stateMutability": "nonpayable",
					"type": "function"
				},
				{
					"inputs": [
						{
							"internalType": "bytes32",
							"name": "msghash",
							"type": "bytes32"
						}
					],
					"name": "revokeSignApplication",
					"outputs": [],
					"stateMutability": "nonpayable",
					"type": "function"
				},
				{
					"inputs": [
						{
							"internalType": "address",
							"name": "",
							"type": "address"
						},
						{
							"internalType": "uint256",
							"name": "",
							"type": "uint256"
						}
					],
					"name": "sigCountMap",
					"outputs": [
						{
							"internalType": "bytes32",
							"name": "",
							"type": "bytes32"
						}
					],
					"stateMutability": "view",
					"type": "function"
				},
				{
					"inputs": [
						{
							"internalType": "bytes32",
							"name": "msghash",
							"type": "bytes32"
						},
						{
							"internalType": "uint256",
							"name": "index",
							"type": "uint256"
						}
					],
					"name": "signApplication",
					"outputs": [],
					"stateMutability": "nonpayable",
					"type": "function"
				},
				{
					"inputs": [
						{
							"internalType": "bytes32",
							"name": "",
							"type": "bytes32"
						}
					],
					"name": "signatureMap",
					"outputs": [
						{
							"internalType": "address",
							"name": "applicant",
							"type": "address"
						},
						{
							"internalType": "bool",
							"name": "status",
							"type": "bool"
						},
						{
							"internalType": "uint256",
							"name": "expiry",
							"type": "uint256"
						},
						{
							"internalType": "uint256",
							"name": "nonce",
							"type": "uint256"
						}
					],
					"stateMutability": "view",
					"type": "function"
				},
				{
					"inputs": [
						{
							"internalType": "uint256",
							"name": "index",
							"type": "uint256"
						},
						{
							"internalType": "address",
							"name": "newOwner",
							"type": "address"
						}
					],
					"name": "transferOwner",
					"outputs": [],
					"stateMutability": "nonpayable",
					"type": "function"
				},
				{
					"inputs": [
						{
							"internalType": "address",
							"name": "newOwner",
							"type": "address"
						}
					],
					"name": "transferOwnership",
					"outputs": [],
					"stateMutability": "nonpayable",
					"type": "function"
				},
				{
					"inputs": [],
					"name": "validPeriod",
					"outputs": [
						{
							"internalType": "uint256",
							"name": "",
							"type": "uint256"
						}
					],
					"stateMutability": "view",
					"type": "function"
				}
			],
			"devdoc": {
				"methods": {
					"owner()": {
						"details": "Returns the address of the current owner."
					},
					"renounceOwnership()": {
						"details": "Leaves the contract without owner. It will not be possible to call `onlyOwner` functions anymore. Can only be called by the current owner.     * NOTE: Renouncing ownership will leave the contract without an owner, thereby removing any functionality that is only available to the owner."
					},
					"transferOwnership(address)": {
						"details": "Transfers ownership of the contract to a new account (`newOwner`). Can only be called by the current owner."
					}
				}
			},
			"evm": {
				"assembly": "    /* \"contracts/mulSignature.sol\":1404:6885  contract multiSignature is ContextUpgradeable, OwnableUpgradeable {... */\n  mstore(0x40, 0x80)\n  callvalue\n    /* \"--CODEGEN--\":5:14   */\n  dup1\n    /* \"--CODEGEN--\":2:4   */\n  iszero\n  tag_1\n  jumpi\n    /* \"--CODEGEN--\":27:28   */\n  0x00\n    /* \"--CODEGEN--\":24:25   */\n  dup1\n    /* \"--CODEGEN--\":17:29   */\n  revert\n    /* \"--CODEGEN--\":2:4   */\ntag_1:\n    /* \"contracts/mulSignature.sol\":1404:6885  contract multiSignature is ContextUpgradeable, OwnableUpgradeable {... */\n  pop\n  dataSize(sub_0)\n  dup1\n  dataOffset(sub_0)\n  0x00\n  codecopy\n  0x00\n  return\nstop\n\nsub_0: assembly {\n        /* \"contracts/mulSignature.sol\":1404:6885  contract multiSignature is ContextUpgradeable, OwnableUpgradeable {... */\n      mstore(0x40, 0x80)\n      callvalue\n        /* \"--CODEGEN--\":5:14   */\n      dup1\n        /* \"--CODEGEN--\":2:4   */\n      iszero\n      tag_1\n      jumpi\n        /* \"--CODEGEN--\":27:28   */\n      0x00\n        /* \"--CODEGEN--\":24:25   */\n      dup1\n        /* \"--CODEGEN--\":17:29   */\n      revert\n        /* \"--CODEGEN--\":2:4   */\n    tag_1:\n        /* \"contracts/mulSignature.sol\":1404:6885  contract multiSignature is ContextUpgradeable, OwnableUpgradeable {... */\n      pop\n      jumpi(tag_2, lt(calldatasize, 0x04))\n      shr(0xe0, calldataload(0x00))\n      dup1\n      0x78b35aee\n      gt\n      tag_17\n      jumpi\n      dup1\n      0xaffed0e0\n      gt\n      tag_18\n      jumpi\n      dup1\n      0xaffed0e0\n      eq\n      tag_13\n      jumpi\n      dup1\n      0xf2fde38b\n      eq\n      tag_14\n      jumpi\n      dup1\n      0xfa3e1e27\n      eq\n      tag_15\n      jumpi\n      dup1\n      0xfe8ed3bc\n      eq\n      tag_16\n      jumpi\n      jump(tag_2)\n    tag_18:\n      dup1\n      0x78b35aee\n      eq\n      tag_10\n      jumpi\n      dup1\n      0x7efcc3a2\n      eq\n      tag_11\n      jumpi\n      dup1\n      0x8da5cb5b\n      eq\n      tag_12\n      jumpi\n      jump(tag_2)\n    tag_17:\n      dup1\n      0x25675059\n      gt\n      tag_19\n      jumpi\n      dup1\n      0x25675059\n      eq\n      tag_6\n      jumpi\n      dup1\n      0x4bd23253\n      eq\n      tag_7\n      jumpi\n      dup1\n      0x5d40a9f4\n      eq\n      tag_8\n      jumpi\n      dup1\n      0x715018a6\n      eq\n      tag_9\n      jumpi\n      jump(tag_2)\n    tag_19:\n      dup1\n      0x0dc460c6\n      eq\n      tag_3\n      jumpi\n      dup1\n      0x1d8a950c\n      eq\n      tag_4\n      jumpi\n      dup1\n      0x1ebe85ba\n      eq\n      tag_5\n      jumpi\n    tag_2:\n        /* \"--CODEGEN--\":12:13   */\n      0x00\n        /* \"--CODEGEN--\":9:10   */\n      dup1\n        /* \"--CODEGEN--\":2:14   */\n      revert\n        /* \"contracts/mulSignature.sol\":1985:2038  mapping(bytes32 => signatureInfo) public signatureMap */\n    tag_3:\n      tag_20\n      0x04\n      dup1\n      calldatasize\n      sub\n        /* \"--CODEGEN--\":15:17   */\n      0x20\n        /* \"--CODEGEN--\":10:13   */\n      dup2\n        /* \"--CODEGEN--\":7:18   */\n      lt\n        /* \"--CODEGEN--\":4:6   */\n      iszero\n      tag_21\n      jumpi\n        /* \"--CODEGEN--\":31:32   */\n      0x00\n        /* \"--CODEGEN--\":28:29   */\n      dup1\n        /* \"--CODEGEN--\":21:33   */\n      revert\n        /* \"--CODEGEN--\":4:6   */\n    tag_21:\n        /* \"contracts/mulSignature.sol\":1985:2038  mapping(bytes32 => signatureInfo) public signatureMap */\n      dup2\n      add\n      swap1\n      dup1\n      dup1\n      calldataload\n      swap1\n      0x20\n      add\n      swap1\n      swap3\n      swap2\n      swap1\n      pop\n      pop\n      pop\n      tag_22\n      jump\t// in\n    tag_20:\n      mload(0x40)\n      dup1\n      dup6\n      0xffffffffffffffffffffffffffffffffffffffff\n      and\n      0xffffffffffffffffffffffffffffffffffffffff\n      and\n      dup2\n      mstore\n      0x20\n      add\n      dup5\n      iszero\n      iszero\n      iszero\n      iszero\n      dup2\n      mstore\n      0x20\n      add\n      dup4\n      dup2\n      mstore\n      0x20\n      add\n      dup3\n      dup2\n      mstore\n      0x20\n      add\n      swap5\n      pop\n      pop\n      pop\n      pop\n      pop\n      mload(0x40)\n      dup1\n      swap2\n      sub\n      swap1\n      return\n        /* \"contracts/mulSignature.sol\":5798:6153  function getApplicationInfo(... */\n    tag_4:\n      tag_23\n      0x04\n      dup1\n      calldatasize\n      sub\n        /* \"--CODEGEN--\":15:17   */\n      0x20\n        /* \"--CODEGEN--\":10:13   */\n      dup2\n        /* \"--CODEGEN--\":7:18   */\n      lt\n        /* \"--CODEGEN--\":4:6   */\n      iszero\n      tag_24\n      jumpi\n        /* \"--CODEGEN--\":31:32   */\n      0x00\n        /* \"--CODEGEN--\":28:29   */\n      dup1\n        /* \"--CODEGEN--\":21:33   */\n      revert\n        /* \"--CODEGEN--\":4:6   */\n    tag_24:\n        /* \"contracts/mulSignature.sol\":5798:6153  function getApplicationInfo(... */\n      dup2\n      add\n      swap1\n      dup1\n      dup1\n      calldataload\n      swap1\n      0x20\n      add\n      swap1\n      swap3\n      swap2\n      swap1\n      pop\n      pop\n      pop\n      tag_25\n      jump\t// in\n    tag_23:\n      mload(0x40)\n      dup1\n      dup7\n      0xffffffffffffffffffffffffffffffffffffffff\n      and\n      0xffffffffffffffffffffffffffffffffffffffff\n      and\n      dup2\n      mstore\n      0x20\n      add\n      dup1\n      0x20\n      add\n      dup6\n      iszero\n      iszero\n      iszero\n      iszero\n      dup2\n      mstore\n      0x20\n      add\n      dup5\n      dup2\n      mstore\n      0x20\n      add\n      dup4\n      dup2\n      mstore\n      0x20\n      add\n      dup3\n      dup2\n      sub\n      dup3\n      mstore\n      dup7\n      dup2\n      dup2\n      mload\n      dup2\n      mstore\n      0x20\n      add\n      swap2\n      pop\n      dup1\n      mload\n      swap1\n      0x20\n      add\n      swap1\n      0x20\n      mul\n      dup1\n      dup4\n      dup4\n        /* \"--CODEGEN--\":23:24   */\n      0x00\n        /* \"--CODEGEN--\":8:108   */\n    tag_26:\n        /* \"--CODEGEN--\":33:36   */\n      dup4\n        /* \"--CODEGEN--\":30:31   */\n      dup2\n        /* \"--CODEGEN--\":27:37   */\n      lt\n        /* \"--CODEGEN--\":8:108   */\n      iszero\n      tag_28\n      jumpi\n        /* \"--CODEGEN--\":99:100   */\n      dup1\n        /* \"--CODEGEN--\":94:97   */\n      dup3\n        /* \"--CODEGEN--\":90:101   */\n      add\n        /* \"--CODEGEN--\":84:102   */\n      mload\n        /* \"--CODEGEN--\":80:81   */\n      dup2\n        /* \"--CODEGEN--\":75:78   */\n      dup5\n        /* \"--CODEGEN--\":71:82   */\n      add\n        /* \"--CODEGEN--\":64:103   */\n      mstore\n        /* \"--CODEGEN--\":52:54   */\n      0x20\n        /* \"--CODEGEN--\":49:50   */\n      dup2\n        /* \"--CODEGEN--\":45:55   */\n      add\n        /* \"--CODEGEN--\":40:55   */\n      swap1\n      pop\n        /* \"--CODEGEN--\":8:108   */\n      jump(tag_26)\n    tag_28:\n        /* \"--CODEGEN--\":12:26   */\n      pop\n        /* \"contracts/mulSignature.sol\":5798:6153  function getApplicationInfo(... */\n      pop\n      pop\n      pop\n      swap1\n      pop\n      add\n      swap7\n      pop\n      pop\n      pop\n      pop\n      pop\n      pop\n      pop\n      mload(0x40)\n      dup1\n      swap2\n      sub\n      swap1\n      return\n        /* \"contracts/mulSignature.sol\":3467:3921  function transferOwner(... */\n    tag_5:\n      tag_29\n      0x04\n      dup1\n      calldatasize\n      sub\n        /* \"--CODEGEN--\":15:17   */\n      0x40\n        /* \"--CODEGEN--\":10:13   */\n      dup2\n        /* \"--CODEGEN--\":7:18   */\n      lt\n        /* \"--CODEGEN--\":4:6   */\n      iszero\n      tag_30\n      jumpi\n        /* \"--CODEGEN--\":31:32   */\n      0x00\n        /* \"--CODEGEN--\":28:29   */\n      dup1\n        /* \"--CODEGEN--\":21:33   */\n      revert\n        /* \"--CODEGEN--\":4:6   */\n    tag_30:\n        /* \"contracts/mulSignature.sol\":3467:3921  function transferOwner(... */\n      dup2\n      add\n      swap1\n      dup1\n      dup1\n      calldataload\n      swap1\n      0x20\n      add\n      swap1\n      swap3\n      swap2\n      swap1\n      dup1\n      calldataload\n      0xffffffffffffffffffffffffffffffffffffffff\n      and\n      swap1\n      0x20\n      add\n      swap1\n      swap3\n      swap2\n      swap1\n      pop\n      pop\n      pop\n      tag_31\n      jump\t// in\n    tag_29:\n      stop\n        /* \"contracts/mulSignature.sol\":5017:5224  function revokeSignApplication(bytes32 msghash) external onlySigOwner {... */\n    tag_6:\n      tag_32\n      0x04\n      dup1\n      calldatasize\n      sub\n        /* \"--CODEGEN--\":15:17   */\n      0x20\n        /* \"--CODEGEN--\":10:13   */\n      dup2\n        /* \"--CODEGEN--\":7:18   */\n      lt\n        /* \"--CODEGEN--\":4:6   */\n      iszero\n      tag_33\n      jumpi\n        /* \"--CODEGEN--\":31:32   */\n      0x00\n        /* \"--CODEGEN--\":28:29   */\n      dup1\n        /* \"--CODEGEN--\":21:33   */\n      revert\n        /* \"--CODEGEN--\":4:6   */\n    tag_33:\n        /* \"contracts/mulSignature.sol\":5017:5224  function revokeSignApplication(bytes32 msghash) external onlySigOwner {... */\n      dup2\n      add\n      swap1\n      dup1\n      dup1\n      calldataload\n      swap1\n      0x20\n      add\n      swap1\n      swap3\n      swap2\n      swap1\n      pop\n      pop\n      pop\n      tag_34\n      jump\t// in\n    tag_32:\n      stop\n        /* \"contracts/mulSignature.sol\":3927:4608  function createApplication(... */\n    tag_7:\n      tag_35\n      0x04\n      dup1\n      calldatasize\n      sub\n        /* \"--CODEGEN--\":15:17   */\n      0x40\n        /* \"--CODEGEN--\":10:13   */\n      dup2\n        /* \"--CODEGEN--\":7:18   */\n      lt\n        /* \"--CODEGEN--\":4:6   */\n      iszero\n      tag_36\n      jumpi\n        /* \"--CODEGEN--\":31:32   */\n      0x00\n        /* \"--CODEGEN--\":28:29   */\n      dup1\n        /* \"--CODEGEN--\":21:33   */\n      revert\n        /* \"--CODEGEN--\":4:6   */\n    tag_36:\n        /* \"contracts/mulSignature.sol\":3927:4608  function createApplication(... */\n      dup2\n      add\n      swap1\n      dup1\n      dup1\n      calldataload\n      0xffffffffffffffffffffffffffffffffffffffff\n      and\n      swap1\n      0x20\n      add\n      swap1\n      swap3\n      swap2\n      swap1\n      dup1\n      calldataload\n      swap1\n      0x20\n      add\n      swap1\n      swap3\n      swap2\n      swap1\n      pop\n      pop\n      pop\n      tag_37\n      jump\t// in\n    tag_35:\n      mload(0x40)\n      dup1\n      dup3\n      dup2\n      mstore\n      0x20\n      add\n      swap2\n      pop\n      pop\n      mload(0x40)\n      dup1\n      swap2\n      sub\n      swap1\n      return\n        /* \"contracts/mulSignature.sol\":1698:1746  mapping(address => bytes32[]) public sigCountMap */\n    tag_8:\n      tag_38\n      0x04\n      dup1\n      calldatasize\n      sub\n        /* \"--CODEGEN--\":15:17   */\n      0x40\n        /* \"--CODEGEN--\":10:13   */\n      dup2\n        /* \"--CODEGEN--\":7:18   */\n      lt\n        /* \"--CODEGEN--\":4:6   */\n      iszero\n      tag_39\n      jumpi\n        /* \"--CODEGEN--\":31:32   */\n      0x00\n        /* \"--CODEGEN--\":28:29   */\n      dup1\n        /* \"--CODEGEN--\":21:33   */\n      revert\n        /* \"--CODEGEN--\":4:6   */\n    tag_39:\n        /* \"contracts/mulSignature.sol\":1698:1746  mapping(address => bytes32[]) public sigCountMap */\n      dup2\n      add\n      swap1\n      dup1\n      dup1\n      calldataload\n      0xffffffffffffffffffffffffffffffffffffffff\n      and\n      swap1\n      0x20\n      add\n      swap1\n      swap3\n      swap2\n      swap1\n      dup1\n      calldataload\n      swap1\n      0x20\n      add\n      swap1\n      swap3\n      swap2\n      swap1\n      pop\n      pop\n      pop\n      tag_40\n      jump\t// in\n    tag_38:\n      mload(0x40)\n      dup1\n      dup3\n      dup2\n      mstore\n      0x20\n      add\n      swap2\n      pop\n      pop\n      mload(0x40)\n      dup1\n      swap2\n      sub\n      swap1\n      return\n        /* \"@openzeppelin/contracts-upgradeable/access/OwnableUpgradeable.sol\":1967:2112  function renounceOwnership() public virtual onlyOwner {... */\n    tag_9:\n      tag_41\n      tag_42\n      jump\t// in\n    tag_41:\n      stop\n        /* \"contracts/mulSignature.sol\":6392:6625  function getApplicationHash(... */\n    tag_10:\n      tag_43\n      0x04\n      dup1\n      calldatasize\n      sub\n        /* \"--CODEGEN--\":15:18   */\n      0x80\n        /* \"--CODEGEN--\":10:13   */\n      dup2\n        /* \"--CODEGEN--\":7:19   */\n      lt\n        /* \"--CODEGEN--\":4:6   */\n      iszero\n      tag_44\n      jumpi\n        /* \"--CODEGEN--\":32:33   */\n      0x00\n        /* \"--CODEGEN--\":29:30   */\n      dup1\n        /* \"--CODEGEN--\":22:34   */\n      revert\n        /* \"--CODEGEN--\":4:6   */\n    tag_44:\n        /* \"contracts/mulSignature.sol\":6392:6625  function getApplicationHash(... */\n      dup2\n      add\n      swap1\n      dup1\n      dup1\n      calldataload\n      0xffffffffffffffffffffffffffffffffffffffff\n      and\n      swap1\n      0x20\n      add\n      swap1\n      swap3\n      swap2\n      swap1\n      dup1\n      calldataload\n      0xffffffffffffffffffffffffffffffffffffffff\n      and\n      swap1\n      0x20\n      add\n      swap1\n      swap3\n      swap2\n      swap1\n      dup1\n      calldataload\n      swap1\n      0x20\n      add\n      swap1\n      swap3\n      swap2\n      swap1\n      dup1\n      calldataload\n      swap1\n      0x20\n      add\n      swap1\n      swap3\n      swap2\n      swap1\n      pop\n      pop\n      pop\n      tag_45\n      jump\t// in\n    tag_43:\n      mload(0x40)\n      dup1\n      dup3\n      dup2\n      mstore\n      0x20\n      add\n      swap2\n      pop\n      pop\n      mload(0x40)\n      dup1\n      swap2\n      sub\n      swap1\n      return\n        /* \"contracts/mulSignature.sol\":1666:1692  uint256 public validPeriod */\n    tag_11:\n      tag_46\n      tag_47\n      jump\t// in\n    tag_46:\n      mload(0x40)\n      dup1\n      dup3\n      dup2\n      mstore\n      0x20\n      add\n      swap2\n      pop\n      pop\n      mload(0x40)\n      dup1\n      swap2\n      sub\n      swap1\n      return\n        /* \"@openzeppelin/contracts-upgradeable/access/OwnableUpgradeable.sol\":1335:1420  function owner() public view virtual returns (address) {... */\n    tag_12:\n      tag_48\n      tag_49\n      jump\t// in\n    tag_48:\n      mload(0x40)\n      dup1\n      dup3\n      0xffffffffffffffffffffffffffffffffffffffff\n      and\n      0xffffffffffffffffffffffffffffffffffffffff\n      and\n      dup2\n      mstore\n      0x20\n      add\n      swap2\n      pop\n      pop\n      mload(0x40)\n      dup1\n      swap2\n      sub\n      swap1\n      return\n        /* \"contracts/mulSignature.sol\":1640:1660  uint256 public nonce */\n    tag_13:\n      tag_50\n      tag_51\n      jump\t// in\n    tag_50:\n      mload(0x40)\n      dup1\n      dup3\n      dup2\n      mstore\n      0x20\n      add\n      swap2\n      pop\n      pop\n      mload(0x40)\n      dup1\n      swap2\n      sub\n      swap1\n      return\n        /* \"@openzeppelin/contracts-upgradeable/access/OwnableUpgradeable.sol\":2261:2501  function transferOwnership(address newOwner) public virtual onlyOwner {... */\n    tag_14:\n      tag_52\n      0x04\n      dup1\n      calldatasize\n      sub\n        /* \"--CODEGEN--\":15:17   */\n      0x20\n        /* \"--CODEGEN--\":10:13   */\n      dup2\n        /* \"--CODEGEN--\":7:18   */\n      lt\n        /* \"--CODEGEN--\":4:6   */\n      iszero\n      tag_53\n      jumpi\n        /* \"--CODEGEN--\":31:32   */\n      0x00\n        /* \"--CODEGEN--\":28:29   */\n      dup1\n        /* \"--CODEGEN--\":21:33   */\n      revert\n        /* \"--CODEGEN--\":4:6   */\n    tag_53:\n        /* \"@openzeppelin/contracts-upgradeable/access/OwnableUpgradeable.sol\":2261:2501  function transferOwnership(address newOwner) public virtual onlyOwner {... */\n      dup2\n      add\n      swap1\n      dup1\n      dup1\n      calldataload\n      0xffffffffffffffffffffffffffffffffffffffff\n      and\n      swap1\n      0x20\n      add\n      swap1\n      swap3\n      swap2\n      swap1\n      pop\n      pop\n      pop\n      tag_54\n      jump\t// in\n    tag_52:\n      stop\n        /* \"contracts/mulSignature.sol\":2797:3461  function Initialize(... */\n    tag_15:\n      tag_55\n      0x04\n      dup1\n      calldatasize\n      sub\n        /* \"--CODEGEN--\":15:17   */\n      0x40\n        /* \"--CODEGEN--\":10:13   */\n      dup2\n        /* \"--CODEGEN--\":7:18   */\n      lt\n        /* \"--CODEGEN--\":4:6   */\n      iszero\n      tag_56\n      jumpi\n        /* \"--CODEGEN--\":31:32   */\n      0x00\n        /* \"--CODEGEN--\":28:29   */\n      dup1\n        /* \"--CODEGEN--\":21:33   */\n      revert\n        /* \"--CODEGEN--\":4:6   */\n    tag_56:\n        /* \"contracts/mulSignature.sol\":2797:3461  function Initialize(... */\n      dup2\n      add\n      swap1\n      dup1\n      dup1\n      calldataload\n      swap1\n      0x20\n      add\n      swap1\n        /* \"--CODEGEN--\":27:38   */\n      0x0100000000\n        /* \"--CODEGEN--\":14:25   */\n      dup2\n        /* \"--CODEGEN--\":11:39   */\n      gt\n        /* \"--CODEGEN--\":8:10   */\n      iszero\n      tag_57\n      jumpi\n        /* \"--CODEGEN--\":52:53   */\n      0x00\n        /* \"--CODEGEN--\":49:50   */\n      dup1\n        /* \"--CODEGEN--\":42:54   */\n      revert\n        /* \"--CODEGEN--\":8:10   */\n    tag_57:\n        /* \"contracts/mulSignature.sol\":2797:3461  function Initialize(... */\n      dup3\n      add\n        /* \"--CODEGEN--\":41:50   */\n      dup4\n        /* \"--CODEGEN--\":34:38   */\n      0x20\n        /* \"--CODEGEN--\":18:32   */\n      dup3\n        /* \"--CODEGEN--\":14:39   */\n      add\n        /* \"--CODEGEN--\":11:51   */\n      gt\n        /* \"--CODEGEN--\":8:10   */\n      iszero\n      tag_58\n      jumpi\n        /* \"--CODEGEN--\":64:65   */\n      0x00\n        /* \"--CODEGEN--\":61:62   */\n      dup1\n        /* \"--CODEGEN--\":54:66   */\n      revert\n        /* \"--CODEGEN--\":8:10   */\n    tag_58:\n        /* \"contracts/mulSignature.sol\":2797:3461  function Initialize(... */\n      dup1\n      calldataload\n      swap1\n      0x20\n      add\n      swap2\n        /* \"--CODEGEN--\":101:110   */\n      dup5\n        /* \"--CODEGEN--\":95:97   */\n      0x20\n        /* \"--CODEGEN--\":81:93   */\n      dup4\n        /* \"--CODEGEN--\":77:98   */\n      mul\n        /* \"--CODEGEN--\":67:75   */\n      dup5\n        /* \"--CODEGEN--\":63:99   */\n      add\n        /* \"--CODEGEN--\":60:111   */\n      gt\n        /* \"--CODEGEN--\":39:50   */\n      0x0100000000\n        /* \"--CODEGEN--\":25:37   */\n      dup4\n        /* \"--CODEGEN--\":22:51   */\n      gt\n        /* \"--CODEGEN--\":11:119   */\n      or\n        /* \"--CODEGEN--\":8:10   */\n      iszero\n      tag_59\n      jumpi\n        /* \"--CODEGEN--\":132:133   */\n      0x00\n        /* \"--CODEGEN--\":129:130   */\n      dup1\n        /* \"--CODEGEN--\":122:134   */\n      revert\n        /* \"--CODEGEN--\":8:10   */\n    tag_59:\n        /* \"contracts/mulSignature.sol\":2797:3461  function Initialize(... */\n      swap2\n      swap1\n      dup1\n      dup1\n      0x20\n      mul\n      0x20\n      add\n      mload(0x40)\n      swap1\n      dup2\n      add\n      0x40\n      mstore\n      dup1\n      swap4\n      swap3\n      swap2\n      swap1\n      dup2\n      dup2\n      mstore\n      0x20\n      add\n      dup4\n      dup4\n      0x20\n      mul\n        /* \"--CODEGEN--\":30:33   */\n      dup1\n        /* \"--CODEGEN--\":22:28   */\n      dup3\n        /* \"--CODEGEN--\":14:20   */\n      dup5\n        /* \"--CODEGEN--\":1:34   */\n      calldatacopy\n        /* \"--CODEGEN--\":99:100   */\n      0x00\n        /* \"--CODEGEN--\":93:96   */\n      dup2\n        /* \"--CODEGEN--\":85:91   */\n      dup5\n        /* \"--CODEGEN--\":81:97   */\n      add\n        /* \"--CODEGEN--\":74:101   */\n      mstore\n        /* \"--CODEGEN--\":137:141   */\n      0x1f\n        /* \"--CODEGEN--\":133:142   */\n      not\n        /* \"--CODEGEN--\":126:130   */\n      0x1f\n        /* \"--CODEGEN--\":121:124   */\n      dup3\n        /* \"--CODEGEN--\":117:131   */\n      add\n        /* \"--CODEGEN--\":113:143   */\n      and\n        /* \"--CODEGEN--\":106:143   */\n      swap1\n      pop\n        /* \"--CODEGEN--\":169:172   */\n      dup1\n        /* \"--CODEGEN--\":161:167   */\n      dup4\n        /* \"--CODEGEN--\":157:173   */\n      add\n        /* \"--CODEGEN--\":147:173   */\n      swap3\n      pop\n        /* \"contracts/mulSignature.sol\":2797:3461  function Initialize(... */\n      pop\n      pop\n      pop\n      pop\n      pop\n      pop\n      swap2\n      swap3\n      swap2\n      swap3\n      swap1\n      dup1\n      calldataload\n      swap1\n      0x20\n      add\n      swap1\n      swap3\n      swap2\n      swap1\n      pop\n      pop\n      pop\n      tag_60\n      jump\t// in\n    tag_55:\n      stop\n        /* \"contracts/mulSignature.sol\":4614:5011  function signApplication(... */\n    tag_16:\n      tag_61\n      0x04\n      dup1\n      calldatasize\n      sub\n        /* \"--CODEGEN--\":15:17   */\n      0x40\n        /* \"--CODEGEN--\":10:13   */\n      dup2\n        /* \"--CODEGEN--\":7:18   */\n      lt\n        /* \"--CODEGEN--\":4:6   */\n      iszero\n      tag_62\n      jumpi\n        /* \"--CODEGEN--\":31:32   */\n      0x00\n        /* \"--CODEGEN--\":28:29   */\n      dup1\n        /* \"--CODEGEN--\":21:33   */\n      revert\n        /* \"--CODEGEN--\":4:6   */\n    tag_62:\n        /* \"contracts/mulSignature.sol\":4614:5011  function signApplication(... */\n      dup2\n      add\n      swap1\n      dup1\n      dup1\n      calldataload\n      swap1\n      0x20\n      add\n      swap1\n      swap3\n      swap2\n      swap1\n      dup1\n      calldataload\n      swap1\n      0x20\n      add\n      swap1\n      swap3\n      swap2\n      swap1\n      pop\n      pop\n      pop\n      tag_63\n      jump\t// in\n    tag_61:\n      stop\n        /* \"contracts/mulSignature.sol\":1985:2038  mapping(bytes32 => signatureInfo) public signatureMap */\n    tag_22:\n      mstore(0x20, 0x6a)\n      dup1\n      0x00\n      mstore\n      keccak256(0x00, 0x40)\n      0x00\n      swap2\n      pop\n      swap1\n      pop\n      dup1\n      0x00\n      add\n      0x00\n      swap1\n      sload\n      swap1\n      0x0100\n      exp\n      swap1\n      div\n      0xffffffffffffffffffffffffffffffffffffffff\n      and\n      swap1\n      dup1\n      0x02\n      add\n      0x00\n      swap1\n      sload\n      swap1\n      0x0100\n      exp\n      swap1\n      div\n      0xff\n      and\n      swap1\n      dup1\n      0x03\n      add\n      sload\n      swap1\n      dup1\n      0x04\n      add\n      sload\n      swap1\n      pop\n      dup5\n      jump\t// out\n        /* \"contracts/mulSignature.sol\":5798:6153  function getApplicationInfo(... */\n    tag_25:\n        /* \"contracts/mulSignature.sol\":5878:5885  address */\n      0x00\n        /* \"contracts/mulSignature.sol\":5887:5903  address[] memory */\n      0x60\n        /* \"contracts/mulSignature.sol\":5905:5909  bool */\n      0x00\n        /* \"contracts/mulSignature.sol\":5911:5918  uint256 */\n      dup1\n        /* \"contracts/mulSignature.sol\":5920:5927  uint256 */\n      0x00\n        /* \"contracts/mulSignature.sol\":5939:5964  signatureInfo memory info */\n      tag_65\n      tag_66\n      jump\t// in\n    tag_65:\n        /* \"contracts/mulSignature.sol\":5967:5979  signatureMap */\n      0x6a\n        /* \"contracts/mulSignature.sol\":5967:5988  signatureMap[msghash] */\n      0x00\n        /* \"contracts/mulSignature.sol\":5980:5987  msghash */\n      dup9\n        /* \"contracts/mulSignature.sol\":5967:5988  signatureMap[msghash] */\n      dup2\n      mstore\n      0x20\n      add\n      swap1\n      dup2\n      mstore\n      0x20\n      add\n      0x00\n      keccak256\n        /* \"contracts/mulSignature.sol\":5939:5988  signatureInfo memory info = signatureMap[msghash] */\n      mload(0x40)\n      dup1\n      0xa0\n      add\n      0x40\n      mstore\n      swap1\n      dup2\n      0x00\n      dup3\n      add\n      0x00\n      swap1\n      sload\n      swap1\n      0x0100\n      exp\n      swap1\n      div\n      0xffffffffffffffffffffffffffffffffffffffff\n      and\n      0xffffffffffffffffffffffffffffffffffffffff\n      and\n      0xffffffffffffffffffffffffffffffffffffffff\n      and\n      dup2\n      mstore\n      0x20\n      add\n      0x01\n      dup3\n      add\n      dup1\n      sload\n      dup1\n      0x20\n      mul\n      0x20\n      add\n      mload(0x40)\n      swap1\n      dup2\n      add\n      0x40\n      mstore\n      dup1\n      swap3\n      swap2\n      swap1\n      dup2\n      dup2\n      mstore\n      0x20\n      add\n      dup3\n      dup1\n      sload\n      dup1\n      iszero\n      tag_67\n      jumpi\n      0x20\n      mul\n      dup3\n      add\n      swap2\n      swap1\n      0x00\n      mstore\n      keccak256(0x00, 0x20)\n      swap1\n    tag_68:\n      dup2\n      0x00\n      swap1\n      sload\n      swap1\n      0x0100\n      exp\n      swap1\n      div\n      0xffffffffffffffffffffffffffffffffffffffff\n      and\n      0xffffffffffffffffffffffffffffffffffffffff\n      and\n      dup2\n      mstore\n      0x20\n      add\n      swap1\n      0x01\n      add\n      swap1\n      dup1\n      dup4\n      gt\n      tag_68\n      jumpi\n    tag_67:\n      pop\n      pop\n      pop\n      pop\n      pop\n      dup2\n      mstore\n      0x20\n      add\n      0x02\n      dup3\n      add\n      0x00\n      swap1\n      sload\n      swap1\n      0x0100\n      exp\n      swap1\n      div\n      0xff\n      and\n      iszero\n      iszero\n      iszero\n      iszero\n      dup2\n      mstore\n      0x20\n      add\n      0x03\n      dup3\n      add\n      sload\n      dup2\n      mstore\n      0x20\n      add\n      0x04\n      dup3\n      add\n      sload\n      dup2\n      mstore\n      pop\n      pop\n      swap1\n      pop\n        /* \"contracts/mulSignature.sol\":6019:6023  info */\n      dup1\n        /* \"contracts/mulSignature.sol\":6019:6033  info.applicant */\n      0x00\n      add\n      mload\n        /* \"contracts/mulSignature.sol\":6047:6051  info */\n      dup2\n        /* \"contracts/mulSignature.sol\":6047:6062  info.signatures */\n      0x20\n      add\n      mload\n        /* \"contracts/mulSignature.sol\":6076:6080  info */\n      dup3\n        /* \"contracts/mulSignature.sol\":6076:6087  info.status */\n      0x40\n      add\n      mload\n        /* \"contracts/mulSignature.sol\":6101:6105  info */\n      dup4\n        /* \"contracts/mulSignature.sol\":6101:6112  info.expiry */\n      0x60\n      add\n      mload\n        /* \"contracts/mulSignature.sol\":6126:6130  info */\n      dup5\n        /* \"contracts/mulSignature.sol\":6126:6136  info.nonce */\n      0x80\n      add\n      mload\n        /* \"contracts/mulSignature.sol\":5998:6146  return (... */\n      dup4\n      swap4\n      pop\n      swap6\n      pop\n      swap6\n      pop\n      swap6\n      pop\n      swap6\n      pop\n      swap6\n      pop\n      pop\n        /* \"contracts/mulSignature.sol\":5798:6153  function getApplicationInfo(... */\n      swap2\n      swap4\n      swap6\n      swap1\n      swap3\n      swap5\n      pop\n      jump\t// out\n        /* \"contracts/mulSignature.sol\":3467:3921  function transferOwner(... */\n    tag_31:\n        /* \"contracts/mulSignature.sol\":2650:2695  signatureOwners.isEligibleAddress(msg.sender) */\n      tag_70\n        /* \"contracts/mulSignature.sol\":2684:2694  msg.sender */\n      caller\n        /* \"contracts/mulSignature.sol\":2650:2665  signatureOwners */\n      0x65\n        /* \"contracts/mulSignature.sol\":2650:2683  signatureOwners.isEligibleAddress */\n      dup1\n      sload\n      dup1\n      0x20\n      mul\n      0x20\n      add\n      mload(0x40)\n      swap1\n      dup2\n      add\n      0x40\n      mstore\n      dup1\n      swap3\n      swap2\n      swap1\n      dup2\n      dup2\n      mstore\n      0x20\n      add\n      dup3\n      dup1\n      sload\n      dup1\n      iszero\n      tag_71\n      jumpi\n      0x20\n      mul\n      dup3\n      add\n      swap2\n      swap1\n      0x00\n      mstore\n      keccak256(0x00, 0x20)\n      swap1\n    tag_72:\n      dup2\n      0x00\n      swap1\n      sload\n      swap1\n      0x0100\n      exp\n      swap1\n      div\n      0xffffffffffffffffffffffffffffffffffffffff\n      and\n      0xffffffffffffffffffffffffffffffffffffffff\n      and\n      dup2\n      mstore\n      0x20\n      add\n      swap1\n      0x01\n      add\n      swap1\n      dup1\n      dup4\n      gt\n      tag_72\n      jumpi\n    tag_71:\n      pop\n      pop\n      pop\n      pop\n      pop\n      tag_73\n      swap1\n        /* \"contracts/mulSignature.sol\":2650:2695  signatureOwners.isEligibleAddress(msg.sender) */\n      swap2\n      swap1\n      0xffffffff\n      and\n      jump\t// in\n    tag_70:\n        /* \"contracts/mulSignature.sol\":2629:2773  require(... */\n      tag_74\n      jumpi\n      mload(0x40)\n      0x08c379a000000000000000000000000000000000000000000000000000000000\n      dup2\n      mstore\n      0x04\n      add\n      dup1\n      dup1\n      0x20\n      add\n      dup3\n      dup2\n      sub\n      dup3\n      mstore\n      0x34\n      dup2\n      mstore\n      0x20\n      add\n      dup1\n      data_43f94f8943a878f43525282ffad720a853ed90b9b126e56b99745a92bf5ff462\n      0x34\n      swap2\n      codecopy\n      0x40\n      add\n      swap2\n      pop\n      pop\n      mload(0x40)\n      dup1\n      swap2\n      sub\n      swap1\n      revert\n    tag_74:\n        /* \"contracts/mulSignature.sol\":3704:3719  signatureOwners */\n      0x65\n        /* \"contracts/mulSignature.sol\":3704:3726  signatureOwners.length */\n      dup1\n      sload\n      swap1\n      pop\n        /* \"contracts/mulSignature.sol\":3696:3701  index */\n      dup3\n        /* \"contracts/mulSignature.sol\":3696:3726  index < signatureOwners.length */\n      lt\n        /* \"contracts/mulSignature.sol\":3675:3797  require(... */\n      tag_76\n      jumpi\n      mload(0x40)\n      0x08c379a000000000000000000000000000000000000000000000000000000000\n      dup2\n      mstore\n      0x04\n      add\n      dup1\n      dup1\n      0x20\n      add\n      dup3\n      dup2\n      sub\n      dup3\n      mstore\n      0x2d\n      dup2\n      mstore\n      0x20\n      add\n      dup1\n      data_a718c357619561d0ed1d5b484565d90cadf1086b3b13693ebfd5e4de6d671904\n      0x2d\n      swap2\n      codecopy\n      0x40\n      add\n      swap2\n      pop\n      pop\n      mload(0x40)\n      dup1\n      swap2\n      sub\n      swap1\n      revert\n    tag_76:\n        /* \"contracts/mulSignature.sol\":3862:3870  newOwner */\n      dup1\n        /* \"contracts/mulSignature.sol\":3812:3871  TransferOwner(msg.sender, signatureOwners[index], newOwner) */\n      0xffffffffffffffffffffffffffffffffffffffff\n      and\n        /* \"contracts/mulSignature.sol\":3838:3853  signatureOwners */\n      0x65\n        /* \"contracts/mulSignature.sol\":3854:3859  index */\n      dup4\n        /* \"contracts/mulSignature.sol\":3838:3860  signatureOwners[index] */\n      dup2\n      sload\n      dup2\n      lt\n      tag_77\n      jumpi\n      invalid\n    tag_77:\n      swap1\n      0x00\n      mstore\n      keccak256(0x00, 0x20)\n      add\n      0x00\n      swap1\n      sload\n      swap1\n      0x0100\n      exp\n      swap1\n      div\n      0xffffffffffffffffffffffffffffffffffffffff\n      and\n        /* \"contracts/mulSignature.sol\":3812:3871  TransferOwner(msg.sender, signatureOwners[index], newOwner) */\n      0xffffffffffffffffffffffffffffffffffffffff\n      and\n        /* \"contracts/mulSignature.sol\":3826:3836  msg.sender */\n      caller\n        /* \"contracts/mulSignature.sol\":3812:3871  TransferOwner(msg.sender, signatureOwners[index], newOwner) */\n      0xffffffffffffffffffffffffffffffffffffffff\n      and\n      0xf48dd64d794d3623209edddaa975cfeae5b0ef403fbce64d7b377ceb50396c74\n      mload(0x40)\n      mload(0x40)\n      dup1\n      swap2\n      sub\n      swap1\n      log4\n        /* \"contracts/mulSignature.sol\":3906:3914  newOwner */\n      dup1\n        /* \"contracts/mulSignature.sol\":3881:3896  signatureOwners */\n      0x65\n        /* \"contracts/mulSignature.sol\":3897:3902  index */\n      dup4\n        /* \"contracts/mulSignature.sol\":3881:3903  signatureOwners[index] */\n      dup2\n      sload\n      dup2\n      lt\n      tag_79\n      jumpi\n      invalid\n    tag_79:\n      swap1\n      0x00\n      mstore\n      keccak256(0x00, 0x20)\n      add\n      0x00\n        /* \"contracts/mulSignature.sol\":3881:3914  signatureOwners[index] = newOwner */\n      0x0100\n      exp\n      dup2\n      sload\n      dup2\n      0xffffffffffffffffffffffffffffffffffffffff\n      mul\n      not\n      and\n      swap1\n      dup4\n      0xffffffffffffffffffffffffffffffffffffffff\n      and\n      mul\n      or\n      swap1\n      sstore\n      pop\n        /* \"contracts/mulSignature.sol\":3467:3921  function transferOwner(... */\n      pop\n      pop\n      jump\t// out\n        /* \"contracts/mulSignature.sol\":5017:5224  function revokeSignApplication(bytes32 msghash) external onlySigOwner {... */\n    tag_34:\n        /* \"contracts/mulSignature.sol\":2650:2695  signatureOwners.isEligibleAddress(msg.sender) */\n      tag_82\n        /* \"contracts/mulSignature.sol\":2684:2694  msg.sender */\n      caller\n        /* \"contracts/mulSignature.sol\":2650:2665  signatureOwners */\n      0x65\n        /* \"contracts/mulSignature.sol\":2650:2683  signatureOwners.isEligibleAddress */\n      dup1\n      sload\n      dup1\n      0x20\n      mul\n      0x20\n      add\n      mload(0x40)\n      swap1\n      dup2\n      add\n      0x40\n      mstore\n      dup1\n      swap3\n      swap2\n      swap1\n      dup2\n      dup2\n      mstore\n      0x20\n      add\n      dup3\n      dup1\n      sload\n      dup1\n      iszero\n      tag_83\n      jumpi\n      0x20\n      mul\n      dup3\n      add\n      swap2\n      swap1\n      0x00\n      mstore\n      keccak256(0x00, 0x20)\n      swap1\n    tag_84:\n      dup2\n      0x00\n      swap1\n      sload\n      swap1\n      0x0100\n      exp\n      swap1\n      div\n      0xffffffffffffffffffffffffffffffffffffffff\n      and\n      0xffffffffffffffffffffffffffffffffffffffff\n      and\n      dup2\n      mstore\n      0x20\n      add\n      swap1\n      0x01\n      add\n      swap1\n      dup1\n      dup4\n      gt\n      tag_84\n      jumpi\n    tag_83:\n      pop\n      pop\n      pop\n      pop\n      pop\n      tag_73\n      swap1\n        /* \"contracts/mulSignature.sol\":2650:2695  signatureOwners.isEligibleAddress(msg.sender) */\n      swap2\n      swap1\n      0xffffffff\n      and\n      jump\t// in\n    tag_82:\n        /* \"contracts/mulSignature.sol\":2629:2773  require(... */\n      tag_85\n      jumpi\n      mload(0x40)\n      0x08c379a000000000000000000000000000000000000000000000000000000000\n      dup2\n      mstore\n      0x04\n      add\n      dup1\n      dup1\n      0x20\n      add\n      dup3\n      dup2\n      sub\n      dup3\n      mstore\n      0x34\n      dup2\n      mstore\n      0x20\n      add\n      dup1\n      data_43f94f8943a878f43525282ffad720a853ed90b9b126e56b99745a92bf5ff462\n      0x34\n      swap2\n      codecopy\n      0x40\n      add\n      swap2\n      pop\n      pop\n      mload(0x40)\n      dup1\n      swap2\n      sub\n      swap1\n      revert\n    tag_85:\n        /* \"contracts/mulSignature.sol\":5132:5139  msghash */\n      dup1\n        /* \"contracts/mulSignature.sol\":5120:5130  msg.sender */\n      caller\n        /* \"contracts/mulSignature.sol\":5102:5140  RevokeApplication(msg.sender, msghash) */\n      0xffffffffffffffffffffffffffffffffffffffff\n      and\n      0x966e42eca6e887734776fe8b26b78089c7cc415617a4d7c8a868f9fa671b65fb\n      mload(0x40)\n      mload(0x40)\n      dup1\n      swap2\n      sub\n      swap1\n      log3\n        /* \"contracts/mulSignature.sol\":5150:5217  signatureMap[msghash].signatures.removeWhiteListAddress(msg.sender) */\n      tag_87\n        /* \"contracts/mulSignature.sol\":5206:5216  msg.sender */\n      caller\n        /* \"contracts/mulSignature.sol\":5150:5162  signatureMap */\n      0x6a\n        /* \"contracts/mulSignature.sol\":5150:5171  signatureMap[msghash] */\n      0x00\n        /* \"contracts/mulSignature.sol\":5163:5170  msghash */\n      dup5\n        /* \"contracts/mulSignature.sol\":5150:5171  signatureMap[msghash] */\n      dup2\n      mstore\n      0x20\n      add\n      swap1\n      dup2\n      mstore\n      0x20\n      add\n      0x00\n      keccak256\n        /* \"contracts/mulSignature.sol\":5150:5182  signatureMap[msghash].signatures */\n      0x01\n      add\n        /* \"contracts/mulSignature.sol\":5150:5205  signatureMap[msghash].signatures.removeWhiteListAddress */\n      tag_88\n      swap1\n        /* \"contracts/mulSignature.sol\":5150:5217  signatureMap[msghash].signatures.removeWhiteListAddress(msg.sender) */\n      swap2\n      swap1\n      0xffffffff\n      and\n      jump\t// in\n    tag_87:\n      pop\n        /* \"contracts/mulSignature.sol\":5017:5224  function revokeSignApplication(bytes32 msghash) external onlySigOwner {... */\n      pop\n      jump\t// out\n        /* \"contracts/mulSignature.sol\":3927:4608  function createApplication(... */\n    tag_37:\n        /* \"contracts/mulSignature.sol\":4023:4036  uint256 index */\n      0x00\n        /* \"contracts/mulSignature.sol\":4048:4063  bytes32 msghash */\n      dup1\n        /* \"contracts/mulSignature.sol\":4066:4116  getApplicationHash(msg.sender, to, funcSig, nonce) */\n      tag_90\n        /* \"contracts/mulSignature.sol\":4085:4095  msg.sender */\n      caller\n        /* \"contracts/mulSignature.sol\":4097:4099  to */\n      dup6\n        /* \"contracts/mulSignature.sol\":4101:4108  funcSig */\n      dup6\n        /* \"contracts/mulSignature.sol\":4110:4115  nonce */\n      sload(0x67)\n        /* \"contracts/mulSignature.sol\":4066:4084  getApplicationHash */\n      tag_45\n        /* \"contracts/mulSignature.sol\":4066:4116  getApplicationHash(msg.sender, to, funcSig, nonce) */\n      jump\t// in\n    tag_90:\n        /* \"contracts/mulSignature.sol\":4048:4116  bytes32 msghash = getApplicationHash(msg.sender, to, funcSig, nonce) */\n      swap1\n      pop\n        /* \"contracts/mulSignature.sol\":4171:4176  nonce */\n      sload(0x67)\n        /* \"contracts/mulSignature.sol\":4163:4176  index = nonce */\n      swap2\n      pop\n        /* \"contracts/mulSignature.sol\":4186:4191  nonce */\n      0x67\n      0x00\n        /* \"contracts/mulSignature.sol\":4186:4193  nonce++ */\n      dup2\n      sload\n      dup1\n      swap3\n      swap2\n      swap1\n      0x01\n      add\n      swap2\n      swap1\n      pop\n      sstore\n      pop\n        /* \"contracts/mulSignature.sol\":4228:4386  signatureInfo(... */\n      mload(0x40)\n      dup1\n      0xa0\n      add\n      0x40\n      mstore\n      dup1\n        /* \"contracts/mulSignature.sol\":4255:4265  msg.sender */\n      caller\n        /* \"contracts/mulSignature.sol\":4228:4386  signatureInfo(... */\n      0xffffffffffffffffffffffffffffffffffffffff\n      and\n      dup2\n      mstore\n      0x20\n      add\n        /* \"contracts/mulSignature.sol\":4293:4294  0 */\n      0x00\n        /* \"contracts/mulSignature.sol\":4279:4295  new address[](0) */\n      mload(0x40)\n      swap1\n      dup1\n      dup3\n      mstore\n      dup1\n      0x20\n      mul\n      0x20\n      add\n      dup3\n      add\n      0x40\n      mstore\n      dup1\n      iszero\n      tag_91\n      jumpi\n      dup2\n      0x20\n      add\n        /* \"--CODEGEN--\":29:31   */\n      0x20\n        /* \"--CODEGEN--\":21:27   */\n      dup3\n        /* \"--CODEGEN--\":17:32   */\n      mul\n        /* \"--CODEGEN--\":125:129   */\n      dup1\n        /* \"--CODEGEN--\":109:123   */\n      calldatasize\n        /* \"--CODEGEN--\":101:107   */\n      dup4\n        /* \"--CODEGEN--\":88:130   */\n      calldatacopy\n        /* \"--CODEGEN--\":156:160   */\n      dup1\n        /* \"--CODEGEN--\":148:154   */\n      dup3\n        /* \"--CODEGEN--\":144:161   */\n      add\n        /* \"--CODEGEN--\":134:161   */\n      swap2\n      pop\n        /* \"--CODEGEN--\":0:165   */\n      pop\n        /* \"contracts/mulSignature.sol\":4279:4295  new address[](0) */\n      swap1\n      pop\n    tag_91:\n      pop\n        /* \"contracts/mulSignature.sol\":4228:4386  signatureInfo(... */\n      dup2\n      mstore\n      0x20\n      add\n        /* \"contracts/mulSignature.sol\":4309:4314  false */\n      0x00\n        /* \"contracts/mulSignature.sol\":4228:4386  signatureInfo(... */\n      iszero\n      iszero\n      dup2\n      mstore\n      0x20\n      add\n        /* \"contracts/mulSignature.sol\":4346:4357  validPeriod */\n      sload(0x68)\n        /* \"contracts/mulSignature.sol\":4328:4343  block.timestamp */\n      timestamp\n        /* \"contracts/mulSignature.sol\":4328:4357  block.timestamp + validPeriod */\n      add\n        /* \"contracts/mulSignature.sol\":4228:4386  signatureInfo(... */\n      dup2\n      mstore\n      0x20\n      add\n        /* \"contracts/mulSignature.sol\":4371:4376  index */\n      dup4\n        /* \"contracts/mulSignature.sol\":4228:4386  signatureInfo(... */\n      dup2\n      mstore\n      pop\n        /* \"contracts/mulSignature.sol\":4204:4216  signatureMap */\n      0x6a\n        /* \"contracts/mulSignature.sol\":4204:4225  signatureMap[msghash] */\n      0x00\n        /* \"contracts/mulSignature.sol\":4217:4224  msghash */\n      dup4\n        /* \"contracts/mulSignature.sol\":4204:4225  signatureMap[msghash] */\n      dup2\n      mstore\n      0x20\n      add\n      swap1\n      dup2\n      mstore\n      0x20\n      add\n      0x00\n      keccak256\n        /* \"contracts/mulSignature.sol\":4204:4386  signatureMap[msghash] = signatureInfo(... */\n      0x00\n      dup3\n      add\n      mload\n      dup2\n      0x00\n      add\n      exp(0x0100, 0x00)\n      dup2\n      sload\n      dup2\n      0xffffffffffffffffffffffffffffffffffffffff\n      mul\n      not\n      and\n      swap1\n      dup4\n      0xffffffffffffffffffffffffffffffffffffffff\n      and\n      mul\n      or\n      swap1\n      sstore\n      pop\n      0x20\n      dup3\n      add\n      mload\n      dup2\n      0x01\n      add\n      swap1\n      dup1\n      mload\n      swap1\n      0x20\n      add\n      swap1\n      tag_92\n      swap3\n      swap2\n      swap1\n      tag_93\n      jump\t// in\n    tag_92:\n      pop\n      0x40\n      dup3\n      add\n      mload\n      dup2\n      0x02\n      add\n      exp(0x0100, 0x00)\n      dup2\n      sload\n      dup2\n      0xff\n      mul\n      not\n      and\n      swap1\n      dup4\n      iszero\n      iszero\n      mul\n      or\n      swap1\n      sstore\n      pop\n      0x60\n      dup3\n      add\n      mload\n      dup2\n      0x03\n      add\n      sstore\n      0x80\n      dup3\n      add\n      mload\n      dup2\n      0x04\n      add\n      sstore\n      swap1\n      pop\n      pop\n        /* \"contracts/mulSignature.sol\":4396:4407  sigCountMap */\n      0x69\n        /* \"contracts/mulSignature.sol\":4396:4419  sigCountMap[msg.sender] */\n      0x00\n        /* \"contracts/mulSignature.sol\":4408:4418  msg.sender */\n      caller\n        /* \"contracts/mulSignature.sol\":4396:4419  sigCountMap[msg.sender] */\n      0xffffffffffffffffffffffffffffffffffffffff\n      and\n      0xffffffffffffffffffffffffffffffffffffffff\n      and\n      dup2\n      mstore\n      0x20\n      add\n      swap1\n      dup2\n      mstore\n      0x20\n      add\n      0x00\n      keccak256\n        /* \"contracts/mulSignature.sol\":4425:4432  msghash */\n      dup2\n        /* \"contracts/mulSignature.sol\":4396:4433  sigCountMap[msg.sender].push(msghash) */\n      swap1\n      dup1\n        /* \"--CODEGEN--\":39:40   */\n      0x01\n        /* \"--CODEGEN--\":33:36   */\n      dup2\n        /* \"--CODEGEN--\":27:37   */\n      sload\n        /* \"--CODEGEN--\":23:41   */\n      add\n        /* \"--CODEGEN--\":57:67   */\n      dup1\n        /* \"--CODEGEN--\":52:55   */\n      dup3\n        /* \"--CODEGEN--\":45:68   */\n      sstore\n        /* \"--CODEGEN--\":79:89   */\n      dup1\n        /* \"--CODEGEN--\":72:89   */\n      swap2\n      pop\n        /* \"--CODEGEN--\":0:93   */\n      pop\n        /* \"contracts/mulSignature.sol\":4396:4433  sigCountMap[msg.sender].push(msghash) */\n      0x01\n      swap1\n      sub\n      swap1\n      0x00\n      mstore\n      keccak256(0x00, 0x20)\n      add\n      0x00\n      swap1\n      swap2\n      swap1\n      swap2\n      swap1\n      swap2\n      pop\n      sstore\n        /* \"contracts/mulSignature.sol\":4519:4526  msghash */\n      dup1\n        /* \"contracts/mulSignature.sol\":4503:4505  to */\n      dup5\n        /* \"contracts/mulSignature.sol\":4448:4579  CreateApplication(... */\n      0xffffffffffffffffffffffffffffffffffffffff\n      and\n        /* \"contracts/mulSignature.sol\":4479:4489  msg.sender */\n      caller\n        /* \"contracts/mulSignature.sol\":4448:4579  CreateApplication(... */\n      0xffffffffffffffffffffffffffffffffffffffff\n      and\n      0x0e63e7cfe26fd3b2d1864dfdbdb38ba47838d3c60d8588940b275c9cf18a3297\n        /* \"contracts/mulSignature.sol\":4558:4569  validPeriod */\n      sload(0x68)\n        /* \"contracts/mulSignature.sol\":4540:4555  block.timestamp */\n      timestamp\n        /* \"contracts/mulSignature.sol\":4540:4569  block.timestamp + validPeriod */\n      add\n        /* \"contracts/mulSignature.sol\":4448:4579  CreateApplication(... */\n      mload(0x40)\n      dup1\n      dup3\n      dup2\n      mstore\n      0x20\n      add\n      swap2\n      pop\n      pop\n      mload(0x40)\n      dup1\n      swap2\n      sub\n      swap1\n      log4\n        /* \"contracts/mulSignature.sol\":4596:4601  index */\n      dup2\n        /* \"contracts/mulSignature.sol\":4589:4601  return index */\n      swap2\n      pop\n      pop\n        /* \"contracts/mulSignature.sol\":3927:4608  function createApplication(... */\n      swap3\n      swap2\n      pop\n      pop\n      jump\t// out\n        /* \"contracts/mulSignature.sol\":1698:1746  mapping(address => bytes32[]) public sigCountMap */\n    tag_40:\n      mstore(0x20, 0x69)\n      dup2\n      0x00\n      mstore\n      keccak256(0x00, 0x40)\n      dup2\n      dup2\n      sload\n      dup2\n      lt\n      tag_95\n      jumpi\n      invalid\n    tag_95:\n      swap1\n      0x00\n      mstore\n      keccak256(0x00, 0x20)\n      add\n      0x00\n      swap2\n      pop\n      swap2\n      pop\n      pop\n      sload\n      dup2\n      jump\t// out\n        /* \"@openzeppelin/contracts-upgradeable/access/OwnableUpgradeable.sol\":1967:2112  function renounceOwnership() public virtual onlyOwner {... */\n    tag_42:\n        /* \"@openzeppelin/contracts-upgradeable/access/OwnableUpgradeable.sol\":1558:1570  _msgSender() */\n      tag_98\n        /* \"@openzeppelin/contracts-upgradeable/access/OwnableUpgradeable.sol\":1558:1568  _msgSender */\n      tag_99\n        /* \"@openzeppelin/contracts-upgradeable/access/OwnableUpgradeable.sol\":1558:1570  _msgSender() */\n      jump\t// in\n    tag_98:\n        /* \"@openzeppelin/contracts-upgradeable/access/OwnableUpgradeable.sol\":1547:1570  owner() == _msgSender() */\n      0xffffffffffffffffffffffffffffffffffffffff\n      and\n        /* \"@openzeppelin/contracts-upgradeable/access/OwnableUpgradeable.sol\":1547:1554  owner() */\n      tag_100\n        /* \"@openzeppelin/contracts-upgradeable/access/OwnableUpgradeable.sol\":1547:1552  owner */\n      tag_49\n        /* \"@openzeppelin/contracts-upgradeable/access/OwnableUpgradeable.sol\":1547:1554  owner() */\n      jump\t// in\n    tag_100:\n        /* \"@openzeppelin/contracts-upgradeable/access/OwnableUpgradeable.sol\":1547:1570  owner() == _msgSender() */\n      0xffffffffffffffffffffffffffffffffffffffff\n      and\n      eq\n        /* \"@openzeppelin/contracts-upgradeable/access/OwnableUpgradeable.sol\":1539:1607  require(owner() == _msgSender(), \"Ownable: caller is not the owner\") */\n      tag_101\n      jumpi\n      mload(0x40)\n      0x08c379a000000000000000000000000000000000000000000000000000000000\n      dup2\n      mstore\n      0x04\n      add\n      dup1\n      dup1\n      0x20\n      add\n      dup3\n      dup2\n      sub\n      dup3\n      mstore\n      0x20\n      dup2\n      mstore\n      0x20\n      add\n      dup1\n      0x4f776e61626c653a2063616c6c6572206973206e6f7420746865206f776e6572\n      dup2\n      mstore\n      pop\n      0x20\n      add\n      swap2\n      pop\n      pop\n      mload(0x40)\n      dup1\n      swap2\n      sub\n      swap1\n      revert\n    tag_101:\n        /* \"@openzeppelin/contracts-upgradeable/access/OwnableUpgradeable.sol\":2073:2074  0 */\n      0x00\n        /* \"@openzeppelin/contracts-upgradeable/access/OwnableUpgradeable.sol\":2036:2076  OwnershipTransferred(_owner, address(0)) */\n      0xffffffffffffffffffffffffffffffffffffffff\n      and\n        /* \"@openzeppelin/contracts-upgradeable/access/OwnableUpgradeable.sol\":2057:2063  _owner */\n      0x33\n      0x00\n      swap1\n      sload\n      swap1\n      0x0100\n      exp\n      swap1\n      div\n      0xffffffffffffffffffffffffffffffffffffffff\n      and\n        /* \"@openzeppelin/contracts-upgradeable/access/OwnableUpgradeable.sol\":2036:2076  OwnershipTransferred(_owner, address(0)) */\n      0xffffffffffffffffffffffffffffffffffffffff\n      and\n      0x8be0079c531659141344cd1fd0a4f28419497f9722a3daafe3b4186f6b6457e0\n      mload(0x40)\n      mload(0x40)\n      dup1\n      swap2\n      sub\n      swap1\n      log3\n        /* \"@openzeppelin/contracts-upgradeable/access/OwnableUpgradeable.sol\":2103:2104  0 */\n      0x00\n        /* \"@openzeppelin/contracts-upgradeable/access/OwnableUpgradeable.sol\":2086:2092  _owner */\n      0x33\n      0x00\n        /* \"@openzeppelin/contracts-upgradeable/access/OwnableUpgradeable.sol\":2086:2105  _owner = address(0) */\n      0x0100\n      exp\n      dup2\n      sload\n      dup2\n      0xffffffffffffffffffffffffffffffffffffffff\n      mul\n      not\n      and\n      swap1\n      dup4\n      0xffffffffffffffffffffffffffffffffffffffff\n      and\n      mul\n      or\n      swap1\n      sstore\n      pop\n        /* \"@openzeppelin/contracts-upgradeable/access/OwnableUpgradeable.sol\":1967:2112  function renounceOwnership() public virtual onlyOwner {... */\n      jump\t// out\n        /* \"contracts/mulSignature.sol\":6392:6625  function getApplicationHash(... */\n    tag_45:\n        /* \"contracts/mulSignature.sol\":6538:6545  bytes32 */\n      0x00\n        /* \"contracts/mulSignature.sol\":6591:6595  from */\n      dup5\n        /* \"contracts/mulSignature.sol\":6597:6599  to */\n      dup5\n        /* \"contracts/mulSignature.sol\":6601:6608  funcSig */\n      dup5\n        /* \"contracts/mulSignature.sol\":6610:6616  _nonce */\n      dup5\n        /* \"contracts/mulSignature.sol\":6574:6617  abi.encodePacked(from, to, funcSig, _nonce) */\n      add(0x20, mload(0x40))\n      dup1\n      dup6\n      0xffffffffffffffffffffffffffffffffffffffff\n      and\n      0xffffffffffffffffffffffffffffffffffffffff\n      and\n      0x60\n      shl\n      dup2\n      mstore\n      0x14\n      add\n      dup5\n      0xffffffffffffffffffffffffffffffffffffffff\n      and\n      0xffffffffffffffffffffffffffffffffffffffff\n      and\n      0x60\n      shl\n      dup2\n      mstore\n      0x14\n      add\n      dup4\n      dup2\n      mstore\n      0x20\n      add\n      dup3\n      dup2\n      mstore\n      0x20\n      add\n      swap5\n      pop\n      pop\n      pop\n      pop\n      pop\n      mload(0x40)\n        /* \"--CODEGEN--\":49:53   */\n      0x20\n        /* \"--CODEGEN--\":39:46   */\n      dup2\n        /* \"--CODEGEN--\":30:37   */\n      dup4\n        /* \"--CODEGEN--\":26:47   */\n      sub\n        /* \"--CODEGEN--\":22:54   */\n      sub\n        /* \"--CODEGEN--\":13:20   */\n      dup2\n        /* \"--CODEGEN--\":6:55   */\n      mstore\n        /* \"contracts/mulSignature.sol\":6574:6617  abi.encodePacked(from, to, funcSig, _nonce) */\n      swap1\n      0x40\n      mstore\n        /* \"contracts/mulSignature.sol\":6564:6618  keccak256(abi.encodePacked(from, to, funcSig, _nonce)) */\n      dup1\n      mload\n      swap1\n      0x20\n      add\n      keccak256\n        /* \"contracts/mulSignature.sol\":6557:6618  return keccak256(abi.encodePacked(from, to, funcSig, _nonce)) */\n      swap1\n      pop\n        /* \"contracts/mulSignature.sol\":6392:6625  function getApplicationHash(... */\n      swap5\n      swap4\n      pop\n      pop\n      pop\n      pop\n      jump\t// out\n        /* \"contracts/mulSignature.sol\":1666:1692  uint256 public validPeriod */\n    tag_47:\n      sload(0x68)\n      dup2\n      jump\t// out\n        /* \"@openzeppelin/contracts-upgradeable/access/OwnableUpgradeable.sol\":1335:1420  function owner() public view virtual returns (address) {... */\n    tag_49:\n        /* \"@openzeppelin/contracts-upgradeable/access/OwnableUpgradeable.sol\":1381:1388  address */\n      0x00\n        /* \"@openzeppelin/contracts-upgradeable/access/OwnableUpgradeable.sol\":1407:1413  _owner */\n      0x33\n      0x00\n      swap1\n      sload\n      swap1\n      0x0100\n      exp\n      swap1\n      div\n      0xffffffffffffffffffffffffffffffffffffffff\n      and\n        /* \"@openzeppelin/contracts-upgradeable/access/OwnableUpgradeable.sol\":1400:1413  return _owner */\n      swap1\n      pop\n        /* \"@openzeppelin/contracts-upgradeable/access/OwnableUpgradeable.sol\":1335:1420  function owner() public view virtual returns (address) {... */\n      swap1\n      jump\t// out\n        /* \"contracts/mulSignature.sol\":1640:1660  uint256 public nonce */\n    tag_51:\n      sload(0x67)\n      dup2\n      jump\t// out\n        /* \"@openzeppelin/contracts-upgradeable/access/OwnableUpgradeable.sol\":2261:2501  function transferOwnership(address newOwner) public virtual onlyOwner {... */\n    tag_54:\n        /* \"@openzeppelin/contracts-upgradeable/access/OwnableUpgradeable.sol\":1558:1570  _msgSender() */\n      tag_106\n        /* \"@openzeppelin/contracts-upgradeable/access/OwnableUpgradeable.sol\":1558:1568  _msgSender */\n      tag_99\n        /* \"@openzeppelin/contracts-upgradeable/access/OwnableUpgradeable.sol\":1558:1570  _msgSender() */\n      jump\t// in\n    tag_106:\n        /* \"@openzeppelin/contracts-upgradeable/access/OwnableUpgradeable.sol\":1547:1570  owner() == _msgSender() */\n      0xffffffffffffffffffffffffffffffffffffffff\n      and\n        /* \"@openzeppelin/contracts-upgradeable/access/OwnableUpgradeable.sol\":1547:1554  owner() */\n      tag_107\n        /* \"@openzeppelin/contracts-upgradeable/access/OwnableUpgradeable.sol\":1547:1552  owner */\n      tag_49\n        /* \"@openzeppelin/contracts-upgradeable/access/OwnableUpgradeable.sol\":1547:1554  owner() */\n      jump\t// in\n    tag_107:\n        /* \"@openzeppelin/contracts-upgradeable/access/OwnableUpgradeable.sol\":1547:1570  owner() == _msgSender() */\n      0xffffffffffffffffffffffffffffffffffffffff\n      and\n      eq\n        /* \"@openzeppelin/contracts-upgradeable/access/OwnableUpgradeable.sol\":1539:1607  require(owner() == _msgSender(), \"Ownable: caller is not the owner\") */\n      tag_108\n      jumpi\n      mload(0x40)\n      0x08c379a000000000000000000000000000000000000000000000000000000000\n      dup2\n      mstore\n      0x04\n      add\n      dup1\n      dup1\n      0x20\n      add\n      dup3\n      dup2\n      sub\n      dup3\n      mstore\n      0x20\n      dup2\n      mstore\n      0x20\n      add\n      dup1\n      0x4f776e61626c653a2063616c6c6572206973206e6f7420746865206f776e6572\n      dup2\n      mstore\n      pop\n      0x20\n      add\n      swap2\n      pop\n      pop\n      mload(0x40)\n      dup1\n      swap2\n      sub\n      swap1\n      revert\n    tag_108:\n        /* \"@openzeppelin/contracts-upgradeable/access/OwnableUpgradeable.sol\":2369:2370  0 */\n      0x00\n        /* \"@openzeppelin/contracts-upgradeable/access/OwnableUpgradeable.sol\":2349:2371  newOwner != address(0) */\n      0xffffffffffffffffffffffffffffffffffffffff\n      and\n        /* \"@openzeppelin/contracts-upgradeable/access/OwnableUpgradeable.sol\":2349:2357  newOwner */\n      dup2\n        /* \"@openzeppelin/contracts-upgradeable/access/OwnableUpgradeable.sol\":2349:2371  newOwner != address(0) */\n      0xffffffffffffffffffffffffffffffffffffffff\n      and\n      eq\n      iszero\n        /* \"@openzeppelin/contracts-upgradeable/access/OwnableUpgradeable.sol\":2341:2414  require(newOwner != address(0), \"Ownable: new owner is the zero address\") */\n      tag_110\n      jumpi\n      mload(0x40)\n      0x08c379a000000000000000000000000000000000000000000000000000000000\n      dup2\n      mstore\n      0x04\n      add\n      dup1\n      dup1\n      0x20\n      add\n      dup3\n      dup2\n      sub\n      dup3\n      mstore\n      0x26\n      dup2\n      mstore\n      0x20\n      add\n      dup1\n      data_245f15ff17f551913a7a18385165551503906a406f905ac1c2437281a7cd0cfe\n      0x26\n      swap2\n      codecopy\n      0x40\n      add\n      swap2\n      pop\n      pop\n      mload(0x40)\n      dup1\n      swap2\n      sub\n      swap1\n      revert\n    tag_110:\n        /* \"@openzeppelin/contracts-upgradeable/access/OwnableUpgradeable.sol\":2458:2466  newOwner */\n      dup1\n        /* \"@openzeppelin/contracts-upgradeable/access/OwnableUpgradeable.sol\":2429:2467  OwnershipTransferred(_owner, newOwner) */\n      0xffffffffffffffffffffffffffffffffffffffff\n      and\n        /* \"@openzeppelin/contracts-upgradeable/access/OwnableUpgradeable.sol\":2450:2456  _owner */\n      0x33\n      0x00\n      swap1\n      sload\n      swap1\n      0x0100\n      exp\n      swap1\n      div\n      0xffffffffffffffffffffffffffffffffffffffff\n      and\n        /* \"@openzeppelin/contracts-upgradeable/access/OwnableUpgradeable.sol\":2429:2467  OwnershipTransferred(_owner, newOwner) */\n      0xffffffffffffffffffffffffffffffffffffffff\n      and\n      0x8be0079c531659141344cd1fd0a4f28419497f9722a3daafe3b4186f6b6457e0\n      mload(0x40)\n      mload(0x40)\n      dup1\n      swap2\n      sub\n      swap1\n      log3\n        /* \"@openzeppelin/contracts-upgradeable/access/OwnableUpgradeable.sol\":2486:2494  newOwner */\n      dup1\n        /* \"@openzeppelin/contracts-upgradeable/access/OwnableUpgradeable.sol\":2477:2483  _owner */\n      0x33\n      0x00\n        /* \"@openzeppelin/contracts-upgradeable/access/OwnableUpgradeable.sol\":2477:2494  _owner = newOwner */\n      0x0100\n      exp\n      dup2\n      sload\n      dup2\n      0xffffffffffffffffffffffffffffffffffffffff\n      mul\n      not\n      and\n      swap1\n      dup4\n      0xffffffffffffffffffffffffffffffffffffffff\n      and\n      mul\n      or\n      swap1\n      sstore\n      pop\n        /* \"@openzeppelin/contracts-upgradeable/access/OwnableUpgradeable.sol\":2261:2501  function transferOwnership(address newOwner) public virtual onlyOwner {... */\n      pop\n      jump\t// out\n        /* \"contracts/mulSignature.sol\":2797:3461  function Initialize(... */\n    tag_60:\n        /* \"@openzeppelin/contracts-upgradeable/proxy/Initializable.sol\":1512:1525  _initializing */\n      0x00\n      0x01\n      swap1\n      sload\n      swap1\n      0x0100\n      exp\n      swap1\n      div\n      0xff\n      and\n        /* \"@openzeppelin/contracts-upgradeable/proxy/Initializable.sol\":1512:1545  _initializing || _isConstructor() */\n      dup1\n      tag_112\n      jumpi\n      pop\n        /* \"@openzeppelin/contracts-upgradeable/proxy/Initializable.sol\":1529:1545  _isConstructor() */\n      tag_113\n        /* \"@openzeppelin/contracts-upgradeable/proxy/Initializable.sol\":1529:1543  _isConstructor */\n      tag_114\n        /* \"@openzeppelin/contracts-upgradeable/proxy/Initializable.sol\":1529:1545  _isConstructor() */\n      jump\t// in\n    tag_113:\n        /* \"@openzeppelin/contracts-upgradeable/proxy/Initializable.sol\":1512:1545  _initializing || _isConstructor() */\n    tag_112:\n        /* \"@openzeppelin/contracts-upgradeable/proxy/Initializable.sol\":1512:1562  _initializing || _isConstructor() || !_initialized */\n      dup1\n      tag_115\n      jumpi\n      pop\n        /* \"@openzeppelin/contracts-upgradeable/proxy/Initializable.sol\":1550:1562  _initialized */\n      0x00\n      dup1\n      swap1\n      sload\n      swap1\n      0x0100\n      exp\n      swap1\n      div\n      0xff\n      and\n        /* \"@openzeppelin/contracts-upgradeable/proxy/Initializable.sol\":1549:1562  !_initialized */\n      iszero\n        /* \"@openzeppelin/contracts-upgradeable/proxy/Initializable.sol\":1512:1562  _initializing || _isConstructor() || !_initialized */\n    tag_115:\n        /* \"@openzeppelin/contracts-upgradeable/proxy/Initializable.sol\":1504:1613  require(_initializing || _isConstructor() || !_initialized, \"Initializable: contract is already initialized\") */\n      tag_116\n      jumpi\n      mload(0x40)\n      0x08c379a000000000000000000000000000000000000000000000000000000000\n      dup2\n      mstore\n      0x04\n      add\n      dup1\n      dup1\n      0x20\n      add\n      dup3\n      dup2\n      sub\n      dup3\n      mstore\n      0x2e\n      dup2\n      mstore\n      0x20\n      add\n      dup1\n      data_7a2a4e26842155ea933fe6eb6e3137eb5a296dcdf55721c552be7b4c3cc23759\n      0x2e\n      swap2\n      codecopy\n      0x40\n      add\n      swap2\n      pop\n      pop\n      mload(0x40)\n      dup1\n      swap2\n      sub\n      swap1\n      revert\n    tag_116:\n        /* \"@openzeppelin/contracts-upgradeable/proxy/Initializable.sol\":1624:1643  bool isTopLevelCall */\n      0x00\n        /* \"@openzeppelin/contracts-upgradeable/proxy/Initializable.sol\":1647:1660  _initializing */\n      dup1\n      0x01\n      swap1\n      sload\n      swap1\n      0x0100\n      exp\n      swap1\n      div\n      0xff\n      and\n        /* \"@openzeppelin/contracts-upgradeable/proxy/Initializable.sol\":1646:1660  !_initializing */\n      iszero\n        /* \"@openzeppelin/contracts-upgradeable/proxy/Initializable.sol\":1624:1660  bool isTopLevelCall = !_initializing */\n      swap1\n      pop\n        /* \"@openzeppelin/contracts-upgradeable/proxy/Initializable.sol\":1674:1688  isTopLevelCall */\n      dup1\n        /* \"@openzeppelin/contracts-upgradeable/proxy/Initializable.sol\":1670:1768  if (isTopLevelCall) {... */\n      iszero\n      tag_117\n      jumpi\n        /* \"@openzeppelin/contracts-upgradeable/proxy/Initializable.sol\":1720:1724  true */\n      0x01\n        /* \"@openzeppelin/contracts-upgradeable/proxy/Initializable.sol\":1704:1717  _initializing */\n      0x00\n      0x01\n        /* \"@openzeppelin/contracts-upgradeable/proxy/Initializable.sol\":1704:1724  _initializing = true */\n      0x0100\n      exp\n      dup2\n      sload\n      dup2\n      0xff\n      mul\n      not\n      and\n      swap1\n      dup4\n      iszero\n      iszero\n      mul\n      or\n      swap1\n      sstore\n      pop\n        /* \"@openzeppelin/contracts-upgradeable/proxy/Initializable.sol\":1753:1757  true */\n      0x01\n        /* \"@openzeppelin/contracts-upgradeable/proxy/Initializable.sol\":1738:1750  _initialized */\n      0x00\n      dup1\n        /* \"@openzeppelin/contracts-upgradeable/proxy/Initializable.sol\":1738:1757  _initialized = true */\n      0x0100\n      exp\n      dup2\n      sload\n      dup2\n      0xff\n      mul\n      not\n      and\n      swap1\n      dup4\n      iszero\n      iszero\n      mul\n      or\n      swap1\n      sstore\n      pop\n        /* \"@openzeppelin/contracts-upgradeable/proxy/Initializable.sol\":1670:1768  if (isTopLevelCall) {... */\n    tag_117:\n        /* \"contracts/mulSignature.sol\":2917:2933  __Context_init() */\n      tag_119\n        /* \"contracts/mulSignature.sol\":2917:2931  __Context_init */\n      tag_120\n        /* \"contracts/mulSignature.sol\":2917:2933  __Context_init() */\n      jump\t// in\n    tag_119:\n        /* \"contracts/mulSignature.sol\":2994:3010  __Ownable_init() */\n      tag_121\n        /* \"contracts/mulSignature.sol\":2994:3008  __Ownable_init */\n      tag_122\n        /* \"contracts/mulSignature.sol\":2994:3010  __Ownable_init() */\n      jump\t// in\n    tag_121:\n        /* \"contracts/mulSignature.sol\":3106:3120  limitedSignNum */\n      dup2\n        /* \"contracts/mulSignature.sol\":3089:3095  owners */\n      dup4\n        /* \"contracts/mulSignature.sol\":3089:3102  owners.length */\n      mload\n        /* \"contracts/mulSignature.sol\":3089:3120  owners.length >= limitedSignNum */\n      lt\n      iszero\n        /* \"contracts/mulSignature.sol\":3068:3218  require(... */\n      tag_123\n      jumpi\n      mload(0x40)\n      0x08c379a000000000000000000000000000000000000000000000000000000000\n      dup2\n      mstore\n      0x04\n      add\n      dup1\n      dup1\n      0x20\n      add\n      dup3\n      dup2\n      sub\n      dup3\n      mstore\n      0x48\n      dup2\n      mstore\n      0x20\n      add\n      dup1\n      data_c23ae5d586326184c640bb45d88197655987d574b8252f81c5ba536ab44d3030\n      0x48\n      swap2\n      codecopy\n      0x60\n      add\n      swap2\n      pop\n      pop\n      mload(0x40)\n      dup1\n      swap2\n      sub\n      swap1\n      revert\n    tag_123:\n        /* \"contracts/mulSignature.sol\":3325:3331  owners */\n      dup3\n        /* \"contracts/mulSignature.sol\":3307:3322  signatureOwners */\n      0x65\n        /* \"contracts/mulSignature.sol\":3307:3331  signatureOwners = owners */\n      swap1\n      dup1\n      mload\n      swap1\n      0x20\n      add\n      swap1\n      tag_124\n      swap3\n      swap2\n      swap1\n      tag_125\n      jump\t// in\n    tag_124:\n      pop\n        /* \"contracts/mulSignature.sol\":3353:3367  limitedSignNum */\n      dup2\n        /* \"contracts/mulSignature.sol\":3341:3350  threshold */\n      0x66\n        /* \"contracts/mulSignature.sol\":3341:3367  threshold = limitedSignNum */\n      dup2\n      swap1\n      sstore\n      pop\n        /* \"contracts/mulSignature.sol\":3385:3386  1 */\n      0x01\n        /* \"contracts/mulSignature.sol\":3377:3382  nonce */\n      0x67\n        /* \"contracts/mulSignature.sol\":3377:3386  nonce = 1 */\n      dup2\n      swap1\n      sstore\n      pop\n        /* \"contracts/mulSignature.sol\":3410:3414  3600 */\n      0x0e10\n        /* \"contracts/mulSignature.sol\":3396:3407  validPeriod */\n      0x68\n        /* \"contracts/mulSignature.sol\":3396:3414  validPeriod = 3600 */\n      dup2\n      swap1\n      sstore\n      pop\n        /* \"@openzeppelin/contracts-upgradeable/proxy/Initializable.sol\":1794:1808  isTopLevelCall */\n      dup1\n        /* \"@openzeppelin/contracts-upgradeable/proxy/Initializable.sol\":1790:1856  if (isTopLevelCall) {... */\n      iszero\n      tag_126\n      jumpi\n        /* \"@openzeppelin/contracts-upgradeable/proxy/Initializable.sol\":1840:1845  false */\n      0x00\n        /* \"@openzeppelin/contracts-upgradeable/proxy/Initializable.sol\":1824:1837  _initializing */\n      dup1\n      0x01\n        /* \"@openzeppelin/contracts-upgradeable/proxy/Initializable.sol\":1824:1845  _initializing = false */\n      0x0100\n      exp\n      dup2\n      sload\n      dup2\n      0xff\n      mul\n      not\n      and\n      swap1\n      dup4\n      iszero\n      iszero\n      mul\n      or\n      swap1\n      sstore\n      pop\n        /* \"@openzeppelin/contracts-upgradeable/proxy/Initializable.sol\":1790:1856  if (isTopLevelCall) {... */\n    tag_126:\n        /* \"contracts/mulSignature.sol\":2797:3461  function Initialize(... */\n      pop\n      pop\n      pop\n      jump\t// out\n        /* \"contracts/mulSignature.sol\":4614:5011  function signApplication(... */\n    tag_63:\n        /* \"contracts/mulSignature.sol\":2650:2695  signatureOwners.isEligibleAddress(msg.sender) */\n      tag_128\n        /* \"contracts/mulSignature.sol\":2684:2694  msg.sender */\n      caller\n        /* \"contracts/mulSignature.sol\":2650:2665  signatureOwners */\n      0x65\n        /* \"contracts/mulSignature.sol\":2650:2683  signatureOwners.isEligibleAddress */\n      dup1\n      sload\n      dup1\n      0x20\n      mul\n      0x20\n      add\n      mload(0x40)\n      swap1\n      dup2\n      add\n      0x40\n      mstore\n      dup1\n      swap3\n      swap2\n      swap1\n      dup2\n      dup2\n      mstore\n      0x20\n      add\n      dup3\n      dup1\n      sload\n      dup1\n      iszero\n      tag_129\n      jumpi\n      0x20\n      mul\n      dup3\n      add\n      swap2\n      swap1\n      0x00\n      mstore\n      keccak256(0x00, 0x20)\n      swap1\n    tag_130:\n      dup2\n      0x00\n      swap1\n      sload\n      swap1\n      0x0100\n      exp\n      swap1\n      div\n      0xffffffffffffffffffffffffffffffffffffffff\n      and\n      0xffffffffffffffffffffffffffffffffffffffff\n      and\n      dup2\n      mstore\n      0x20\n      add\n      swap1\n      0x01\n      add\n      swap1\n      dup1\n      dup4\n      gt\n      tag_130\n      jumpi\n    tag_129:\n      pop\n      pop\n      pop\n      pop\n      pop\n      tag_73\n      swap1\n        /* \"contracts/mulSignature.sol\":2650:2695  signatureOwners.isEligibleAddress(msg.sender) */\n      swap2\n      swap1\n      0xffffffff\n      and\n      jump\t// in\n    tag_128:\n        /* \"contracts/mulSignature.sol\":2629:2773  require(... */\n      tag_131\n      jumpi\n      mload(0x40)\n      0x08c379a000000000000000000000000000000000000000000000000000000000\n      dup2\n      mstore\n      0x04\n      add\n      dup1\n      dup1\n      0x20\n      add\n      dup3\n      dup2\n      sub\n      dup3\n      mstore\n      0x34\n      dup2\n      mstore\n      0x20\n      add\n      dup1\n      data_43f94f8943a878f43525282ffad720a853ed90b9b126e56b99745a92bf5ff462\n      0x34\n      swap2\n      codecopy\n      0x40\n      add\n      swap2\n      pop\n      pop\n      mload(0x40)\n      dup1\n      swap2\n      sub\n      swap1\n      revert\n    tag_131:\n        /* \"contracts/mulSignature.sol\":4839:4846  msghash */\n      dup2\n        /* \"contracts/mulSignature.sol\":4827:4837  msg.sender */\n      caller\n        /* \"contracts/mulSignature.sol\":4811:4854  SignApplication(msg.sender, msghash, index) */\n      0xffffffffffffffffffffffffffffffffffffffff\n      and\n      0x2d579b8389bf07e7ce434f3bd88b036a33d28787d19af73a5aa2003a5dcb7d36\n        /* \"contracts/mulSignature.sol\":4848:4853  index */\n      dup4\n        /* \"contracts/mulSignature.sol\":4811:4854  SignApplication(msg.sender, msghash, index) */\n      mload(0x40)\n      dup1\n      dup3\n      dup2\n      mstore\n      0x20\n      add\n      swap2\n      pop\n      pop\n      mload(0x40)\n      dup1\n      swap2\n      sub\n      swap1\n      log3\n        /* \"contracts/mulSignature.sol\":4864:4928  signatureMap[msghash].signatures.addWhiteListAddress(msg.sender) */\n      tag_133\n        /* \"contracts/mulSignature.sol\":4917:4927  msg.sender */\n      caller\n        /* \"contracts/mulSignature.sol\":4864:4876  signatureMap */\n      0x6a\n        /* \"contracts/mulSignature.sol\":4864:4885  signatureMap[msghash] */\n      0x00\n        /* \"contracts/mulSignature.sol\":4877:4884  msghash */\n      dup6\n        /* \"contracts/mulSignature.sol\":4864:4885  signatureMap[msghash] */\n      dup2\n      mstore\n      0x20\n      add\n      swap1\n      dup2\n      mstore\n      0x20\n      add\n      0x00\n      keccak256\n        /* \"contracts/mulSignature.sol\":4864:4896  signatureMap[msghash].signatures */\n      0x01\n      add\n        /* \"contracts/mulSignature.sol\":4864:4916  signatureMap[msghash].signatures.addWhiteListAddress */\n      tag_134\n      swap1\n        /* \"contracts/mulSignature.sol\":4864:4928  signatureMap[msghash].signatures.addWhiteListAddress(msg.sender) */\n      swap2\n      swap1\n      0xffffffff\n      and\n      jump\t// in\n    tag_133:\n        /* \"contracts/mulSignature.sol\":4614:5011  function signApplication(... */\n      pop\n      pop\n      jump\t// out\n        /* \"contracts/mulSignature.sol\":1106:1400  function isEligibleAddress(... */\n    tag_73:\n        /* \"contracts/mulSignature.sol\":1220:1224  bool */\n      0x00\n        /* \"contracts/mulSignature.sol\":1236:1247  uint256 len */\n      dup1\n        /* \"contracts/mulSignature.sol\":1250:1259  whiteList */\n      dup4\n        /* \"contracts/mulSignature.sol\":1250:1266  whiteList.length */\n      mload\n        /* \"contracts/mulSignature.sol\":1236:1266  uint256 len = whiteList.length */\n      swap1\n      pop\n        /* \"contracts/mulSignature.sol\":1281:1290  uint256 i */\n      0x00\n        /* \"contracts/mulSignature.sol\":1293:1294  0 */\n      dup1\n        /* \"contracts/mulSignature.sol\":1281:1294  uint256 i = 0 */\n      swap1\n      pop\n        /* \"contracts/mulSignature.sol\":1276:1372  for (uint256 i = 0; i < len; i++) {... */\n    tag_136:\n        /* \"contracts/mulSignature.sol\":1300:1303  len */\n      dup2\n        /* \"contracts/mulSignature.sol\":1296:1297  i */\n      dup2\n        /* \"contracts/mulSignature.sol\":1296:1303  i < len */\n      lt\n        /* \"contracts/mulSignature.sol\":1276:1372  for (uint256 i = 0; i < len; i++) {... */\n      iszero\n      tag_137\n      jumpi\n        /* \"contracts/mulSignature.sol\":1344:1348  temp */\n      dup4\n        /* \"contracts/mulSignature.sol\":1328:1348  whiteList[i] == temp */\n      0xffffffffffffffffffffffffffffffffffffffff\n      and\n        /* \"contracts/mulSignature.sol\":1328:1337  whiteList */\n      dup6\n        /* \"contracts/mulSignature.sol\":1338:1339  i */\n      dup3\n        /* \"contracts/mulSignature.sol\":1328:1340  whiteList[i] */\n      dup2\n      mload\n      dup2\n      lt\n      tag_139\n      jumpi\n      invalid\n    tag_139:\n      0x20\n      mul\n      0x20\n      add\n      add\n      mload\n        /* \"contracts/mulSignature.sol\":1328:1348  whiteList[i] == temp */\n      0xffffffffffffffffffffffffffffffffffffffff\n      and\n      eq\n        /* \"contracts/mulSignature.sol\":1324:1361  if (whiteList[i] == temp) return true */\n      iszero\n      tag_140\n      jumpi\n        /* \"contracts/mulSignature.sol\":1357:1361  true */\n      0x01\n        /* \"contracts/mulSignature.sol\":1350:1361  return true */\n      swap3\n      pop\n      pop\n      pop\n      jump(tag_135)\n        /* \"contracts/mulSignature.sol\":1324:1361  if (whiteList[i] == temp) return true */\n    tag_140:\n        /* \"contracts/mulSignature.sol\":1305:1308  i++ */\n      dup1\n      dup1\n      0x01\n      add\n      swap2\n      pop\n      pop\n        /* \"contracts/mulSignature.sol\":1276:1372  for (uint256 i = 0; i < len; i++) {... */\n      jump(tag_136)\n    tag_137:\n      pop\n        /* \"contracts/mulSignature.sol\":1388:1393  false */\n      0x00\n        /* \"contracts/mulSignature.sol\":1381:1393  return false */\n      swap2\n      pop\n      pop\n        /* \"contracts/mulSignature.sol\":1106:1400  function isEligibleAddress(... */\n    tag_135:\n      swap3\n      swap2\n      pop\n      pop\n      jump\t// out\n        /* \"contracts/mulSignature.sol\":593:1100  function removeWhiteListAddress(... */\n    tag_88:\n        /* \"contracts/mulSignature.sol\":708:712  bool */\n      0x00\n        /* \"contracts/mulSignature.sol\":724:735  uint256 len */\n      dup1\n        /* \"contracts/mulSignature.sol\":738:747  whiteList */\n      dup4\n        /* \"contracts/mulSignature.sol\":738:754  whiteList.length */\n      dup1\n      sload\n      swap1\n      pop\n        /* \"contracts/mulSignature.sol\":724:754  uint256 len = whiteList.length */\n      swap1\n      pop\n        /* \"contracts/mulSignature.sol\":764:773  uint256 i */\n      0x00\n        /* \"contracts/mulSignature.sol\":776:777  0 */\n      dup1\n        /* \"contracts/mulSignature.sol\":764:777  uint256 i = 0 */\n      swap1\n      pop\n        /* \"contracts/mulSignature.sol\":811:888  for (; i < len; i++) {... */\n    tag_142:\n        /* \"contracts/mulSignature.sol\":822:825  len */\n      dup2\n        /* \"contracts/mulSignature.sol\":818:819  i */\n      dup2\n        /* \"contracts/mulSignature.sol\":818:825  i < len */\n      lt\n        /* \"contracts/mulSignature.sol\":811:888  for (; i < len; i++) {... */\n      iszero\n      tag_143\n      jumpi\n        /* \"contracts/mulSignature.sol\":866:870  temp */\n      dup4\n        /* \"contracts/mulSignature.sol\":850:870  whiteList[i] == temp */\n      0xffffffffffffffffffffffffffffffffffffffff\n      and\n        /* \"contracts/mulSignature.sol\":850:859  whiteList */\n      dup6\n        /* \"contracts/mulSignature.sol\":860:861  i */\n      dup3\n        /* \"contracts/mulSignature.sol\":850:862  whiteList[i] */\n      dup2\n      sload\n      dup2\n      lt\n      tag_145\n      jumpi\n      invalid\n    tag_145:\n      swap1\n      0x00\n      mstore\n      keccak256(0x00, 0x20)\n      add\n      0x00\n      swap1\n      sload\n      swap1\n      0x0100\n      exp\n      swap1\n      div\n      0xffffffffffffffffffffffffffffffffffffffff\n      and\n        /* \"contracts/mulSignature.sol\":850:870  whiteList[i] == temp */\n      0xffffffffffffffffffffffffffffffffffffffff\n      and\n      eq\n        /* \"contracts/mulSignature.sol\":846:877  if (whiteList[i] == temp) break */\n      iszero\n      tag_147\n      jumpi\n        /* \"contracts/mulSignature.sol\":872:877  break */\n      jump(tag_143)\n        /* \"contracts/mulSignature.sol\":846:877  if (whiteList[i] == temp) break */\n    tag_147:\n        /* \"contracts/mulSignature.sol\":827:830  i++ */\n      dup1\n      dup1\n      0x01\n      add\n      swap2\n      pop\n      pop\n        /* \"contracts/mulSignature.sol\":811:888  for (; i < len; i++) {... */\n      jump(tag_142)\n    tag_143:\n        /* \"contracts/mulSignature.sol\":905:908  len */\n      dup2\n        /* \"contracts/mulSignature.sol\":901:902  i */\n      dup2\n        /* \"contracts/mulSignature.sol\":901:908  i < len */\n      lt\n        /* \"contracts/mulSignature.sol\":897:1072  if (i < len) {... */\n      iszero\n      tag_148\n      jumpi\n        /* \"contracts/mulSignature.sol\":939:940  1 */\n      0x01\n        /* \"contracts/mulSignature.sol\":933:936  len */\n      dup3\n        /* \"contracts/mulSignature.sol\":933:940  len - 1 */\n      sub\n        /* \"contracts/mulSignature.sol\":928:929  i */\n      dup2\n        /* \"contracts/mulSignature.sol\":928:940  i != len - 1 */\n      eq\n        /* \"contracts/mulSignature.sol\":924:1008  if (i != len - 1) {... */\n      tag_149\n      jumpi\n        /* \"contracts/mulSignature.sol\":975:984  whiteList */\n      dup5\n        /* \"contracts/mulSignature.sol\":991:992  1 */\n      0x01\n        /* \"contracts/mulSignature.sol\":985:988  len */\n      dup4\n        /* \"contracts/mulSignature.sol\":985:992  len - 1 */\n      sub\n        /* \"contracts/mulSignature.sol\":975:993  whiteList[len - 1] */\n      dup2\n      sload\n      dup2\n      lt\n      tag_150\n      jumpi\n      invalid\n    tag_150:\n      swap1\n      0x00\n      mstore\n      keccak256(0x00, 0x20)\n      add\n      0x00\n      swap1\n      sload\n      swap1\n      0x0100\n      exp\n      swap1\n      div\n      0xffffffffffffffffffffffffffffffffffffffff\n      and\n        /* \"contracts/mulSignature.sol\":960:969  whiteList */\n      dup6\n        /* \"contracts/mulSignature.sol\":970:971  i */\n      dup3\n        /* \"contracts/mulSignature.sol\":960:972  whiteList[i] */\n      dup2\n      sload\n      dup2\n      lt\n      tag_152\n      jumpi\n      invalid\n    tag_152:\n      swap1\n      0x00\n      mstore\n      keccak256(0x00, 0x20)\n      add\n      0x00\n        /* \"contracts/mulSignature.sol\":960:993  whiteList[i] = whiteList[len - 1] */\n      0x0100\n      exp\n      dup2\n      sload\n      dup2\n      0xffffffffffffffffffffffffffffffffffffffff\n      mul\n      not\n      and\n      swap1\n      dup4\n      0xffffffffffffffffffffffffffffffffffffffff\n      and\n      mul\n      or\n      swap1\n      sstore\n      pop\n        /* \"contracts/mulSignature.sol\":924:1008  if (i != len - 1) {... */\n    tag_149:\n        /* \"contracts/mulSignature.sol\":1021:1030  whiteList */\n      dup5\n        /* \"contracts/mulSignature.sol\":1021:1036  whiteList.pop() */\n      dup1\n      sload\n      dup1\n      tag_154\n      jumpi\n      invalid\n    tag_154:\n      0x01\n      swap1\n      sub\n      dup2\n      dup2\n      swap1\n      0x00\n      mstore\n      keccak256(0x00, 0x20)\n      add\n      exp(0x0100, 0x00)\n      dup2\n      sload\n      swap1\n      0xffffffffffffffffffffffffffffffffffffffff\n      mul\n      not\n      and\n      swap1\n      sstore\n      swap1\n      sstore\n        /* \"contracts/mulSignature.sol\":1057:1061  true */\n      0x01\n        /* \"contracts/mulSignature.sol\":1050:1061  return true */\n      swap3\n      pop\n      pop\n      pop\n      jump(tag_141)\n        /* \"contracts/mulSignature.sol\":897:1072  if (i < len) {... */\n    tag_148:\n        /* \"contracts/mulSignature.sol\":1088:1093  false */\n      0x00\n        /* \"contracts/mulSignature.sol\":1081:1093  return false */\n      swap3\n      pop\n      pop\n      pop\n        /* \"contracts/mulSignature.sol\":593:1100  function removeWhiteListAddress(... */\n    tag_141:\n      swap3\n      swap2\n      pop\n      pop\n      jump\t// out\n        /* \"@openzeppelin/contracts-upgradeable/utils/ContextUpgradeable.sol\":828:932  function _msgSender() internal view virtual returns (address payable) {... */\n    tag_99:\n        /* \"@openzeppelin/contracts-upgradeable/utils/ContextUpgradeable.sol\":881:896  address payable */\n      0x00\n        /* \"@openzeppelin/contracts-upgradeable/utils/ContextUpgradeable.sol\":915:925  msg.sender */\n      caller\n        /* \"@openzeppelin/contracts-upgradeable/utils/ContextUpgradeable.sol\":908:925  return msg.sender */\n      swap1\n      pop\n        /* \"@openzeppelin/contracts-upgradeable/utils/ContextUpgradeable.sol\":828:932  function _msgSender() internal view virtual returns (address payable) {... */\n      swap1\n      jump\t// out\n        /* \"@openzeppelin/contracts-upgradeable/proxy/Initializable.sol\":1952:2075  function _isConstructor() private view returns (bool) {... */\n    tag_114:\n        /* \"@openzeppelin/contracts-upgradeable/proxy/Initializable.sol\":2000:2004  bool */\n      0x00\n        /* \"@openzeppelin/contracts-upgradeable/proxy/Initializable.sol\":2024:2068  AddressUpgradeable.isContract(address(this)) */\n      tag_158\n        /* \"@openzeppelin/contracts-upgradeable/proxy/Initializable.sol\":2062:2066  this */\n      address\n        /* \"@openzeppelin/contracts-upgradeable/proxy/Initializable.sol\":2024:2053  AddressUpgradeable.isContract */\n      tag_159\n        /* \"@openzeppelin/contracts-upgradeable/proxy/Initializable.sol\":2024:2068  AddressUpgradeable.isContract(address(this)) */\n      jump\t// in\n    tag_158:\n        /* \"@openzeppelin/contracts-upgradeable/proxy/Initializable.sol\":2023:2068  !AddressUpgradeable.isContract(address(this)) */\n      iszero\n        /* \"@openzeppelin/contracts-upgradeable/proxy/Initializable.sol\":2016:2068  return !AddressUpgradeable.isContract(address(this)) */\n      swap1\n      pop\n        /* \"@openzeppelin/contracts-upgradeable/proxy/Initializable.sol\":1952:2075  function _isConstructor() private view returns (bool) {... */\n      swap1\n      jump\t// out\n        /* \"@openzeppelin/contracts-upgradeable/utils/ContextUpgradeable.sol\":663:753  function __Context_init() internal initializer {... */\n    tag_120:\n        /* \"@openzeppelin/contracts-upgradeable/proxy/Initializable.sol\":1512:1525  _initializing */\n      0x00\n      0x01\n      swap1\n      sload\n      swap1\n      0x0100\n      exp\n      swap1\n      div\n      0xff\n      and\n        /* \"@openzeppelin/contracts-upgradeable/proxy/Initializable.sol\":1512:1545  _initializing || _isConstructor() */\n      dup1\n      tag_161\n      jumpi\n      pop\n        /* \"@openzeppelin/contracts-upgradeable/proxy/Initializable.sol\":1529:1545  _isConstructor() */\n      tag_162\n        /* \"@openzeppelin/contracts-upgradeable/proxy/Initializable.sol\":1529:1543  _isConstructor */\n      tag_114\n        /* \"@openzeppelin/contracts-upgradeable/proxy/Initializable.sol\":1529:1545  _isConstructor() */\n      jump\t// in\n    tag_162:\n        /* \"@openzeppelin/contracts-upgradeable/proxy/Initializable.sol\":1512:1545  _initializing || _isConstructor() */\n    tag_161:\n        /* \"@openzeppelin/contracts-upgradeable/proxy/Initializable.sol\":1512:1562  _initializing || _isConstructor() || !_initialized */\n      dup1\n      tag_163\n      jumpi\n      pop\n        /* \"@openzeppelin/contracts-upgradeable/proxy/Initializable.sol\":1550:1562  _initialized */\n      0x00\n      dup1\n      swap1\n      sload\n      swap1\n      0x0100\n      exp\n      swap1\n      div\n      0xff\n      and\n        /* \"@openzeppelin/contracts-upgradeable/proxy/Initializable.sol\":1549:1562  !_initialized */\n      iszero\n        /* \"@openzeppelin/contracts-upgradeable/proxy/Initializable.sol\":1512:1562  _initializing || _isConstructor() || !_initialized */\n    tag_163:\n        /* \"@openzeppelin/contracts-upgradeable/proxy/Initializable.sol\":1504:1613  require(_initializing || _isConstructor() || !_initialized, \"Initializable: contract is already initialized\") */\n      tag_164\n      jumpi\n      mload(0x40)\n      0x08c379a000000000000000000000000000000000000000000000000000000000\n      dup2\n      mstore\n      0x04\n      add\n      dup1\n      dup1\n      0x20\n      add\n      dup3\n      dup2\n      sub\n      dup3\n      mstore\n      0x2e\n      dup2\n      mstore\n      0x20\n      add\n      dup1\n      data_7a2a4e26842155ea933fe6eb6e3137eb5a296dcdf55721c552be7b4c3cc23759\n      0x2e\n      swap2\n      codecopy\n      0x40\n      add\n      swap2\n      pop\n      pop\n      mload(0x40)\n      dup1\n      swap2\n      sub\n      swap1\n      revert\n    tag_164:\n        /* \"@openzeppelin/contracts-upgradeable/proxy/Initializable.sol\":1624:1643  bool isTopLevelCall */\n      0x00\n        /* \"@openzeppelin/contracts-upgradeable/proxy/Initializable.sol\":1647:1660  _initializing */\n      dup1\n      0x01\n      swap1\n      sload\n      swap1\n      0x0100\n      exp\n      swap1\n      div\n      0xff\n      and\n        /* \"@openzeppelin/contracts-upgradeable/proxy/Initializable.sol\":1646:1660  !_initializing */\n      iszero\n        /* \"@openzeppelin/contracts-upgradeable/proxy/Initializable.sol\":1624:1660  bool isTopLevelCall = !_initializing */\n      swap1\n      pop\n        /* \"@openzeppelin/contracts-upgradeable/proxy/Initializable.sol\":1674:1688  isTopLevelCall */\n      dup1\n        /* \"@openzeppelin/contracts-upgradeable/proxy/Initializable.sol\":1670:1768  if (isTopLevelCall) {... */\n      iszero\n      tag_165\n      jumpi\n        /* \"@openzeppelin/contracts-upgradeable/proxy/Initializable.sol\":1720:1724  true */\n      0x01\n        /* \"@openzeppelin/contracts-upgradeable/proxy/Initializable.sol\":1704:1717  _initializing */\n      0x00\n      0x01\n        /* \"@openzeppelin/contracts-upgradeable/proxy/Initializable.sol\":1704:1724  _initializing = true */\n      0x0100\n      exp\n      dup2\n      sload\n      dup2\n      0xff\n      mul\n      not\n      and\n      swap1\n      dup4\n      iszero\n      iszero\n      mul\n      or\n      swap1\n      sstore\n      pop\n        /* \"@openzeppelin/contracts-upgradeable/proxy/Initializable.sol\":1753:1757  true */\n      0x01\n        /* \"@openzeppelin/contracts-upgradeable/proxy/Initializable.sol\":1738:1750  _initialized */\n      0x00\n      dup1\n        /* \"@openzeppelin/contracts-upgradeable/proxy/Initializable.sol\":1738:1757  _initialized = true */\n      0x0100\n      exp\n      dup2\n      sload\n      dup2\n      0xff\n      mul\n      not\n      and\n      swap1\n      dup4\n      iszero\n      iszero\n      mul\n      or\n      swap1\n      sstore\n      pop\n        /* \"@openzeppelin/contracts-upgradeable/proxy/Initializable.sol\":1670:1768  if (isTopLevelCall) {... */\n    tag_165:\n        /* \"@openzeppelin/contracts-upgradeable/utils/ContextUpgradeable.sol\":720:746  __Context_init_unchained() */\n      tag_167\n        /* \"@openzeppelin/contracts-upgradeable/utils/ContextUpgradeable.sol\":720:744  __Context_init_unchained */\n      tag_168\n        /* \"@openzeppelin/contracts-upgradeable/utils/ContextUpgradeable.sol\":720:746  __Context_init_unchained() */\n      jump\t// in\n    tag_167:\n        /* \"@openzeppelin/contracts-upgradeable/proxy/Initializable.sol\":1794:1808  isTopLevelCall */\n      dup1\n        /* \"@openzeppelin/contracts-upgradeable/proxy/Initializable.sol\":1790:1856  if (isTopLevelCall) {... */\n      iszero\n      tag_169\n      jumpi\n        /* \"@openzeppelin/contracts-upgradeable/proxy/Initializable.sol\":1840:1845  false */\n      0x00\n        /* \"@openzeppelin/contracts-upgradeable/proxy/Initializable.sol\":1824:1837  _initializing */\n      dup1\n      0x01\n        /* \"@openzeppelin/contracts-upgradeable/proxy/Initializable.sol\":1824:1845  _initializing = false */\n      0x0100\n      exp\n      dup2\n      sload\n      dup2\n      0xff\n      mul\n      not\n      and\n      swap1\n      dup4\n      iszero\n      iszero\n      mul\n      or\n      swap1\n      sstore\n      pop\n        /* \"@openzeppelin/contracts-upgradeable/proxy/Initializable.sol\":1790:1856  if (isTopLevelCall) {... */\n    tag_169:\n        /* \"@openzeppelin/contracts-upgradeable/utils/ContextUpgradeable.sol\":663:753  function __Context_init() internal initializer {... */\n      pop\n      jump\t// out\n        /* \"@openzeppelin/contracts-upgradeable/access/OwnableUpgradeable.sol\":935:1061  function __Ownable_init() internal initializer {... */\n    tag_122:\n        /* \"@openzeppelin/contracts-upgradeable/proxy/Initializable.sol\":1512:1525  _initializing */\n      0x00\n      0x01\n      swap1\n      sload\n      swap1\n      0x0100\n      exp\n      swap1\n      div\n      0xff\n      and\n        /* \"@openzeppelin/contracts-upgradeable/proxy/Initializable.sol\":1512:1545  _initializing || _isConstructor() */\n      dup1\n      tag_171\n      jumpi\n      pop\n        /* \"@openzeppelin/contracts-upgradeable/proxy/Initializable.sol\":1529:1545  _isConstructor() */\n      tag_172\n        /* \"@openzeppelin/contracts-upgradeable/proxy/Initializable.sol\":1529:1543  _isConstructor */\n      tag_114\n        /* \"@openzeppelin/contracts-upgradeable/proxy/Initializable.sol\":1529:1545  _isConstructor() */\n      jump\t// in\n    tag_172:\n        /* \"@openzeppelin/contracts-upgradeable/proxy/Initializable.sol\":1512:1545  _initializing || _isConstructor() */\n    tag_171:\n        /* \"@openzeppelin/contracts-upgradeable/proxy/Initializable.sol\":1512:1562  _initializing || _isConstructor() || !_initialized */\n      dup1\n      tag_173\n      jumpi\n      pop\n        /* \"@openzeppelin/contracts-upgradeable/proxy/Initializable.sol\":1550:1562  _initialized */\n      0x00\n      dup1\n      swap1\n      sload\n      swap1\n      0x0100\n      exp\n      swap1\n      div\n      0xff\n      and\n        /* \"@openzeppelin/contracts-upgradeable/proxy/Initializable.sol\":1549:1562  !_initialized */\n      iszero\n        /* \"@openzeppelin/contracts-upgradeable/proxy/Initializable.sol\":1512:1562  _initializing || _isConstructor() || !_initialized */\n    tag_173:\n        /* \"@openzeppelin/contracts-upgradeable/proxy/Initializable.sol\":1504:1613  require(_initializing || _isConstructor() || !_initialized, \"Initializable: contract is already initialized\") */\n      tag_174\n      jumpi\n      mload(0x40)\n      0x08c379a000000000000000000000000000000000000000000000000000000000\n      dup2\n      mstore\n      0x04\n      add\n      dup1\n      dup1\n      0x20\n      add\n      dup3\n      dup2\n      sub\n      dup3\n      mstore\n      0x2e\n      dup2\n      mstore\n      0x20\n      add\n      dup1\n      data_7a2a4e26842155ea933fe6eb6e3137eb5a296dcdf55721c552be7b4c3cc23759\n      0x2e\n      swap2\n      codecopy\n      0x40\n      add\n      swap2\n      pop\n      pop\n      mload(0x40)\n      dup1\n      swap2\n      sub\n      swap1\n      revert\n    tag_174:\n        /* \"@openzeppelin/contracts-upgradeable/proxy/Initializable.sol\":1624:1643  bool isTopLevelCall */\n      0x00\n        /* \"@openzeppelin/contracts-upgradeable/proxy/Initializable.sol\":1647:1660  _initializing */\n      dup1\n      0x01\n      swap1\n      sload\n      swap1\n      0x0100\n      exp\n      swap1\n      div\n      0xff\n      and\n        /* \"@openzeppelin/contracts-upgradeable/proxy/Initializable.sol\":1646:1660  !_initializing */\n      iszero\n        /* \"@openzeppelin/contracts-upgradeable/proxy/Initializable.sol\":1624:1660  bool isTopLevelCall = !_initializing */\n      swap1\n      pop\n        /* \"@openzeppelin/contracts-upgradeable/proxy/Initializable.sol\":1674:1688  isTopLevelCall */\n      dup1\n        /* \"@openzeppelin/contracts-upgradeable/proxy/Initializable.sol\":1670:1768  if (isTopLevelCall) {... */\n      iszero\n      tag_175\n      jumpi\n        /* \"@openzeppelin/contracts-upgradeable/proxy/Initializable.sol\":1720:1724  true */\n      0x01\n        /* \"@openzeppelin/contracts-upgradeable/proxy/Initializable.sol\":1704:1717  _initializing */\n      0x00\n      0x01\n        /* \"@openzeppelin/contracts-upgradeable/proxy/Initializable.sol\":1704:1724  _initializing = true */\n      0x0100\n      exp\n      dup2\n      sload\n      dup2\n      0xff\n      mul\n      not\n      and\n      swap1\n      dup4\n      iszero\n      iszero\n      mul\n      or\n      swap1\n      sstore\n      pop\n        /* \"@openzeppelin/contracts-upgradeable/proxy/Initializable.sol\":1753:1757  true */\n      0x01\n        /* \"@openzeppelin/contracts-upgradeable/proxy/Initializable.sol\":1738:1750  _initialized */\n      0x00\n      dup1\n        /* \"@openzeppelin/contracts-upgradeable/proxy/Initializable.sol\":1738:1757  _initialized = true */\n      0x0100\n      exp\n      dup2\n      sload\n      dup2\n      0xff\n      mul\n      not\n      and\n      swap1\n      dup4\n      iszero\n      iszero\n      mul\n      or\n      swap1\n      sstore\n      pop\n        /* \"@openzeppelin/contracts-upgradeable/proxy/Initializable.sol\":1670:1768  if (isTopLevelCall) {... */\n    tag_175:\n        /* \"@openzeppelin/contracts-upgradeable/access/OwnableUpgradeable.sol\":992:1018  __Context_init_unchained() */\n      tag_177\n        /* \"@openzeppelin/contracts-upgradeable/access/OwnableUpgradeable.sol\":992:1016  __Context_init_unchained */\n      tag_168\n        /* \"@openzeppelin/contracts-upgradeable/access/OwnableUpgradeable.sol\":992:1018  __Context_init_unchained() */\n      jump\t// in\n    tag_177:\n        /* \"@openzeppelin/contracts-upgradeable/access/OwnableUpgradeable.sol\":1028:1054  __Ownable_init_unchained() */\n      tag_178\n        /* \"@openzeppelin/contracts-upgradeable/access/OwnableUpgradeable.sol\":1028:1052  __Ownable_init_unchained */\n      tag_179\n        /* \"@openzeppelin/contracts-upgradeable/access/OwnableUpgradeable.sol\":1028:1054  __Ownable_init_unchained() */\n      jump\t// in\n    tag_178:\n        /* \"@openzeppelin/contracts-upgradeable/proxy/Initializable.sol\":1794:1808  isTopLevelCall */\n      dup1\n        /* \"@openzeppelin/contracts-upgradeable/proxy/Initializable.sol\":1790:1856  if (isTopLevelCall) {... */\n      iszero\n      tag_180\n      jumpi\n        /* \"@openzeppelin/contracts-upgradeable/proxy/Initializable.sol\":1840:1845  false */\n      0x00\n        /* \"@openzeppelin/contracts-upgradeable/proxy/Initializable.sol\":1824:1837  _initializing */\n      dup1\n      0x01\n        /* \"@openzeppelin/contracts-upgradeable/proxy/Initializable.sol\":1824:1845  _initializing = false */\n      0x0100\n      exp\n      dup2\n      sload\n      dup2\n      0xff\n      mul\n      not\n      and\n      swap1\n      dup4\n      iszero\n      iszero\n      mul\n      or\n      swap1\n      sstore\n      pop\n        /* \"@openzeppelin/contracts-upgradeable/proxy/Initializable.sol\":1790:1856  if (isTopLevelCall) {... */\n    tag_180:\n        /* \"@openzeppelin/contracts-upgradeable/access/OwnableUpgradeable.sol\":935:1061  function __Ownable_init() internal initializer {... */\n      pop\n      jump\t// out\n        /* \"contracts/mulSignature.sol\":330:587  function addWhiteListAddress(... */\n    tag_134:\n        /* \"contracts/mulSignature.sol\":448:482  isEligibleAddress(whiteList, temp) */\n      tag_182\n        /* \"contracts/mulSignature.sol\":466:475  whiteList */\n      dup3\n        /* \"contracts/mulSignature.sol\":448:482  isEligibleAddress(whiteList, temp) */\n      dup1\n      sload\n      dup1\n      0x20\n      mul\n      0x20\n      add\n      mload(0x40)\n      swap1\n      dup2\n      add\n      0x40\n      mstore\n      dup1\n      swap3\n      swap2\n      swap1\n      dup2\n      dup2\n      mstore\n      0x20\n      add\n      dup3\n      dup1\n      sload\n      dup1\n      iszero\n      tag_183\n      jumpi\n      0x20\n      mul\n      dup3\n      add\n      swap2\n      swap1\n      0x00\n      mstore\n      keccak256(0x00, 0x20)\n      swap1\n    tag_184:\n      dup2\n      0x00\n      swap1\n      sload\n      swap1\n      0x0100\n      exp\n      swap1\n      div\n      0xffffffffffffffffffffffffffffffffffffffff\n      and\n      0xffffffffffffffffffffffffffffffffffffffff\n      and\n      dup2\n      mstore\n      0x20\n      add\n      swap1\n      0x01\n      add\n      swap1\n      dup1\n      dup4\n      gt\n      tag_184\n      jumpi\n    tag_183:\n      pop\n      pop\n      pop\n      pop\n      pop\n        /* \"contracts/mulSignature.sol\":477:481  temp */\n      dup3\n        /* \"contracts/mulSignature.sol\":448:465  isEligibleAddress */\n      tag_73\n        /* \"contracts/mulSignature.sol\":448:482  isEligibleAddress(whiteList, temp) */\n      jump\t// in\n    tag_182:\n        /* \"contracts/mulSignature.sol\":443:581  if (!isEligibleAddress(whiteList, temp)) {... */\n      tag_185\n      jumpi\n        /* \"contracts/mulSignature.sol\":498:507  whiteList */\n      dup2\n        /* \"contracts/mulSignature.sol\":513:517  temp */\n      dup2\n        /* \"contracts/mulSignature.sol\":498:518  whiteList.push(temp) */\n      swap1\n      dup1\n        /* \"--CODEGEN--\":39:40   */\n      0x01\n        /* \"--CODEGEN--\":33:36   */\n      dup2\n        /* \"--CODEGEN--\":27:37   */\n      sload\n        /* \"--CODEGEN--\":23:41   */\n      add\n        /* \"--CODEGEN--\":57:67   */\n      dup1\n        /* \"--CODEGEN--\":52:55   */\n      dup3\n        /* \"--CODEGEN--\":45:68   */\n      sstore\n        /* \"--CODEGEN--\":79:89   */\n      dup1\n        /* \"--CODEGEN--\":72:89   */\n      swap2\n      pop\n        /* \"--CODEGEN--\":0:93   */\n      pop\n        /* \"contracts/mulSignature.sol\":498:518  whiteList.push(temp) */\n      0x01\n      swap1\n      sub\n      swap1\n      0x00\n      mstore\n      keccak256(0x00, 0x20)\n      add\n      0x00\n      swap1\n      swap2\n      swap1\n      swap2\n      swap1\n      swap2\n      0x0100\n      exp\n      dup2\n      sload\n      dup2\n      0xffffffffffffffffffffffffffffffffffffffff\n      mul\n      not\n      and\n      swap1\n      dup4\n      0xffffffffffffffffffffffffffffffffffffffff\n      and\n      mul\n      or\n      swap1\n      sstore\n      pop\n        /* \"contracts/mulSignature.sol\":443:581  if (!isEligibleAddress(whiteList, temp)) {... */\n    tag_185:\n        /* \"contracts/mulSignature.sol\":330:587  function addWhiteListAddress(... */\n      pop\n      pop\n      jump\t// out\n        /* \"@openzeppelin/contracts-upgradeable/utils/AddressUpgradeable.sol\":737:1150  function isContract(address account) internal view returns (bool) {... */\n    tag_159:\n        /* \"@openzeppelin/contracts-upgradeable/utils/AddressUpgradeable.sol\":797:801  bool */\n      0x00\n        /* \"@openzeppelin/contracts-upgradeable/utils/AddressUpgradeable.sol\":1000:1012  uint256 size */\n      dup1\n        /* \"@openzeppelin/contracts-upgradeable/utils/AddressUpgradeable.sol\":1109:1116  account */\n      dup3\n        /* \"@openzeppelin/contracts-upgradeable/utils/AddressUpgradeable.sol\":1097:1117  extcodesize(account) */\n      extcodesize\n        /* \"@openzeppelin/contracts-upgradeable/utils/AddressUpgradeable.sol\":1089:1117  size := extcodesize(account) */\n      swap1\n      pop\n        /* \"@openzeppelin/contracts-upgradeable/utils/AddressUpgradeable.sol\":1142:1143  0 */\n      0x00\n        /* \"@openzeppelin/contracts-upgradeable/utils/AddressUpgradeable.sol\":1135:1139  size */\n      dup2\n        /* \"@openzeppelin/contracts-upgradeable/utils/AddressUpgradeable.sol\":1135:1143  size > 0 */\n      gt\n        /* \"@openzeppelin/contracts-upgradeable/utils/AddressUpgradeable.sol\":1128:1143  return size > 0 */\n      swap2\n      pop\n      pop\n        /* \"@openzeppelin/contracts-upgradeable/utils/AddressUpgradeable.sol\":737:1150  function isContract(address account) internal view returns (bool) {... */\n      swap2\n      swap1\n      pop\n      jump\t// out\n        /* \"@openzeppelin/contracts-upgradeable/utils/ContextUpgradeable.sol\":759:823  function __Context_init_unchained() internal initializer {... */\n    tag_168:\n        /* \"@openzeppelin/contracts-upgradeable/proxy/Initializable.sol\":1512:1525  _initializing */\n      0x00\n      0x01\n      swap1\n      sload\n      swap1\n      0x0100\n      exp\n      swap1\n      div\n      0xff\n      and\n        /* \"@openzeppelin/contracts-upgradeable/proxy/Initializable.sol\":1512:1545  _initializing || _isConstructor() */\n      dup1\n      tag_189\n      jumpi\n      pop\n        /* \"@openzeppelin/contracts-upgradeable/proxy/Initializable.sol\":1529:1545  _isConstructor() */\n      tag_190\n        /* \"@openzeppelin/contracts-upgradeable/proxy/Initializable.sol\":1529:1543  _isConstructor */\n      tag_114\n        /* \"@openzeppelin/contracts-upgradeable/proxy/Initializable.sol\":1529:1545  _isConstructor() */\n      jump\t// in\n    tag_190:\n        /* \"@openzeppelin/contracts-upgradeable/proxy/Initializable.sol\":1512:1545  _initializing || _isConstructor() */\n    tag_189:\n        /* \"@openzeppelin/contracts-upgradeable/proxy/Initializable.sol\":1512:1562  _initializing || _isConstructor() || !_initialized */\n      dup1\n      tag_191\n      jumpi\n      pop\n        /* \"@openzeppelin/contracts-upgradeable/proxy/Initializable.sol\":1550:1562  _initialized */\n      0x00\n      dup1\n      swap1\n      sload\n      swap1\n      0x0100\n      exp\n      swap1\n      div\n      0xff\n      and\n        /* \"@openzeppelin/contracts-upgradeable/proxy/Initializable.sol\":1549:1562  !_initialized */\n      iszero\n        /* \"@openzeppelin/contracts-upgradeable/proxy/Initializable.sol\":1512:1562  _initializing || _isConstructor() || !_initialized */\n    tag_191:\n        /* \"@openzeppelin/contracts-upgradeable/proxy/Initializable.sol\":1504:1613  require(_initializing || _isConstructor() || !_initialized, \"Initializable: contract is already initialized\") */\n      tag_192\n      jumpi\n      mload(0x40)\n      0x08c379a000000000000000000000000000000000000000000000000000000000\n      dup2\n      mstore\n      0x04\n      add\n      dup1\n      dup1\n      0x20\n      add\n      dup3\n      dup2\n      sub\n      dup3\n      mstore\n      0x2e\n      dup2\n      mstore\n      0x20\n      add\n      dup1\n      data_7a2a4e26842155ea933fe6eb6e3137eb5a296dcdf55721c552be7b4c3cc23759\n      0x2e\n      swap2\n      codecopy\n      0x40\n      add\n      swap2\n      pop\n      pop\n      mload(0x40)\n      dup1\n      swap2\n      sub\n      swap1\n      revert\n    tag_192:\n        /* \"@openzeppelin/contracts-upgradeable/proxy/Initializable.sol\":1624:1643  bool isTopLevelCall */\n      0x00\n        /* \"@openzeppelin/contracts-upgradeable/proxy/Initializable.sol\":1647:1660  _initializing */\n      dup1\n      0x01\n      swap1\n      sload\n      swap1\n      0x0100\n      exp\n      swap1\n      div\n      0xff\n      and\n        /* \"@openzeppelin/contracts-upgradeable/proxy/Initializable.sol\":1646:1660  !_initializing */\n      iszero\n        /* \"@openzeppelin/contracts-upgradeable/proxy/Initializable.sol\":1624:1660  bool isTopLevelCall = !_initializing */\n      swap1\n      pop\n        /* \"@openzeppelin/contracts-upgradeable/proxy/Initializable.sol\":1674:1688  isTopLevelCall */\n      dup1\n        /* \"@openzeppelin/contracts-upgradeable/proxy/Initializable.sol\":1670:1768  if (isTopLevelCall) {... */\n      iszero\n      tag_193\n      jumpi\n        /* \"@openzeppelin/contracts-upgradeable/proxy/Initializable.sol\":1720:1724  true */\n      0x01\n        /* \"@openzeppelin/contracts-upgradeable/proxy/Initializable.sol\":1704:1717  _initializing */\n      0x00\n      0x01\n        /* \"@openzeppelin/contracts-upgradeable/proxy/Initializable.sol\":1704:1724  _initializing = true */\n      0x0100\n      exp\n      dup2\n      sload\n      dup2\n      0xff\n      mul\n      not\n      and\n      swap1\n      dup4\n      iszero\n      iszero\n      mul\n      or\n      swap1\n      sstore\n      pop\n        /* \"@openzeppelin/contracts-upgradeable/proxy/Initializable.sol\":1753:1757  true */\n      0x01\n        /* \"@openzeppelin/contracts-upgradeable/proxy/Initializable.sol\":1738:1750  _initialized */\n      0x00\n      dup1\n        /* \"@openzeppelin/contracts-upgradeable/proxy/Initializable.sol\":1738:1757  _initialized = true */\n      0x0100\n      exp\n      dup2\n      sload\n      dup2\n      0xff\n      mul\n      not\n      and\n      swap1\n      dup4\n      iszero\n      iszero\n      mul\n      or\n      swap1\n      sstore\n      pop\n        /* \"@openzeppelin/contracts-upgradeable/proxy/Initializable.sol\":1670:1768  if (isTopLevelCall) {... */\n    tag_193:\n        /* \"@openzeppelin/contracts-upgradeable/proxy/Initializable.sol\":1794:1808  isTopLevelCall */\n      dup1\n        /* \"@openzeppelin/contracts-upgradeable/proxy/Initializable.sol\":1790:1856  if (isTopLevelCall) {... */\n      iszero\n      tag_195\n      jumpi\n        /* \"@openzeppelin/contracts-upgradeable/proxy/Initializable.sol\":1840:1845  false */\n      0x00\n        /* \"@openzeppelin/contracts-upgradeable/proxy/Initializable.sol\":1824:1837  _initializing */\n      dup1\n      0x01\n        /* \"@openzeppelin/contracts-upgradeable/proxy/Initializable.sol\":1824:1845  _initializing = false */\n      0x0100\n      exp\n      dup2\n      sload\n      dup2\n      0xff\n      mul\n      not\n      and\n      swap1\n      dup4\n      iszero\n      iszero\n      mul\n      or\n      swap1\n      sstore\n      pop\n        /* \"@openzeppelin/contracts-upgradeable/proxy/Initializable.sol\":1790:1856  if (isTopLevelCall) {... */\n    tag_195:\n        /* \"@openzeppelin/contracts-upgradeable/utils/ContextUpgradeable.sol\":759:823  function __Context_init_unchained() internal initializer {... */\n      pop\n      jump\t// out\n        /* \"@openzeppelin/contracts-upgradeable/access/OwnableUpgradeable.sol\":1067:1259  function __Ownable_init_unchained() internal initializer {... */\n    tag_179:\n        /* \"@openzeppelin/contracts-upgradeable/proxy/Initializable.sol\":1512:1525  _initializing */\n      0x00\n      0x01\n      swap1\n      sload\n      swap1\n      0x0100\n      exp\n      swap1\n      div\n      0xff\n      and\n        /* \"@openzeppelin/contracts-upgradeable/proxy/Initializable.sol\":1512:1545  _initializing || _isConstructor() */\n      dup1\n      tag_197\n      jumpi\n      pop\n        /* \"@openzeppelin/contracts-upgradeable/proxy/Initializable.sol\":1529:1545  _isConstructor() */\n      tag_198\n        /* \"@openzeppelin/contracts-upgradeable/proxy/Initializable.sol\":1529:1543  _isConstructor */\n      tag_114\n        /* \"@openzeppelin/contracts-upgradeable/proxy/Initializable.sol\":1529:1545  _isConstructor() */\n      jump\t// in\n    tag_198:\n        /* \"@openzeppelin/contracts-upgradeable/proxy/Initializable.sol\":1512:1545  _initializing || _isConstructor() */\n    tag_197:\n        /* \"@openzeppelin/contracts-upgradeable/proxy/Initializable.sol\":1512:1562  _initializing || _isConstructor() || !_initialized */\n      dup1\n      tag_199\n      jumpi\n      pop\n        /* \"@openzeppelin/contracts-upgradeable/proxy/Initializable.sol\":1550:1562  _initialized */\n      0x00\n      dup1\n      swap1\n      sload\n      swap1\n      0x0100\n      exp\n      swap1\n      div\n      0xff\n      and\n        /* \"@openzeppelin/contracts-upgradeable/proxy/Initializable.sol\":1549:1562  !_initialized */\n      iszero\n        /* \"@openzeppelin/contracts-upgradeable/proxy/Initializable.sol\":1512:1562  _initializing || _isConstructor() || !_initialized */\n    tag_199:\n        /* \"@openzeppelin/contracts-upgradeable/proxy/Initializable.sol\":1504:1613  require(_initializing || _isConstructor() || !_initialized, \"Initializable: contract is already initialized\") */\n      tag_200\n      jumpi\n      mload(0x40)\n      0x08c379a000000000000000000000000000000000000000000000000000000000\n      dup2\n      mstore\n      0x04\n      add\n      dup1\n      dup1\n      0x20\n      add\n      dup3\n      dup2\n      sub\n      dup3\n      mstore\n      0x2e\n      dup2\n      mstore\n      0x20\n      add\n      dup1\n      data_7a2a4e26842155ea933fe6eb6e3137eb5a296dcdf55721c552be7b4c3cc23759\n      0x2e\n      swap2\n      codecopy\n      0x40\n      add\n      swap2\n      pop\n      pop\n      mload(0x40)\n      dup1\n      swap2\n      sub\n      swap1\n      revert\n    tag_200:\n        /* \"@openzeppelin/contracts-upgradeable/proxy/Initializable.sol\":1624:1643  bool isTopLevelCall */\n      0x00\n        /* \"@openzeppelin/contracts-upgradeable/proxy/Initializable.sol\":1647:1660  _initializing */\n      dup1\n      0x01\n      swap1\n      sload\n      swap1\n      0x0100\n      exp\n      swap1\n      div\n      0xff\n      and\n        /* \"@openzeppelin/contracts-upgradeable/proxy/Initializable.sol\":1646:1660  !_initializing */\n      iszero\n        /* \"@openzeppelin/contracts-upgradeable/proxy/Initializable.sol\":1624:1660  bool isTopLevelCall = !_initializing */\n      swap1\n      pop\n        /* \"@openzeppelin/contracts-upgradeable/proxy/Initializable.sol\":1674:1688  isTopLevelCall */\n      dup1\n        /* \"@openzeppelin/contracts-upgradeable/proxy/Initializable.sol\":1670:1768  if (isTopLevelCall) {... */\n      iszero\n      tag_201\n      jumpi\n        /* \"@openzeppelin/contracts-upgradeable/proxy/Initializable.sol\":1720:1724  true */\n      0x01\n        /* \"@openzeppelin/contracts-upgradeable/proxy/Initializable.sol\":1704:1717  _initializing */\n      0x00\n      0x01\n        /* \"@openzeppelin/contracts-upgradeable/proxy/Initializable.sol\":1704:1724  _initializing = true */\n      0x0100\n      exp\n      dup2\n      sload\n      dup2\n      0xff\n      mul\n      not\n      and\n      swap1\n      dup4\n      iszero\n      iszero\n      mul\n      or\n      swap1\n      sstore\n      pop\n        /* \"@openzeppelin/contracts-upgradeable/proxy/Initializable.sol\":1753:1757  true */\n      0x01\n        /* \"@openzeppelin/contracts-upgradeable/proxy/Initializable.sol\":1738:1750  _initialized */\n      0x00\n      dup1\n        /* \"@openzeppelin/contracts-upgradeable/proxy/Initializable.sol\":1738:1757  _initialized = true */\n      0x0100\n      exp\n      dup2\n      sload\n      dup2\n      0xff\n      mul\n      not\n      and\n      swap1\n      dup4\n      iszero\n      iszero\n      mul\n      or\n      swap1\n      sstore\n      pop\n        /* \"@openzeppelin/contracts-upgradeable/proxy/Initializable.sol\":1670:1768  if (isTopLevelCall) {... */\n    tag_201:\n        /* \"@openzeppelin/contracts-upgradeable/access/OwnableUpgradeable.sol\":1134:1151  address msgSender */\n      0x00\n        /* \"@openzeppelin/contracts-upgradeable/access/OwnableUpgradeable.sol\":1154:1166  _msgSender() */\n      tag_203\n        /* \"@openzeppelin/contracts-upgradeable/access/OwnableUpgradeable.sol\":1154:1164  _msgSender */\n      tag_99\n        /* \"@openzeppelin/contracts-upgradeable/access/OwnableUpgradeable.sol\":1154:1166  _msgSender() */\n      jump\t// in\n    tag_203:\n        /* \"@openzeppelin/contracts-upgradeable/access/OwnableUpgradeable.sol\":1134:1166  address msgSender = _msgSender() */\n      swap1\n      pop\n        /* \"@openzeppelin/contracts-upgradeable/access/OwnableUpgradeable.sol\":1185:1194  msgSender */\n      dup1\n        /* \"@openzeppelin/contracts-upgradeable/access/OwnableUpgradeable.sol\":1176:1182  _owner */\n      0x33\n      0x00\n        /* \"@openzeppelin/contracts-upgradeable/access/OwnableUpgradeable.sol\":1176:1194  _owner = msgSender */\n      0x0100\n      exp\n      dup2\n      sload\n      dup2\n      0xffffffffffffffffffffffffffffffffffffffff\n      mul\n      not\n      and\n      swap1\n      dup4\n      0xffffffffffffffffffffffffffffffffffffffff\n      and\n      mul\n      or\n      swap1\n      sstore\n      pop\n        /* \"@openzeppelin/contracts-upgradeable/access/OwnableUpgradeable.sol\":1242:1251  msgSender */\n      dup1\n        /* \"@openzeppelin/contracts-upgradeable/access/OwnableUpgradeable.sol\":1209:1252  OwnershipTransferred(address(0), msgSender) */\n      0xffffffffffffffffffffffffffffffffffffffff\n      and\n        /* \"@openzeppelin/contracts-upgradeable/access/OwnableUpgradeable.sol\":1238:1239  0 */\n      0x00\n        /* \"@openzeppelin/contracts-upgradeable/access/OwnableUpgradeable.sol\":1209:1252  OwnershipTransferred(address(0), msgSender) */\n      0xffffffffffffffffffffffffffffffffffffffff\n      and\n      0x8be0079c531659141344cd1fd0a4f28419497f9722a3daafe3b4186f6b6457e0\n      mload(0x40)\n      mload(0x40)\n      dup1\n      swap2\n      sub\n      swap1\n      log3\n        /* \"@openzeppelin/contracts-upgradeable/proxy/Initializable.sol\":1778:1779  _ */\n      pop\n        /* \"@openzeppelin/contracts-upgradeable/proxy/Initializable.sol\":1794:1808  isTopLevelCall */\n      dup1\n        /* \"@openzeppelin/contracts-upgradeable/proxy/Initializable.sol\":1790:1856  if (isTopLevelCall) {... */\n      iszero\n      tag_204\n      jumpi\n        /* \"@openzeppelin/contracts-upgradeable/proxy/Initializable.sol\":1840:1845  false */\n      0x00\n        /* \"@openzeppelin/contracts-upgradeable/proxy/Initializable.sol\":1824:1837  _initializing */\n      dup1\n      0x01\n        /* \"@openzeppelin/contracts-upgradeable/proxy/Initializable.sol\":1824:1845  _initializing = false */\n      0x0100\n      exp\n      dup2\n      sload\n      dup2\n      0xff\n      mul\n      not\n      and\n      swap1\n      dup4\n      iszero\n      iszero\n      mul\n      or\n      swap1\n      sstore\n      pop\n        /* \"@openzeppelin/contracts-upgradeable/proxy/Initializable.sol\":1790:1856  if (isTopLevelCall) {... */\n    tag_204:\n        /* \"@openzeppelin/contracts-upgradeable/access/OwnableUpgradeable.sol\":1067:1259  function __Ownable_init_unchained() internal initializer {... */\n      pop\n      jump\t// out\n        /* \"contracts/mulSignature.sol\":1404:6885  contract multiSignature is ContextUpgradeable, OwnableUpgradeable {... */\n    tag_66:\n      mload(0x40)\n      dup1\n      0xa0\n      add\n      0x40\n      mstore\n      dup1\n      and(0xffffffffffffffffffffffffffffffffffffffff, 0x00)\n      dup2\n      mstore\n      0x20\n      add\n      0x60\n      dup2\n      mstore\n      0x20\n      add\n      iszero(iszero(0x00))\n      dup2\n      mstore\n      0x20\n      add\n      0x00\n      dup2\n      mstore\n      0x20\n      add\n      0x00\n      dup2\n      mstore\n      pop\n      swap1\n      jump\t// out\n    tag_93:\n      dup3\n      dup1\n      sload\n      dup3\n      dup3\n      sstore\n      swap1\n      0x00\n      mstore\n      keccak256(0x00, 0x20)\n      swap1\n      dup2\n      add\n      swap3\n      dup3\n      iszero\n      tag_205\n      jumpi\n      swap2\n      0x20\n      mul\n      dup3\n      add\n    tag_206:\n      dup3\n      dup2\n      gt\n      iszero\n      tag_207\n      jumpi\n      dup3\n      mload\n      dup3\n      exp(0x0100, 0x00)\n      dup2\n      sload\n      dup2\n      0xffffffffffffffffffffffffffffffffffffffff\n      mul\n      not\n      and\n      swap1\n      dup4\n      0xffffffffffffffffffffffffffffffffffffffff\n      and\n      mul\n      or\n      swap1\n      sstore\n      pop\n      swap2\n      0x20\n      add\n      swap2\n      swap1\n      0x01\n      add\n      swap1\n      jump(tag_206)\n    tag_207:\n    tag_205:\n      pop\n      swap1\n      pop\n      tag_208\n      swap2\n      swap1\n      tag_209\n      jump\t// in\n    tag_208:\n      pop\n      swap1\n      jump\t// out\n    tag_125:\n      dup3\n      dup1\n      sload\n      dup3\n      dup3\n      sstore\n      swap1\n      0x00\n      mstore\n      keccak256(0x00, 0x20)\n      swap1\n      dup2\n      add\n      swap3\n      dup3\n      iszero\n      tag_210\n      jumpi\n      swap2\n      0x20\n      mul\n      dup3\n      add\n    tag_211:\n      dup3\n      dup2\n      gt\n      iszero\n      tag_212\n      jumpi\n      dup3\n      mload\n      dup3\n      exp(0x0100, 0x00)\n      dup2\n      sload\n      dup2\n      0xffffffffffffffffffffffffffffffffffffffff\n      mul\n      not\n      and\n      swap1\n      dup4\n      0xffffffffffffffffffffffffffffffffffffffff\n      and\n      mul\n      or\n      swap1\n      sstore\n      pop\n      swap2\n      0x20\n      add\n      swap2\n      swap1\n      0x01\n      add\n      swap1\n      jump(tag_211)\n    tag_212:\n    tag_210:\n      pop\n      swap1\n      pop\n      tag_213\n      swap2\n      swap1\n      tag_209\n      jump\t// in\n    tag_213:\n      pop\n      swap1\n      jump\t// out\n    tag_209:\n      tag_214\n      swap2\n      swap1\n    tag_215:\n      dup1\n      dup3\n      gt\n      iszero\n      tag_216\n      jumpi\n      0x00\n      dup2\n      dup2\n      0x0100\n      exp\n      dup2\n      sload\n      swap1\n      0xffffffffffffffffffffffffffffffffffffffff\n      mul\n      not\n      and\n      swap1\n      sstore\n      pop\n      0x01\n      add\n      jump(tag_215)\n    tag_216:\n      pop\n      swap1\n      jump\n    tag_214:\n      swap1\n      jump\t// out\n    stop\n    data_245f15ff17f551913a7a18385165551503906a406f905ac1c2437281a7cd0cfe 4f776e61626c653a206e6577206f776e657220697320746865207a65726f2061646472657373\n    data_43f94f8943a878f43525282ffad720a853ed90b9b126e56b99745a92bf5ff462 4d756c7469706c65205369676e6174757265203a2063616c6c6572206973206e6f7420696e20746865206f776e65724c69737421\n    data_7a2a4e26842155ea933fe6eb6e3137eb5a296dcdf55721c552be7b4c3cc23759 496e697469616c697a61626c653a20636f6e747261637420697320616c726561647920696e697469616c697a6564\n    data_a718c357619561d0ed1d5b484565d90cadf1086b3b13693ebfd5e4de6d671904 4d756c7469706c65205369676e6174757265203a204f776e657220696e646578206973206f766572666c6f7721\n    data_c23ae5d586326184c640bb45d88197655987d574b8252f81c5ba536ab44d3030 4d756c7469706c65205369676e6174757265203a205369676e6174757265207468726573686f6c642069732067726561746572207468616e206f776e65727327206c656e67746821\n\n    auxdata: 0xa2646970667358221220c686bcf5202fdb28b0e58886f0c96e8c24fe1787303c8501dda797bab0ecaaf564736f6c63430006040033\n}\n",
				"bytecode": {
					"linkReferences": {},
					"object": "608060405234801561001057600080fd5b50611fb7806100206000396000f3fe608060405234801561001057600080fd5b50600436106100ea5760003560e01c806378b35aee1161008c578063affed0e011610066578063affed0e014610483578063f2fde38b146104a1578063fa3e1e27146104e5578063fe8ed3bc146105a7576100ea565b806378b35aee1461038f5780637efcc3a21461041b5780638da5cb5b14610439576100ea565b806325675059116100c857806325675059146102935780634bd23253146102c15780635d40a9f414610323578063715018a614610385576100ea565b80630dc460c6146100ef5780631d8a950c146101765780631ebe85ba14610245575b600080fd5b61011b6004803603602081101561010557600080fd5b81019080803590602001909291905050506105df565b604051808573ffffffffffffffffffffffffffffffffffffffff1673ffffffffffffffffffffffffffffffffffffffff1681526020018415151515815260200183815260200182815260200194505050505060405180910390f35b6101a26004803603602081101561018c57600080fd5b810190808035906020019092919050505061063c565b604051808673ffffffffffffffffffffffffffffffffffffffff1673ffffffffffffffffffffffffffffffffffffffff1681526020018060200185151515158152602001848152602001838152602001828103825286818151815260200191508051906020019060200280838360005b8381101561022d578082015181840152602081019050610212565b50505050905001965050505050505060405180910390f35b6102916004803603604081101561025b57600080fd5b8101908080359060200190929190803573ffffffffffffffffffffffffffffffffffffffff1690602001909291905050506107b0565b005b6102bf600480360360208110156102a957600080fd5b81019080803590602001909291905050506109fd565b005b61030d600480360360408110156102d757600080fd5b81019080803573ffffffffffffffffffffffffffffffffffffffff16906020019092919080359060200190929190505050610b5b565b6040518082815260200191505060405180910390f35b61036f6004803603604081101561033957600080fd5b81019080803573ffffffffffffffffffffffffffffffffffffffff16906020019092919080359060200190929190505050610d81565b6040518082815260200191505060405180910390f35b61038d610daf565b005b610405600480360360808110156103a557600080fd5b81019080803573ffffffffffffffffffffffffffffffffffffffff169060200190929190803573ffffffffffffffffffffffffffffffffffffffff1690602001909291908035906020019092919080359060200190929190505050610f1f565b6040518082815260200191505060405180910390f35b610423610fc8565b6040518082815260200191505060405180910390f35b610441610fce565b604051808273ffffffffffffffffffffffffffffffffffffffff1673ffffffffffffffffffffffffffffffffffffffff16815260200191505060405180910390f35b61048b610ff8565b6040518082815260200191505060405180910390f35b6104e3600480360360208110156104b757600080fd5b81019080803573ffffffffffffffffffffffffffffffffffffffff169060200190929190505050610ffe565b005b6105a5600480360360408110156104fb57600080fd5b810190808035906020019064010000000081111561051857600080fd5b82018360208201111561052a57600080fd5b8035906020019184602083028401116401000000008311171561054c57600080fd5b919080806020026020016040519081016040528093929190818152602001838360200280828437600081840152601f19601f820116905080830192505050505050509192919290803590602001909291905050506111f3565b005b6105dd600480360360408110156105bd57600080fd5b81019080803590602001909291908035906020019092919050505061138d565b005b606a6020528060005260406000206000915090508060000160009054906101000a900473ffffffffffffffffffffffffffffffffffffffff16908060020160009054906101000a900460ff16908060030154908060040154905084565b60006060600080600061064d611ce6565b606a60008881526020019081526020016000206040518060a00160405290816000820160009054906101000a900473ffffffffffffffffffffffffffffffffffffffff1673ffffffffffffffffffffffffffffffffffffffff1673ffffffffffffffffffffffffffffffffffffffff1681526020016001820180548060200260200160405190810160405280929190818152602001828054801561074657602002820191906000526020600020905b8160009054906101000a900473ffffffffffffffffffffffffffffffffffffffff1673ffffffffffffffffffffffffffffffffffffffff16815260200190600101908083116106fc575b505050505081526020016002820160009054906101000a900460ff1615151515815260200160038201548152602001600482015481525050905080600001518160200151826040015183606001518460800151839350955095509550955095505091939590929450565b61084933606580548060200260200160405190810160405280929190818152602001828054801561083657602002820191906000526020600020905b8160009054906101000a900473ffffffffffffffffffffffffffffffffffffffff1673ffffffffffffffffffffffffffffffffffffffff16815260200190600101908083116107ec575b50505050506114f690919063ffffffff16565b61089e576040517f08c379a0000000000000000000000000000000000000000000000000000000008152600401808060200182810382526034815260200180611eab6034913960400191505060405180910390fd5b60658054905082106108fb576040517f08c379a000000000000000000000000000000000000000000000000000000000815260040180806020018281038252602d815260200180611f0d602d913960400191505060405180910390fd5b8073ffffffffffffffffffffffffffffffffffffffff166065838154811061091f57fe5b9060005260206000200160009054906101000a900473ffffffffffffffffffffffffffffffffffffffff1673ffffffffffffffffffffffffffffffffffffffff163373ffffffffffffffffffffffffffffffffffffffff167ff48dd64d794d3623209edddaa975cfeae5b0ef403fbce64d7b377ceb50396c7460405160405180910390a480606583815481106109b157fe5b9060005260206000200160006101000a81548173ffffffffffffffffffffffffffffffffffffffff021916908373ffffffffffffffffffffffffffffffffffffffff1602179055505050565b610a96336065805480602002602001604051908101604052809291908181526020018280548015610a8357602002820191906000526020600020905b8160009054906101000a900473ffffffffffffffffffffffffffffffffffffffff1673ffffffffffffffffffffffffffffffffffffffff1681526020019060010190808311610a39575b50505050506114f690919063ffffffff16565b610aeb576040517f08c379a0000000000000000000000000000000000000000000000000000000008152600401808060200182810382526034815260200180611eab6034913960400191505060405180910390fd5b803373ffffffffffffffffffffffffffffffffffffffff167f966e42eca6e887734776fe8b26b78089c7cc415617a4d7c8a868f9fa671b65fb60405160405180910390a3610b5733606a600084815260200190815260200160002060010161157790919063ffffffff16565b5050565b600080610b6c338585606754610f1f565b905060675491506067600081548092919060010191905055506040518060a001604052803373ffffffffffffffffffffffffffffffffffffffff1681526020016000604051908082528060200260200182016040528015610bdc5781602001602082028036833780820191505090505b5081526020016000151581526020016068544201815260200183815250606a600083815260200190815260200160002060008201518160000160006101000a81548173ffffffffffffffffffffffffffffffffffffffff021916908373ffffffffffffffffffffffffffffffffffffffff1602179055506020820151816001019080519060200190610c6f929190611d2d565b5060408201518160020160006101000a81548160ff0219169083151502179055506060820151816003015560808201518160040155905050606960003373ffffffffffffffffffffffffffffffffffffffff1673ffffffffffffffffffffffffffffffffffffffff168152602001908152602001600020819080600181540180825580915050600190039060005260206000200160009091909190915055808473ffffffffffffffffffffffffffffffffffffffff163373ffffffffffffffffffffffffffffffffffffffff167f0e63e7cfe26fd3b2d1864dfdbdb38ba47838d3c60d8588940b275c9cf18a329760685442016040518082815260200191505060405180910390a48191505092915050565b60696020528160005260406000208181548110610d9a57fe5b90600052602060002001600091509150505481565b610db7611703565b73ffffffffffffffffffffffffffffffffffffffff16610dd5610fce565b73ffffffffffffffffffffffffffffffffffffffff1614610e5e576040517f08c379a00000000000000000000000000000000000000000000000000000000081526004018080602001828103825260208152602001807f4f776e61626c653a2063616c6c6572206973206e6f7420746865206f776e657281525060200191505060405180910390fd5b600073ffffffffffffffffffffffffffffffffffffffff16603360009054906101000a900473ffffffffffffffffffffffffffffffffffffffff1673ffffffffffffffffffffffffffffffffffffffff167f8be0079c531659141344cd1fd0a4f28419497f9722a3daafe3b4186f6b6457e060405160405180910390a36000603360006101000a81548173ffffffffffffffffffffffffffffffffffffffff021916908373ffffffffffffffffffffffffffffffffffffffff160217905550565b600084848484604051602001808573ffffffffffffffffffffffffffffffffffffffff1673ffffffffffffffffffffffffffffffffffffffff1660601b81526014018473ffffffffffffffffffffffffffffffffffffffff1673ffffffffffffffffffffffffffffffffffffffff1660601b8152601401838152602001828152602001945050505050604051602081830303815290604052805190602001209050949350505050565b60685481565b6000603360009054906101000a900473ffffffffffffffffffffffffffffffffffffffff16905090565b60675481565b611006611703565b73ffffffffffffffffffffffffffffffffffffffff16611024610fce565b73ffffffffffffffffffffffffffffffffffffffff16146110ad576040517f08c379a00000000000000000000000000000000000000000000000000000000081526004018080602001828103825260208152602001807f4f776e61626c653a2063616c6c6572206973206e6f7420746865206f776e657281525060200191505060405180910390fd5b600073ffffffffffffffffffffffffffffffffffffffff168173ffffffffffffffffffffffffffffffffffffffff161415611133576040517f08c379a0000000000000000000000000000000000000000000000000000000008152600401808060200182810382526026815260200180611e856026913960400191505060405180910390fd5b8073ffffffffffffffffffffffffffffffffffffffff16603360009054906101000a900473ffffffffffffffffffffffffffffffffffffffff1673ffffffffffffffffffffffffffffffffffffffff167f8be0079c531659141344cd1fd0a4f28419497f9722a3daafe3b4186f6b6457e060405160405180910390a380603360006101000a81548173ffffffffffffffffffffffffffffffffffffffff021916908373ffffffffffffffffffffffffffffffffffffffff16021790555050565b600060019054906101000a900460ff1680611212575061121161170b565b5b8061122957506000809054906101000a900460ff16155b61127e576040517f08c379a000000000000000000000000000000000000000000000000000000000815260040180806020018281038252602e815260200180611edf602e913960400191505060405180910390fd5b60008060019054906101000a900460ff1615905080156112ce576001600060016101000a81548160ff02191690831515021790555060016000806101000a81548160ff0219169083151502179055505b6112d661171c565b6112de611823565b8183511015611338576040517f08c379a0000000000000000000000000000000000000000000000000000000008152600401808060200182810382526048815260200180611f3a6048913960600191505060405180910390fd5b826065908051906020019061134e929190611db7565b50816066819055506001606781905550610e1060688190555080156113885760008060016101000a81548160ff0219169083151502179055505b505050565b61142633606580548060200260200160405190810160405280929190818152602001828054801561141357602002820191906000526020600020905b8160009054906101000a900473ffffffffffffffffffffffffffffffffffffffff1673ffffffffffffffffffffffffffffffffffffffff16815260200190600101908083116113c9575b50505050506114f690919063ffffffff16565b61147b576040517f08c379a0000000000000000000000000000000000000000000000000000000008152600401808060200182810382526034815260200180611eab6034913960400191505060405180910390fd5b813373ffffffffffffffffffffffffffffffffffffffff167f2d579b8389bf07e7ce434f3bd88b036a33d28787d19af73a5aa2003a5dcb7d36836040518082815260200191505060405180910390a36114f233606a600085815260200190815260200160002060010161193290919063ffffffff16565b5050565b6000808351905060008090505b8181101561156a578373ffffffffffffffffffffffffffffffffffffffff1685828151811061152e57fe5b602002602001015173ffffffffffffffffffffffffffffffffffffffff16141561155d57600192505050611571565b8080600101915050611503565b5060009150505b92915050565b6000808380549050905060008090505b8181101561160b578373ffffffffffffffffffffffffffffffffffffffff168582815481106115b257fe5b9060005260206000200160009054906101000a900473ffffffffffffffffffffffffffffffffffffffff1673ffffffffffffffffffffffffffffffffffffffff1614156115fe5761160b565b8080600101915050611587565b818110156116f6576001820381146116ac5784600183038154811061162c57fe5b9060005260206000200160009054906101000a900473ffffffffffffffffffffffffffffffffffffffff1685828154811061166357fe5b9060005260206000200160006101000a81548173ffffffffffffffffffffffffffffffffffffffff021916908373ffffffffffffffffffffffffffffffffffffffff1602179055505b848054806116b657fe5b6001900381819060005260206000200160006101000a81549073ffffffffffffffffffffffffffffffffffffffff021916905590556001925050506116fd565b6000925050505b92915050565b600033905090565b600061171630611a2c565b15905090565b600060019054906101000a900460ff168061173b575061173a61170b565b5b8061175257506000809054906101000a900460ff16155b6117a7576040517f08c379a000000000000000000000000000000000000000000000000000000000815260040180806020018281038252602e815260200180611edf602e913960400191505060405180910390fd5b60008060019054906101000a900460ff1615905080156117f7576001600060016101000a81548160ff02191690831515021790555060016000806101000a81548160ff0219169083151502179055505b6117ff611a3f565b80156118205760008060016101000a81548160ff0219169083151502179055505b50565b600060019054906101000a900460ff1680611842575061184161170b565b5b8061185957506000809054906101000a900460ff16155b6118ae576040517f08c379a000000000000000000000000000000000000000000000000000000000815260040180806020018281038252602e815260200180611edf602e913960400191505060405180910390fd5b60008060019054906101000a900460ff1615905080156118fe576001600060016101000a81548160ff02191690831515021790555060016000806101000a81548160ff0219169083151502179055505b611906611a3f565b61190e611b3e565b801561192f5760008060016101000a81548160ff0219169083151502179055505b50565b6119c1828054806020026020016040519081016040528092919081815260200182805480156119b657602002820191906000526020600020905b8160009054906101000a900473ffffffffffffffffffffffffffffffffffffffff1673ffffffffffffffffffffffffffffffffffffffff168152602001906001019080831161196c575b5050505050826114f6565b611a285781819080600181540180825580915050600190039060005260206000200160009091909190916101000a81548173ffffffffffffffffffffffffffffffffffffffff021916908373ffffffffffffffffffffffffffffffffffffffff1602179055505b5050565b600080823b905060008111915050919050565b600060019054906101000a900460ff1680611a5e5750611a5d61170b565b5b80611a7557506000809054906101000a900460ff16155b611aca576040517f08c379a000000000000000000000000000000000000000000000000000000000815260040180806020018281038252602e815260200180611edf602e913960400191505060405180910390fd5b60008060019054906101000a900460ff161590508015611b1a576001600060016101000a81548160ff02191690831515021790555060016000806101000a81548160ff0219169083151502179055505b8015611b3b5760008060016101000a81548160ff0219169083151502179055505b50565b600060019054906101000a900460ff1680611b5d5750611b5c61170b565b5b80611b7457506000809054906101000a900460ff16155b611bc9576040517f08c379a000000000000000000000000000000000000000000000000000000000815260040180806020018281038252602e815260200180611edf602e913960400191505060405180910390fd5b60008060019054906101000a900460ff161590508015611c19576001600060016101000a81548160ff02191690831515021790555060016000806101000a81548160ff0219169083151502179055505b6000611c23611703565b905080603360006101000a81548173ffffffffffffffffffffffffffffffffffffffff021916908373ffffffffffffffffffffffffffffffffffffffff1602179055508073ffffffffffffffffffffffffffffffffffffffff16600073ffffffffffffffffffffffffffffffffffffffff167f8be0079c531659141344cd1fd0a4f28419497f9722a3daafe3b4186f6b6457e060405160405180910390a3508015611ce35760008060016101000a81548160ff0219169083151502179055505b50565b6040518060a00160405280600073ffffffffffffffffffffffffffffffffffffffff1681526020016060815260200160001515815260200160008152602001600081525090565b828054828255906000526020600020908101928215611da6579160200282015b82811115611da55782518260006101000a81548173ffffffffffffffffffffffffffffffffffffffff021916908373ffffffffffffffffffffffffffffffffffffffff16021790555091602001919060010190611d4d565b5b509050611db39190611e41565b5090565b828054828255906000526020600020908101928215611e30579160200282015b82811115611e2f5782518260006101000a81548173ffffffffffffffffffffffffffffffffffffffff021916908373ffffffffffffffffffffffffffffffffffffffff16021790555091602001919060010190611dd7565b5b509050611e3d9190611e41565b5090565b611e8191905b80821115611e7d57600081816101000a81549073ffffffffffffffffffffffffffffffffffffffff021916905550600101611e47565b5090565b9056fe4f776e61626c653a206e6577206f776e657220697320746865207a65726f20616464726573734d756c7469706c65205369676e6174757265203a2063616c6c6572206973206e6f7420696e20746865206f776e65724c69737421496e697469616c697a61626c653a20636f6e747261637420697320616c726561647920696e697469616c697a65644d756c7469706c65205369676e6174757265203a204f776e657220696e646578206973206f766572666c6f77214d756c7469706c65205369676e6174757265203a205369676e6174757265207468726573686f6c642069732067726561746572207468616e206f776e65727327206c656e67746821a2646970667358221220c686bcf5202fdb28b0e58886f0c96e8c24fe1787303c8501dda797bab0ecaaf564736f6c63430006040033",
					"opcodes": "PUSH1 0x80 PUSH1 0x40 MSTORE CALLVALUE DUP1 ISZERO PUSH2 0x10 JUMPI PUSH1 0x0 DUP1 REVERT JUMPDEST POP PUSH2 0x1FB7 DUP1 PUSH2 0x20 PUSH1 0x0 CODECOPY PUSH1 0x0 RETURN INVALID PUSH1 0x80 PUSH1 0x40 MSTORE CALLVALUE DUP1 ISZERO PUSH2 0x10 JUMPI PUSH1 0x0 DUP1 REVERT JUMPDEST POP PUSH1 0x4 CALLDATASIZE LT PUSH2 0xEA JUMPI PUSH1 0x0 CALLDATALOAD PUSH1 0xE0 SHR DUP1 PUSH4 0x78B35AEE GT PUSH2 0x8C JUMPI DUP1 PUSH4 0xAFFED0E0 GT PUSH2 0x66 JUMPI DUP1 PUSH4 0xAFFED0E0 EQ PUSH2 0x483 JUMPI DUP1 PUSH4 0xF2FDE38B EQ PUSH2 0x4A1 JUMPI DUP1 PUSH4 0xFA3E1E27 EQ PUSH2 0x4E5 JUMPI DUP1 PUSH4 0xFE8ED3BC EQ PUSH2 0x5A7 JUMPI PUSH2 0xEA JUMP JUMPDEST DUP1 PUSH4 0x78B35AEE EQ PUSH2 0x38F JUMPI DUP1 PUSH4 0x7EFCC3A2 EQ PUSH2 0x41B JUMPI DUP1 PUSH4 0x8DA5CB5B EQ PUSH2 0x439 JUMPI PUSH2 0xEA JUMP JUMPDEST DUP1 PUSH4 0x25675059 GT PUSH2 0xC8 JUMPI DUP1 PUSH4 0x25675059 EQ PUSH2 0x293 JUMPI DUP1 PUSH4 0x4BD23253 EQ PUSH2 0x2C1 JUMPI DUP1 PUSH4 0x5D40A9F4 EQ PUSH2 0x323 JUMPI DUP1 PUSH4 0x715018A6 EQ PUSH2 0x385 JUMPI PUSH2 0xEA JUMP JUMPDEST DUP1 PUSH4 0xDC460C6 EQ PUSH2 0xEF JUMPI DUP1 PUSH4 0x1D8A950C EQ PUSH2 0x176 JUMPI DUP1 PUSH4 0x1EBE85BA EQ PUSH2 0x245 JUMPI JUMPDEST PUSH1 0x0 DUP1 REVERT JUMPDEST PUSH2 0x11B PUSH1 0x4 DUP1 CALLDATASIZE SUB PUSH1 0x20 DUP2 LT ISZERO PUSH2 0x105 JUMPI PUSH1 0x0 DUP1 REVERT JUMPDEST DUP2 ADD SWAP1 DUP1 DUP1 CALLDATALOAD SWAP1 PUSH1 0x20 ADD SWAP1 SWAP3 SWAP2 SWAP1 POP POP POP PUSH2 0x5DF JUMP JUMPDEST PUSH1 0x40 MLOAD DUP1 DUP6 PUSH20 0xFFFFFFFFFFFFFFFFFFFFFFFFFFFFFFFFFFFFFFFF AND PUSH20 0xFFFFFFFFFFFFFFFFFFFFFFFFFFFFFFFFFFFFFFFF AND DUP2 MSTORE PUSH1 0x20 ADD DUP5 ISZERO ISZERO ISZERO ISZERO DUP2 MSTORE PUSH1 0x20 ADD DUP4 DUP2 MSTORE PUSH1 0x20 ADD DUP3 DUP2 MSTORE PUSH1 0x20 ADD SWAP5 POP POP POP POP POP PUSH1 0x40 MLOAD DUP1 SWAP2 SUB SWAP1 RETURN JUMPDEST PUSH2 0x1A2 PUSH1 0x4 DUP1 CALLDATASIZE SUB PUSH1 0x20 DUP2 LT ISZERO PUSH2 0x18C JUMPI PUSH1 0x0 DUP1 REVERT JUMPDEST DUP2 ADD SWAP1 DUP1 DUP1 CALLDATALOAD SWAP1 PUSH1 0x20 ADD SWAP1 SWAP3 SWAP2 SWAP1 POP POP POP PUSH2 0x63C JUMP JUMPDEST PUSH1 0x40 MLOAD DUP1 DUP7 PUSH20 0xFFFFFFFFFFFFFFFFFFFFFFFFFFFFFFFFFFFFFFFF AND PUSH20 0xFFFFFFFFFFFFFFFFFFFFFFFFFFFFFFFFFFFFFFFF AND DUP2 MSTORE PUSH1 0x20 ADD DUP1 PUSH1 0x20 ADD DUP6 ISZERO ISZERO ISZERO ISZERO DUP2 MSTORE PUSH1 0x20 ADD DUP5 DUP2 MSTORE PUSH1 0x20 ADD DUP4 DUP2 MSTORE PUSH1 0x20 ADD DUP3 DUP2 SUB DUP3 MSTORE DUP7 DUP2 DUP2 MLOAD DUP2 MSTORE PUSH1 0x20 ADD SWAP2 POP DUP1 MLOAD SWAP1 PUSH1 0x20 ADD SWAP1 PUSH1 0x20 MUL DUP1 DUP4 DUP4 PUSH1 0x0 JUMPDEST DUP4 DUP2 LT ISZERO PUSH2 0x22D JUMPI DUP1 DUP3 ADD MLOAD DUP2 DUP5 ADD MSTORE PUSH1 0x20 DUP2 ADD SWAP1 POP PUSH2 0x212 JUMP JUMPDEST POP POP POP POP SWAP1 POP ADD SWAP7 POP POP POP POP POP POP POP PUSH1 0x40 MLOAD DUP1 SWAP2 SUB SWAP1 RETURN JUMPDEST PUSH2 0x291 PUSH1 0x4 DUP1 CALLDATASIZE SUB PUSH1 0x40 DUP2 LT ISZERO PUSH2 0x25B JUMPI PUSH1 0x0 DUP1 REVERT JUMPDEST DUP2 ADD SWAP1 DUP1 DUP1 CALLDATALOAD SWAP1 PUSH1 0x20 ADD SWAP1 SWAP3 SWAP2 SWAP1 DUP1 CALLDATALOAD PUSH20 0xFFFFFFFFFFFFFFFFFFFFFFFFFFFFFFFFFFFFFFFF AND SWAP1 PUSH1 0x20 ADD SWAP1 SWAP3 SWAP2 SWAP1 POP POP POP PUSH2 0x7B0 JUMP JUMPDEST STOP JUMPDEST PUSH2 0x2BF PUSH1 0x4 DUP1 CALLDATASIZE SUB PUSH1 0x20 DUP2 LT ISZERO PUSH2 0x2A9 JUMPI PUSH1 0x0 DUP1 REVERT JUMPDEST DUP2 ADD SWAP1 DUP1 DUP1 CALLDATALOAD SWAP1 PUSH1 0x20 ADD SWAP1 SWAP3 SWAP2 SWAP1 POP POP POP PUSH2 0x9FD JUMP JUMPDEST STOP JUMPDEST PUSH2 0x30D PUSH1 0x4 DUP1 CALLDATASIZE SUB PUSH1 0x40 DUP2 LT ISZERO PUSH2 0x2D7 JUMPI PUSH1 0x0 DUP1 REVERT JUMPDEST DUP2 ADD SWAP1 DUP1 DUP1 CALLDATALOAD PUSH20 0xFFFFFFFFFFFFFFFFFFFFFFFFFFFFFFFFFFFFFFFF AND SWAP1 PUSH1 0x20 ADD SWAP1 SWAP3 SWAP2 SWAP1 DUP1 CALLDATALOAD SWAP1 PUSH1 0x20 ADD SWAP1 SWAP3 SWAP2 SWAP1 POP POP POP PUSH2 0xB5B JUMP JUMPDEST PUSH1 0x40 MLOAD DUP1 DUP3 DUP2 MSTORE PUSH1 0x20 ADD SWAP2 POP POP PUSH1 0x40 MLOAD DUP1 SWAP2 SUB SWAP1 RETURN JUMPDEST PUSH2 0x36F PUSH1 0x4 DUP1 CALLDATASIZE SUB PUSH1 0x40 DUP2 LT ISZERO PUSH2 0x339 JUMPI PUSH1 0x0 DUP1 REVERT JUMPDEST DUP2 ADD SWAP1 DUP1 DUP1 CALLDATALOAD PUSH20 0xFFFFFFFFFFFFFFFFFFFFFFFFFFFFFFFFFFFFFFFF AND SWAP1 PUSH1 0x20 ADD SWAP1 SWAP3 SWAP2 SWAP1 DUP1 CALLDATALOAD SWAP1 PUSH1 0x20 ADD SWAP1 SWAP3 SWAP2 SWAP1 POP POP POP PUSH2 0xD81 JUMP JUMPDEST PUSH1 0x40 MLOAD DUP1 DUP3 DUP2 MSTORE PUSH1 0x20 ADD SWAP2 POP POP PUSH1 0x40 MLOAD DUP1 SWAP2 SUB SWAP1 RETURN JUMPDEST PUSH2 0x38D PUSH2 0xDAF JUMP JUMPDEST STOP JUMPDEST PUSH2 0x405 PUSH1 0x4 DUP1 CALLDATASIZE SUB PUSH1 0x80 DUP2 LT ISZERO PUSH2 0x3A5 JUMPI PUSH1 0x0 DUP1 REVERT JUMPDEST DUP2 ADD SWAP1 DUP1 DUP1 CALLDATALOAD PUSH20 0xFFFFFFFFFFFFFFFFFFFFFFFFFFFFFFFFFFFFFFFF AND SWAP1 PUSH1 0x20 ADD SWAP1 SWAP3 SWAP2 SWAP1 DUP1 CALLDATALOAD PUSH20 0xFFFFFFFFFFFFFFFFFFFFFFFFFFFFFFFFFFFFFFFF AND SWAP1 PUSH1 0x20 ADD SWAP1 SWAP3 SWAP2 SWAP1 DUP1 CALLDATALOAD SWAP1 PUSH1 0x20 ADD SWAP1 SWAP3 SWAP2 SWAP1 DUP1 CALLDATALOAD SWAP1 PUSH1 0x20 ADD SWAP1 SWAP3 SWAP2 SWAP1 POP POP POP PUSH2 0xF1F JUMP JUMPDEST PUSH1 0x40 MLOAD DUP1 DUP3 DUP2 MSTORE PUSH1 0x20 ADD SWAP2 POP POP PUSH1 0x40 MLOAD DUP1 SWAP2 SUB SWAP1 RETURN JUMPDEST PUSH2 0x423 PUSH2 0xFC8 JUMP JUMPDEST PUSH1 0x40 MLOAD DUP1 DUP3 DUP2 MSTORE PUSH1 0x20 ADD SWAP2 POP POP PUSH1 0x40 MLOAD DUP1 SWAP2 SUB SWAP1 RETURN JUMPDEST PUSH2 0x441 PUSH2 0xFCE JUMP JUMPDEST PUSH1 0x40 MLOAD DUP1 DUP3 PUSH20 0xFFFFFFFFFFFFFFFFFFFFFFFFFFFFFFFFFFFFFFFF AND PUSH20 0xFFFFFFFFFFFFFFFFFFFFFFFFFFFFFFFFFFFFFFFF AND DUP2 MSTORE PUSH1 0x20 ADD SWAP2 POP POP PUSH1 0x40 MLOAD DUP1 SWAP2 SUB SWAP1 RETURN JUMPDEST PUSH2 0x48B PUSH2 0xFF8 JUMP JUMPDEST PUSH1 0x40 MLOAD DUP1 DUP3 DUP2 MSTORE PUSH1 0x20 ADD SWAP2 POP POP PUSH1 0x40 MLOAD DUP1 SWAP2 SUB SWAP1 RETURN JUMPDEST PUSH2 0x4E3 PUSH1 0x4 DUP1 CALLDATASIZE SUB PUSH1 0x20 DUP2 LT ISZERO PUSH2 0x4B7 JUMPI PUSH1 0x0 DUP1 REVERT JUMPDEST DUP2 ADD SWAP1 DUP1 DUP1 CALLDATALOAD PUSH20 0xFFFFFFFFFFFFFFFFFFFFFFFFFFFFFFFFFFFFFFFF AND SWAP1 PUSH1 0x20 ADD SWAP1 SWAP3 SWAP2 SWAP1 POP POP POP PUSH2 0xFFE JUMP JUMPDEST STOP JUMPDEST PUSH2 0x5A5 PUSH1 0x4 DUP1 CALLDATASIZE SUB PUSH1 0x40 DUP2 LT ISZERO PUSH2 0x4FB JUMPI PUSH1 0x0 DUP1 REVERT JUMPDEST DUP2 ADD SWAP1 DUP1 DUP1 CALLDATALOAD SWAP1 PUSH1 0x20 ADD SWAP1 PUSH5 0x100000000 DUP2 GT ISZERO PUSH2 0x518 JUMPI PUSH1 0x0 DUP1 REVERT JUMPDEST DUP3 ADD DUP4 PUSH1 0x20 DUP3 ADD GT ISZERO PUSH2 0x52A JUMPI PUSH1 0x0 DUP1 REVERT JUMPDEST DUP1 CALLDATALOAD SWAP1 PUSH1 0x20 ADD SWAP2 DUP5 PUSH1 0x20 DUP4 MUL DUP5 ADD GT PUSH5 0x100000000 DUP4 GT OR ISZERO PUSH2 0x54C JUMPI PUSH1 0x0 DUP1 REVERT JUMPDEST SWAP2 SWAP1 DUP1 DUP1 PUSH1 0x20 MUL PUSH1 0x20 ADD PUSH1 0x40 MLOAD SWAP1 DUP2 ADD PUSH1 0x40 MSTORE DUP1 SWAP4 SWAP3 SWAP2 SWAP1 DUP2 DUP2 MSTORE PUSH1 0x20 ADD DUP4 DUP4 PUSH1 0x20 MUL DUP1 DUP3 DUP5 CALLDATACOPY PUSH1 0x0 DUP2 DUP5 ADD MSTORE PUSH1 0x1F NOT PUSH1 0x1F DUP3 ADD AND SWAP1 POP DUP1 DUP4 ADD SWAP3 POP POP POP POP POP POP POP SWAP2 SWAP3 SWAP2 SWAP3 SWAP1 DUP1 CALLDATALOAD SWAP1 PUSH1 0x20 ADD SWAP1 SWAP3 SWAP2 SWAP1 POP POP POP PUSH2 0x11F3 JUMP JUMPDEST STOP JUMPDEST PUSH2 0x5DD PUSH1 0x4 DUP1 CALLDATASIZE SUB PUSH1 0x40 DUP2 LT ISZERO PUSH2 0x5BD JUMPI PUSH1 0x0 DUP1 REVERT JUMPDEST DUP2 ADD SWAP1 DUP1 DUP1 CALLDATALOAD SWAP1 PUSH1 0x20 ADD SWAP1 SWAP3 SWAP2 SWAP1 DUP1 CALLDATALOAD SWAP1 PUSH1 0x20 ADD SWAP1 SWAP3 SWAP2 SWAP1 POP POP POP PUSH2 0x138D JUMP JUMPDEST STOP JUMPDEST PUSH1 0x6A PUSH1 0x20 MSTORE DUP1 PUSH1 0x0 MSTORE PUSH1 0x40 PUSH1 0x0 KECCAK256 PUSH1 0x0 SWAP2 POP SWAP1 POP DUP1 PUSH1 0x0 ADD PUSH1 0x0 SWAP1 SLOAD SWAP1 PUSH2 0x100 EXP SWAP1 DIV PUSH20 0xFFFFFFFFFFFFFFFFFFFFFFFFFFFFFFFFFFFFFFFF AND SWAP1 DUP1 PUSH1 0x2 ADD PUSH1 0x0 SWAP1 SLOAD SWAP1 PUSH2 0x100 EXP SWAP1 DIV PUSH1 0xFF AND SWAP1 DUP1 PUSH1 0x3 ADD SLOAD SWAP1 DUP1 PUSH1 0x4 ADD SLOAD SWAP1 POP DUP5 JUMP JUMPDEST PUSH1 0x0 PUSH1 0x60 PUSH1 0x0 DUP1 PUSH1 0x0 PUSH2 0x64D PUSH2 0x1CE6 JUMP JUMPDEST PUSH1 0x6A PUSH1 0x0 DUP9 DUP2 MSTORE PUSH1 0x20 ADD SWAP1 DUP2 MSTORE PUSH1 0x20 ADD PUSH1 0x0 KECCAK256 PUSH1 0x40 MLOAD DUP1 PUSH1 0xA0 ADD PUSH1 0x40 MSTORE SWAP1 DUP2 PUSH1 0x0 DUP3 ADD PUSH1 0x0 SWAP1 SLOAD SWAP1 PUSH2 0x100 EXP SWAP1 DIV PUSH20 0xFFFFFFFFFFFFFFFFFFFFFFFFFFFFFFFFFFFFFFFF AND PUSH20 0xFFFFFFFFFFFFFFFFFFFFFFFFFFFFFFFFFFFFFFFF AND PUSH20 0xFFFFFFFFFFFFFFFFFFFFFFFFFFFFFFFFFFFFFFFF AND DUP2 MSTORE PUSH1 0x20 ADD PUSH1 0x1 DUP3 ADD DUP1 SLOAD DUP1 PUSH1 0x20 MUL PUSH1 0x20 ADD PUSH1 0x40 MLOAD SWAP1 DUP2 ADD PUSH1 0x40 MSTORE DUP1 SWAP3 SWAP2 SWAP1 DUP2 DUP2 MSTORE PUSH1 0x20 ADD DUP3 DUP1 SLOAD DUP1 ISZERO PUSH2 0x746 JUMPI PUSH1 0x20 MUL DUP3 ADD SWAP2 SWAP1 PUSH1 0x0 MSTORE PUSH1 0x20 PUSH1 0x0 KECCAK256 SWAP1 JUMPDEST DUP2 PUSH1 0x0 SWAP1 SLOAD SWAP1 PUSH2 0x100 EXP SWAP1 DIV PUSH20 0xFFFFFFFFFFFFFFFFFFFFFFFFFFFFFFFFFFFFFFFF AND PUSH20 0xFFFFFFFFFFFFFFFFFFFFFFFFFFFFFFFFFFFFFFFF AND DUP2 MSTORE PUSH1 0x20 ADD SWAP1 PUSH1 0x1 ADD SWAP1 DUP1 DUP4 GT PUSH2 0x6FC JUMPI JUMPDEST POP POP POP POP POP DUP2 MSTORE PUSH1 0x20 ADD PUSH1 0x2 DUP3 ADD PUSH1 0x0 SWAP1 SLOAD SWAP1 PUSH2 0x100 EXP SWAP1 DIV PUSH1 0xFF AND ISZERO ISZERO ISZERO ISZERO DUP2 MSTORE PUSH1 0x20 ADD PUSH1 0x3 DUP3 ADD SLOAD DUP2 MSTORE PUSH1 0x20 ADD PUSH1 0x4 DUP3 ADD SLOAD DUP2 MSTORE POP POP SWAP1 POP DUP1 PUSH1 0x0 ADD MLOAD DUP2 PUSH1 0x20 ADD MLOAD DUP3 PUSH1 0x40 ADD MLOAD DUP4 PUSH1 0x60 ADD MLOAD DUP5 PUSH1 0x80 ADD MLOAD DUP4 SWAP4 POP SWAP6 POP SWAP6 POP SWAP6 POP SWAP6 POP SWAP6 POP POP SWAP2 SWAP4 SWAP6 SWAP1 SWAP3 SWAP5 POP JUMP JUMPDEST PUSH2 0x849 CALLER PUSH1 0x65 DUP1 SLOAD DUP1 PUSH1 0x20 MUL PUSH1 0x20 ADD PUSH1 0x40 MLOAD SWAP1 DUP2 ADD PUSH1 0x40 MSTORE DUP1 SWAP3 SWAP2 SWAP1 DUP2 DUP2 MSTORE PUSH1 0x20 ADD DUP3 DUP1 SLOAD DUP1 ISZERO PUSH2 0x836 JUMPI PUSH1 0x20 MUL DUP3 ADD SWAP2 SWAP1 PUSH1 0x0 MSTORE PUSH1 0x20 PUSH1 0x0 KECCAK256 SWAP1 JUMPDEST DUP2 PUSH1 0x0 SWAP1 SLOAD SWAP1 PUSH2 0x100 EXP SWAP1 DIV PUSH20 0xFFFFFFFFFFFFFFFFFFFFFFFFFFFFFFFFFFFFFFFF AND PUSH20 0xFFFFFFFFFFFFFFFFFFFFFFFFFFFFFFFFFFFFFFFF AND DUP2 MSTORE PUSH1 0x20 ADD SWAP1 PUSH1 0x1 ADD SWAP1 DUP1 DUP4 GT PUSH2 0x7EC JUMPI JUMPDEST POP POP POP POP POP PUSH2 0x14F6 SWAP1 SWAP2 SWAP1 PUSH4 0xFFFFFFFF AND JUMP JUMPDEST PUSH2 0x89E JUMPI PUSH1 0x40 MLOAD PUSH32 0x8C379A000000000000000000000000000000000000000000000000000000000 DUP2 MSTORE PUSH1 0x4 ADD DUP1 DUP1 PUSH1 0x20 ADD DUP3 DUP2 SUB DUP3 MSTORE PUSH1 0x34 DUP2 MSTORE PUSH1 0x20 ADD DUP1 PUSH2 0x1EAB PUSH1 0x34 SWAP2 CODECOPY PUSH1 0x40 ADD SWAP2 POP POP PUSH1 0x40 MLOAD DUP1 SWAP2 SUB SWAP1 REVERT JUMPDEST PUSH1 0x65 DUP1 SLOAD SWAP1 POP DUP3 LT PUSH2 0x8FB JUMPI PUSH1 0x40 MLOAD PUSH32 0x8C379A000000000000000000000000000000000000000000000000000000000 DUP2 MSTORE PUSH1 0x4 ADD DUP1 DUP1 PUSH1 0x20 ADD DUP3 DUP2 SUB DUP3 MSTORE PUSH1 0x2D DUP2 MSTORE PUSH1 0x20 ADD DUP1 PUSH2 0x1F0D PUSH1 0x2D SWAP2 CODECOPY PUSH1 0x40 ADD SWAP2 POP POP PUSH1 0x40 MLOAD DUP1 SWAP2 SUB SWAP1 REVERT JUMPDEST DUP1 PUSH20 0xFFFFFFFFFFFFFFFFFFFFFFFFFFFFFFFFFFFFFFFF AND PUSH1 0x65 DUP4 DUP2 SLOAD DUP2 LT PUSH2 0x91F JUMPI INVALID JUMPDEST SWAP1 PUSH1 0x0 MSTORE PUSH1 0x20 PUSH1 0x0 KECCAK256 ADD PUSH1 0x0 SWAP1 SLOAD SWAP1 PUSH2 0x100 EXP SWAP1 DIV PUSH20 0xFFFFFFFFFFFFFFFFFFFFFFFFFFFFFFFFFFFFFFFF AND PUSH20 0xFFFFFFFFFFFFFFFFFFFFFFFFFFFFFFFFFFFFFFFF AND CALLER PUSH20 0xFFFFFFFFFFFFFFFFFFFFFFFFFFFFFFFFFFFFFFFF AND PUSH32 0xF48DD64D794D3623209EDDDAA975CFEAE5B0EF403FBCE64D7B377CEB50396C74 PUSH1 0x40 MLOAD PUSH1 0x40 MLOAD DUP1 SWAP2 SUB SWAP1 LOG4 DUP1 PUSH1 0x65 DUP4 DUP2 SLOAD DUP2 LT PUSH2 0x9B1 JUMPI INVALID JUMPDEST SWAP1 PUSH1 0x0 MSTORE PUSH1 0x20 PUSH1 0x0 KECCAK256 ADD PUSH1 0x0 PUSH2 0x100 EXP DUP2 SLOAD DUP2 PUSH20 0xFFFFFFFFFFFFFFFFFFFFFFFFFFFFFFFFFFFFFFFF MUL NOT AND SWAP1 DUP4 PUSH20 0xFFFFFFFFFFFFFFFFFFFFFFFFFFFFFFFFFFFFFFFF AND MUL OR SWAP1 SSTORE POP POP POP JUMP JUMPDEST PUSH2 0xA96 CALLER PUSH1 0x65 DUP1 SLOAD DUP1 PUSH1 0x20 MUL PUSH1 0x20 ADD PUSH1 0x40 MLOAD SWAP1 DUP2 ADD PUSH1 0x40 MSTORE DUP1 SWAP3 SWAP2 SWAP1 DUP2 DUP2 MSTORE PUSH1 0x20 ADD DUP3 DUP1 SLOAD DUP1 ISZERO PUSH2 0xA83 JUMPI PUSH1 0x20 MUL DUP3 ADD SWAP2 SWAP1 PUSH1 0x0 MSTORE PUSH1 0x20 PUSH1 0x0 KECCAK256 SWAP1 JUMPDEST DUP2 PUSH1 0x0 SWAP1 SLOAD SWAP1 PUSH2 0x100 EXP SWAP1 DIV PUSH20 0xFFFFFFFFFFFFFFFFFFFFFFFFFFFFFFFFFFFFFFFF AND PUSH20 0xFFFFFFFFFFFFFFFFFFFFFFFFFFFFFFFFFFFFFFFF AND DUP2 MSTORE PUSH1 0x20 ADD SWAP1 PUSH1 0x1 ADD SWAP1 DUP1 DUP4 GT PUSH2 0xA39 JUMPI JUMPDEST POP POP POP POP POP PUSH2 0x14F6 SWAP1 SWAP2 SWAP1 PUSH4 0xFFFFFFFF AND JUMP JUMPDEST PUSH2 0xAEB JUMPI PUSH1 0x40 MLOAD PUSH32 0x8C379A000000000000000000000000000000000000000000000000000000000 DUP2 MSTORE PUSH1 0x4 ADD DUP1 DUP1 PUSH1 0x20 ADD DUP3 DUP2 SUB DUP3 MSTORE PUSH1 0x34 DUP2 MSTORE PUSH1 0x20 ADD DUP1 PUSH2 0x1EAB PUSH1 0x34 SWAP2 CODECOPY PUSH1 0x40 ADD SWAP2 POP POP PUSH1 0x40 MLOAD DUP1 SWAP2 SUB SWAP1 REVERT JUMPDEST DUP1 CALLER PUSH20 0xFFFFFFFFFFFFFFFFFFFFFFFFFFFFFFFFFFFFFFFF AND PUSH32 0x966E42ECA6E887734776FE8B26B78089C7CC415617A4D7C8A868F9FA671B65FB PUSH1 0x40 MLOAD PUSH1 0x40 MLOAD DUP1 SWAP2 SUB SWAP1 LOG3 PUSH2 0xB57 CALLER PUSH1 0x6A PUSH1 0x0 DUP5 DUP2 MSTORE PUSH1 0x20 ADD SWAP1 DUP2 MSTORE PUSH1 0x20 ADD PUSH1 0x0 KECCAK256 PUSH1 0x1 ADD PUSH2 0x1577 SWAP1 SWAP2 SWAP1 PUSH4 0xFFFFFFFF AND JUMP JUMPDEST POP POP JUMP JUMPDEST PUSH1 0x0 DUP1 PUSH2 0xB6C CALLER DUP6 DUP6 PUSH1 0x67 SLOAD PUSH2 0xF1F JUMP JUMPDEST SWAP1 POP PUSH1 0x67 SLOAD SWAP2 POP PUSH1 0x67 PUSH1 0x0 DUP2 SLOAD DUP1 SWAP3 SWAP2 SWAP1 PUSH1 0x1 ADD SWAP2 SWAP1 POP SSTORE POP PUSH1 0x40 MLOAD DUP1 PUSH1 0xA0 ADD PUSH1 0x40 MSTORE DUP1 CALLER PUSH20 0xFFFFFFFFFFFFFFFFFFFFFFFFFFFFFFFFFFFFFFFF AND DUP2 MSTORE PUSH1 0x20 ADD PUSH1 0x0 PUSH1 0x40 MLOAD SWAP1 DUP1 DUP3 MSTORE DUP1 PUSH1 0x20 MUL PUSH1 0x20 ADD DUP3 ADD PUSH1 0x40 MSTORE DUP1 ISZERO PUSH2 0xBDC JUMPI DUP2 PUSH1 0x20 ADD PUSH1 0x20 DUP3 MUL DUP1 CALLDATASIZE DUP4 CALLDATACOPY DUP1 DUP3 ADD SWAP2 POP POP SWAP1 POP JUMPDEST POP DUP2 MSTORE PUSH1 0x20 ADD PUSH1 0x0 ISZERO ISZERO DUP2 MSTORE PUSH1 0x20 ADD PUSH1 0x68 SLOAD TIMESTAMP ADD DUP2 MSTORE PUSH1 0x20 ADD DUP4 DUP2 MSTORE POP PUSH1 0x6A PUSH1 0x0 DUP4 DUP2 MSTORE PUSH1 0x20 ADD SWAP1 DUP2 MSTORE PUSH1 0x20 ADD PUSH1 0x0 KECCAK256 PUSH1 0x0 DUP3 ADD MLOAD DUP2 PUSH1 0x0 ADD PUSH1 0x0 PUSH2 0x100 EXP DUP2 SLOAD DUP2 PUSH20 0xFFFFFFFFFFFFFFFFFFFFFFFFFFFFFFFFFFFFFFFF MUL NOT AND SWAP1 DUP4 PUSH20 0xFFFFFFFFFFFFFFFFFFFFFFFFFFFFFFFFFFFFFFFF AND MUL OR SWAP1 SSTORE POP PUSH1 0x20 DUP3 ADD MLOAD DUP2 PUSH1 0x1 ADD SWAP1 DUP1 MLOAD SWAP1 PUSH1 0x20 ADD SWAP1 PUSH2 0xC6F SWAP3 SWAP2 SWAP1 PUSH2 0x1D2D JUMP JUMPDEST POP PUSH1 0x40 DUP3 ADD MLOAD DUP2 PUSH1 0x2 ADD PUSH1 0x0 PUSH2 0x100 EXP DUP2 SLOAD DUP2 PUSH1 0xFF MUL NOT AND SWAP1 DUP4 ISZERO ISZERO MUL OR SWAP1 SSTORE POP PUSH1 0x60 DUP3 ADD MLOAD DUP2 PUSH1 0x3 ADD SSTORE PUSH1 0x80 DUP3 ADD MLOAD DUP2 PUSH1 0x4 ADD SSTORE SWAP1 POP POP PUSH1 0x69 PUSH1 0x0 CALLER PUSH20 0xFFFFFFFFFFFFFFFFFFFFFFFFFFFFFFFFFFFFFFFF AND PUSH20 0xFFFFFFFFFFFFFFFFFFFFFFFFFFFFFFFFFFFFFFFF AND DUP2 MSTORE PUSH1 0x20 ADD SWAP1 DUP2 MSTORE PUSH1 0x20 ADD PUSH1 0x0 KECCAK256 DUP2 SWAP1 DUP1 PUSH1 0x1 DUP2 SLOAD ADD DUP1 DUP3 SSTORE DUP1 SWAP2 POP POP PUSH1 0x1 SWAP1 SUB SWAP1 PUSH1 0x0 MSTORE PUSH1 0x20 PUSH1 0x0 KECCAK256 ADD PUSH1 0x0 SWAP1 SWAP2 SWAP1 SWAP2 SWAP1 SWAP2 POP SSTORE DUP1 DUP5 PUSH20 0xFFFFFFFFFFFFFFFFFFFFFFFFFFFFFFFFFFFFFFFF AND CALLER PUSH20 0xFFFFFFFFFFFFFFFFFFFFFFFFFFFFFFFFFFFFFFFF AND PUSH32 0xE63E7CFE26FD3B2D1864DFDBDB38BA47838D3C60D8588940B275C9CF18A3297 PUSH1 0x68 SLOAD TIMESTAMP ADD PUSH1 0x40 MLOAD DUP1 DUP3 DUP2 MSTORE PUSH1 0x20 ADD SWAP2 POP POP PUSH1 0x40 MLOAD DUP1 SWAP2 SUB SWAP1 LOG4 DUP2 SWAP2 POP POP SWAP3 SWAP2 POP POP JUMP JUMPDEST PUSH1 0x69 PUSH1 0x20 MSTORE DUP2 PUSH1 0x0 MSTORE PUSH1 0x40 PUSH1 0x0 KECCAK256 DUP2 DUP2 SLOAD DUP2 LT PUSH2 0xD9A JUMPI INVALID JUMPDEST SWAP1 PUSH1 0x0 MSTORE PUSH1 0x20 PUSH1 0x0 KECCAK256 ADD PUSH1 0x0 SWAP2 POP SWAP2 POP POP SLOAD DUP2 JUMP JUMPDEST PUSH2 0xDB7 PUSH2 0x1703 JUMP JUMPDEST PUSH20 0xFFFFFFFFFFFFFFFFFFFFFFFFFFFFFFFFFFFFFFFF AND PUSH2 0xDD5 PUSH2 0xFCE JUMP JUMPDEST PUSH20 0xFFFFFFFFFFFFFFFFFFFFFFFFFFFFFFFFFFFFFFFF AND EQ PUSH2 0xE5E JUMPI PUSH1 0x40 MLOAD PUSH32 0x8C379A000000000000000000000000000000000000000000000000000000000 DUP2 MSTORE PUSH1 0x4 ADD DUP1 DUP1 PUSH1 0x20 ADD DUP3 DUP2 SUB DUP3 MSTORE PUSH1 0x20 DUP2 MSTORE PUSH1 0x20 ADD DUP1 PUSH32 0x4F776E61626C653A2063616C6C6572206973206E6F7420746865206F776E6572 DUP2 MSTORE POP PUSH1 0x20 ADD SWAP2 POP POP PUSH1 0x40 MLOAD DUP1 SWAP2 SUB SWAP1 REVERT JUMPDEST PUSH1 0x0 PUSH20 0xFFFFFFFFFFFFFFFFFFFFFFFFFFFFFFFFFFFFFFFF AND PUSH1 0x33 PUSH1 0x0 SWAP1 SLOAD SWAP1 PUSH2 0x100 EXP SWAP1 DIV PUSH20 0xFFFFFFFFFFFFFFFFFFFFFFFFFFFFFFFFFFFFFFFF AND PUSH20 0xFFFFFFFFFFFFFFFFFFFFFFFFFFFFFFFFFFFFFFFF AND PUSH32 0x8BE0079C531659141344CD1FD0A4F28419497F9722A3DAAFE3B4186F6B6457E0 PUSH1 0x40 MLOAD PUSH1 0x40 MLOAD DUP1 SWAP2 SUB SWAP1 LOG3 PUSH1 0x0 PUSH1 0x33 PUSH1 0x0 PUSH2 0x100 EXP DUP2 SLOAD DUP2 PUSH20 0xFFFFFFFFFFFFFFFFFFFFFFFFFFFFFFFFFFFFFFFF MUL NOT AND SWAP1 DUP4 PUSH20 0xFFFFFFFFFFFFFFFFFFFFFFFFFFFFFFFFFFFFFFFF AND MUL OR SWAP1 SSTORE POP JUMP JUMPDEST PUSH1 0x0 DUP5 DUP5 DUP5 DUP5 PUSH1 0x40 MLOAD PUSH1 0x20 ADD DUP1 DUP6 PUSH20 0xFFFFFFFFFFFFFFFFFFFFFFFFFFFFFFFFFFFFFFFF AND PUSH20 0xFFFFFFFFFFFFFFFFFFFFFFFFFFFFFFFFFFFFFFFF AND PUSH1 0x60 SHL DUP2 MSTORE PUSH1 0x14 ADD DUP5 PUSH20 0xFFFFFFFFFFFFFFFFFFFFFFFFFFFFFFFFFFFFFFFF AND PUSH20 0xFFFFFFFFFFFFFFFFFFFFFFFFFFFFFFFFFFFFFFFF AND PUSH1 0x60 SHL DUP2 MSTORE PUSH1 0x14 ADD DUP4 DUP2 MSTORE PUSH1 0x20 ADD DUP3 DUP2 MSTORE PUSH1 0x20 ADD SWAP5 POP POP POP POP POP PUSH1 0x40 MLOAD PUSH1 0x20 DUP2 DUP4 SUB SUB DUP2 MSTORE SWAP1 PUSH1 0x40 MSTORE DUP1 MLOAD SWAP1 PUSH1 0x20 ADD KECCAK256 SWAP1 POP SWAP5 SWAP4 POP POP POP POP JUMP JUMPDEST PUSH1 0x68 SLOAD DUP2 JUMP JUMPDEST PUSH1 0x0 PUSH1 0x33 PUSH1 0x0 SWAP1 SLOAD SWAP1 PUSH2 0x100 EXP SWAP1 DIV PUSH20 0xFFFFFFFFFFFFFFFFFFFFFFFFFFFFFFFFFFFFFFFF AND SWAP1 POP SWAP1 JUMP JUMPDEST PUSH1 0x67 SLOAD DUP2 JUMP JUMPDEST PUSH2 0x1006 PUSH2 0x1703 JUMP JUMPDEST PUSH20 0xFFFFFFFFFFFFFFFFFFFFFFFFFFFFFFFFFFFFFFFF AND PUSH2 0x1024 PUSH2 0xFCE JUMP JUMPDEST PUSH20 0xFFFFFFFFFFFFFFFFFFFFFFFFFFFFFFFFFFFFFFFF AND EQ PUSH2 0x10AD JUMPI PUSH1 0x40 MLOAD PUSH32 0x8C379A000000000000000000000000000000000000000000000000000000000 DUP2 MSTORE PUSH1 0x4 ADD DUP1 DUP1 PUSH1 0x20 ADD DUP3 DUP2 SUB DUP3 MSTORE PUSH1 0x20 DUP2 MSTORE PUSH1 0x20 ADD DUP1 PUSH32 0x4F776E61626C653A2063616C6C6572206973206E6F7420746865206F776E6572 DUP2 MSTORE POP PUSH1 0x20 ADD SWAP2 POP POP PUSH1 0x40 MLOAD DUP1 SWAP2 SUB SWAP1 REVERT JUMPDEST PUSH1 0x0 PUSH20 0xFFFFFFFFFFFFFFFFFFFFFFFFFFFFFFFFFFFFFFFF AND DUP2 PUSH20 0xFFFFFFFFFFFFFFFFFFFFFFFFFFFFFFFFFFFFFFFF AND EQ ISZERO PUSH2 0x1133 JUMPI PUSH1 0x40 MLOAD PUSH32 0x8C379A000000000000000000000000000000000000000000000000000000000 DUP2 MSTORE PUSH1 0x4 ADD DUP1 DUP1 PUSH1 0x20 ADD DUP3 DUP2 SUB DUP3 MSTORE PUSH1 0x26 DUP2 MSTORE PUSH1 0x20 ADD DUP1 PUSH2 0x1E85 PUSH1 0x26 SWAP2 CODECOPY PUSH1 0x40 ADD SWAP2 POP POP PUSH1 0x40 MLOAD DUP1 SWAP2 SUB SWAP1 REVERT JUMPDEST DUP1 PUSH20 0xFFFFFFFFFFFFFFFFFFFFFFFFFFFFFFFFFFFFFFFF AND PUSH1 0x33 PUSH1 0x0 SWAP1 SLOAD SWAP1 PUSH2 0x100 EXP SWAP1 DIV PUSH20 0xFFFFFFFFFFFFFFFFFFFFFFFFFFFFFFFFFFFFFFFF AND PUSH20 0xFFFFFFFFFFFFFFFFFFFFFFFFFFFFFFFFFFFFFFFF AND PUSH32 0x8BE0079C531659141344CD1FD0A4F28419497F9722A3DAAFE3B4186F6B6457E0 PUSH1 0x40 MLOAD PUSH1 0x40 MLOAD DUP1 SWAP2 SUB SWAP1 LOG3 DUP1 PUSH1 0x33 PUSH1 0x0 PUSH2 0x100 EXP DUP2 SLOAD DUP2 PUSH20 0xFFFFFFFFFFFFFFFFFFFFFFFFFFFFFFFFFFFFFFFF MUL NOT AND SWAP1 DUP4 PUSH20 0xFFFFFFFFFFFFFFFFFFFFFFFFFFFFFFFFFFFFFFFF AND MUL OR SWAP1 SSTORE POP POP JUMP JUMPDEST PUSH1 0x0 PUSH1 0x1 SWAP1 SLOAD SWAP1 PUSH2 0x100 EXP SWAP1 DIV PUSH1 0xFF AND DUP1 PUSH2 0x1212 JUMPI POP PUSH2 0x1211 PUSH2 0x170B JUMP JUMPDEST JUMPDEST DUP1 PUSH2 0x1229 JUMPI POP PUSH1 0x0 DUP1 SWAP1 SLOAD SWAP1 PUSH2 0x100 EXP SWAP1 DIV PUSH1 0xFF AND ISZERO JUMPDEST PUSH2 0x127E JUMPI PUSH1 0x40 MLOAD PUSH32 0x8C379A000000000000000000000000000000000000000000000000000000000 DUP2 MSTORE PUSH1 0x4 ADD DUP1 DUP1 PUSH1 0x20 ADD DUP3 DUP2 SUB DUP3 MSTORE PUSH1 0x2E DUP2 MSTORE PUSH1 0x20 ADD DUP1 PUSH2 0x1EDF PUSH1 0x2E SWAP2 CODECOPY PUSH1 0x40 ADD SWAP2 POP POP PUSH1 0x40 MLOAD DUP1 SWAP2 SUB SWAP1 REVERT JUMPDEST PUSH1 0x0 DUP1 PUSH1 0x1 SWAP1 SLOAD SWAP1 PUSH2 0x100 EXP SWAP1 DIV PUSH1 0xFF AND ISZERO SWAP1 POP DUP1 ISZERO PUSH2 0x12CE JUMPI PUSH1 0x1 PUSH1 0x0 PUSH1 0x1 PUSH2 0x100 EXP DUP2 SLOAD DUP2 PUSH1 0xFF MUL NOT AND SWAP1 DUP4 ISZERO ISZERO MUL OR SWAP1 SSTORE POP PUSH1 0x1 PUSH1 0x0 DUP1 PUSH2 0x100 EXP DUP2 SLOAD DUP2 PUSH1 0xFF MUL NOT AND SWAP1 DUP4 ISZERO ISZERO MUL OR SWAP1 SSTORE POP JUMPDEST PUSH2 0x12D6 PUSH2 0x171C JUMP JUMPDEST PUSH2 0x12DE PUSH2 0x1823 JUMP JUMPDEST DUP2 DUP4 MLOAD LT ISZERO PUSH2 0x1338 JUMPI PUSH1 0x40 MLOAD PUSH32 0x8C379A000000000000000000000000000000000000000000000000000000000 DUP2 MSTORE PUSH1 0x4 ADD DUP1 DUP1 PUSH1 0x20 ADD DUP3 DUP2 SUB DUP3 MSTORE PUSH1 0x48 DUP2 MSTORE PUSH1 0x20 ADD DUP1 PUSH2 0x1F3A PUSH1 0x48 SWAP2 CODECOPY PUSH1 0x60 ADD SWAP2 POP POP PUSH1 0x40 MLOAD DUP1 SWAP2 SUB SWAP1 REVERT JUMPDEST DUP3 PUSH1 0x65 SWAP1 DUP1 MLOAD SWAP1 PUSH1 0x20 ADD SWAP1 PUSH2 0x134E SWAP3 SWAP2 SWAP1 PUSH2 0x1DB7 JUMP JUMPDEST POP DUP2 PUSH1 0x66 DUP2 SWAP1 SSTORE POP PUSH1 0x1 PUSH1 0x67 DUP2 SWAP1 SSTORE POP PUSH2 0xE10 PUSH1 0x68 DUP2 SWAP1 SSTORE POP DUP1 ISZERO PUSH2 0x1388 JUMPI PUSH1 0x0 DUP1 PUSH1 0x1 PUSH2 0x100 EXP DUP2 SLOAD DUP2 PUSH1 0xFF MUL NOT AND SWAP1 DUP4 ISZERO ISZERO MUL OR SWAP1 SSTORE POP JUMPDEST POP POP POP JUMP JUMPDEST PUSH2 0x1426 CALLER PUSH1 0x65 DUP1 SLOAD DUP1 PUSH1 0x20 MUL PUSH1 0x20 ADD PUSH1 0x40 MLOAD SWAP1 DUP2 ADD PUSH1 0x40 MSTORE DUP1 SWAP3 SWAP2 SWAP1 DUP2 DUP2 MSTORE PUSH1 0x20 ADD DUP3 DUP1 SLOAD DUP1 ISZERO PUSH2 0x1413 JUMPI PUSH1 0x20 MUL DUP3 ADD SWAP2 SWAP1 PUSH1 0x0 MSTORE PUSH1 0x20 PUSH1 0x0 KECCAK256 SWAP1 JUMPDEST DUP2 PUSH1 0x0 SWAP1 SLOAD SWAP1 PUSH2 0x100 EXP SWAP1 DIV PUSH20 0xFFFFFFFFFFFFFFFFFFFFFFFFFFFFFFFFFFFFFFFF AND PUSH20 0xFFFFFFFFFFFFFFFFFFFFFFFFFFFFFFFFFFFFFFFF AND DUP2 MSTORE PUSH1 0x20 ADD SWAP1 PUSH1 0x1 ADD SWAP1 DUP1 DUP4 GT PUSH2 0x13C9 JUMPI JUMPDEST POP POP POP POP POP PUSH2 0x14F6 SWAP1 SWAP2 SWAP1 PUSH4 0xFFFFFFFF AND JUMP JUMPDEST PUSH2 0x147B JUMPI PUSH1 0x40 MLOAD PUSH32 0x8C379A000000000000000000000000000000000000000000000000000000000 DUP2 MSTORE PUSH1 0x4 ADD DUP1 DUP1 PUSH1 0x20 ADD DUP3 DUP2 SUB DUP3 MSTORE PUSH1 0x34 DUP2 MSTORE PUSH1 0x20 ADD DUP1 PUSH2 0x1EAB PUSH1 0x34 SWAP2 CODECOPY PUSH1 0x40 ADD SWAP2 POP POP PUSH1 0x40 MLOAD DUP1 SWAP2 SUB SWAP1 REVERT JUMPDEST DUP2 CALLER PUSH20 0xFFFFFFFFFFFFFFFFFFFFFFFFFFFFFFFFFFFFFFFF AND PUSH32 0x2D579B8389BF07E7CE434F3BD88B036A33D28787D19AF73A5AA2003A5DCB7D36 DUP4 PUSH1 0x40 MLOAD DUP1 DUP3 DUP2 MSTORE PUSH1 0x20 ADD SWAP2 POP POP PUSH1 0x40 MLOAD DUP1 SWAP2 SUB SWAP1 LOG3 PUSH2 0x14F2 CALLER PUSH1 0x6A PUSH1 0x0 DUP6 DUP2 MSTORE PUSH1 0x20 ADD SWAP1 DUP2 MSTORE PUSH1 0x20 ADD PUSH1 0x0 KECCAK256 PUSH1 0x1 ADD PUSH2 0x1932 SWAP1 SWAP2 SWAP1 PUSH4 0xFFFFFFFF AND JUMP JUMPDEST POP POP JUMP JUMPDEST PUSH1 0x0 DUP1 DUP4 MLOAD SWAP1 POP PUSH1 0x0 DUP1 SWAP1 POP JUMPDEST DUP2 DUP2 LT ISZERO PUSH2 0x156A JUMPI DUP4 PUSH20 0xFFFFFFFFFFFFFFFFFFFFFFFFFFFFFFFFFFFFFFFF AND DUP6 DUP3 DUP2 MLOAD DUP2 LT PUSH2 0x152E JUMPI INVALID JUMPDEST PUSH1 0x20 MUL PUSH1 0x20 ADD ADD MLOAD PUSH20 0xFFFFFFFFFFFFFFFFFFFFFFFFFFFFFFFFFFFFFFFF AND EQ ISZERO PUSH2 0x155D JUMPI PUSH1 0x1 SWAP3 POP POP POP PUSH2 0x1571 JUMP JUMPDEST DUP1 DUP1 PUSH1 0x1 ADD SWAP2 POP POP PUSH2 0x1503 JUMP JUMPDEST POP PUSH1 0x0 SWAP2 POP POP JUMPDEST SWAP3 SWAP2 POP POP JUMP JUMPDEST PUSH1 0x0 DUP1 DUP4 DUP1 SLOAD SWAP1 POP SWAP1 POP PUSH1 0x0 DUP1 SWAP1 POP JUMPDEST DUP2 DUP2 LT ISZERO PUSH2 0x160B JUMPI DUP4 PUSH20 0xFFFFFFFFFFFFFFFFFFFFFFFFFFFFFFFFFFFFFFFF AND DUP6 DUP3 DUP2 SLOAD DUP2 LT PUSH2 0x15B2 JUMPI INVALID JUMPDEST SWAP1 PUSH1 0x0 MSTORE PUSH1 0x20 PUSH1 0x0 KECCAK256 ADD PUSH1 0x0 SWAP1 SLOAD SWAP1 PUSH2 0x100 EXP SWAP1 DIV PUSH20 0xFFFFFFFFFFFFFFFFFFFFFFFFFFFFFFFFFFFFFFFF AND PUSH20 0xFFFFFFFFFFFFFFFFFFFFFFFFFFFFFFFFFFFFFFFF AND EQ ISZERO PUSH2 0x15FE JUMPI PUSH2 0x160B JUMP JUMPDEST DUP1 DUP1 PUSH1 0x1 ADD SWAP2 POP POP PUSH2 0x1587 JUMP JUMPDEST DUP2 DUP2 LT ISZERO PUSH2 0x16F6 JUMPI PUSH1 0x1 DUP3 SUB DUP2 EQ PUSH2 0x16AC JUMPI DUP5 PUSH1 0x1 DUP4 SUB DUP2 SLOAD DUP2 LT PUSH2 0x162C JUMPI INVALID JUMPDEST SWAP1 PUSH1 0x0 MSTORE PUSH1 0x20 PUSH1 0x0 KECCAK256 ADD PUSH1 0x0 SWAP1 SLOAD SWAP1 PUSH2 0x100 EXP SWAP1 DIV PUSH20 0xFFFFFFFFFFFFFFFFFFFFFFFFFFFFFFFFFFFFFFFF AND DUP6 DUP3 DUP2 SLOAD DUP2 LT PUSH2 0x1663 JUMPI INVALID JUMPDEST SWAP1 PUSH1 0x0 MSTORE PUSH1 0x20 PUSH1 0x0 KECCAK256 ADD PUSH1 0x0 PUSH2 0x100 EXP DUP2 SLOAD DUP2 PUSH20 0xFFFFFFFFFFFFFFFFFFFFFFFFFFFFFFFFFFFFFFFF MUL NOT AND SWAP1 DUP4 PUSH20 0xFFFFFFFFFFFFFFFFFFFFFFFFFFFFFFFFFFFFFFFF AND MUL OR SWAP1 SSTORE POP JUMPDEST DUP5 DUP1 SLOAD DUP1 PUSH2 0x16B6 JUMPI INVALID JUMPDEST PUSH1 0x1 SWAP1 SUB DUP2 DUP2 SWAP1 PUSH1 0x0 MSTORE PUSH1 0x20 PUSH1 0x0 KECCAK256 ADD PUSH1 0x0 PUSH2 0x100 EXP DUP2 SLOAD SWAP1 PUSH20 0xFFFFFFFFFFFFFFFFFFFFFFFFFFFFFFFFFFFFFFFF MUL NOT AND SWAP1 SSTORE SWAP1 SSTORE PUSH1 0x1 SWAP3 POP POP POP PUSH2 0x16FD JUMP JUMPDEST PUSH1 0x0 SWAP3 POP POP POP JUMPDEST SWAP3 SWAP2 POP POP JUMP JUMPDEST PUSH1 0x0 CALLER SWAP1 POP SWAP1 JUMP JUMPDEST PUSH1 0x0 PUSH2 0x1716 ADDRESS PUSH2 0x1A2C JUMP JUMPDEST ISZERO SWAP1 POP SWAP1 JUMP JUMPDEST PUSH1 0x0 PUSH1 0x1 SWAP1 SLOAD SWAP1 PUSH2 0x100 EXP SWAP1 DIV PUSH1 0xFF AND DUP1 PUSH2 0x173B JUMPI POP PUSH2 0x173A PUSH2 0x170B JUMP JUMPDEST JUMPDEST DUP1 PUSH2 0x1752 JUMPI POP PUSH1 0x0 DUP1 SWAP1 SLOAD SWAP1 PUSH2 0x100 EXP SWAP1 DIV PUSH1 0xFF AND ISZERO JUMPDEST PUSH2 0x17A7 JUMPI PUSH1 0x40 MLOAD PUSH32 0x8C379A000000000000000000000000000000000000000000000000000000000 DUP2 MSTORE PUSH1 0x4 ADD DUP1 DUP1 PUSH1 0x20 ADD DUP3 DUP2 SUB DUP3 MSTORE PUSH1 0x2E DUP2 MSTORE PUSH1 0x20 ADD DUP1 PUSH2 0x1EDF PUSH1 0x2E SWAP2 CODECOPY PUSH1 0x40 ADD SWAP2 POP POP PUSH1 0x40 MLOAD DUP1 SWAP2 SUB SWAP1 REVERT JUMPDEST PUSH1 0x0 DUP1 PUSH1 0x1 SWAP1 SLOAD SWAP1 PUSH2 0x100 EXP SWAP1 DIV PUSH1 0xFF AND ISZERO SWAP1 POP DUP1 ISZERO PUSH2 0x17F7 JUMPI PUSH1 0x1 PUSH1 0x0 PUSH1 0x1 PUSH2 0x100 EXP DUP2 SLOAD DUP2 PUSH1 0xFF MUL NOT AND SWAP1 DUP4 ISZERO ISZERO MUL OR SWAP1 SSTORE POP PUSH1 0x1 PUSH1 0x0 DUP1 PUSH2 0x100 EXP DUP2 SLOAD DUP2 PUSH1 0xFF MUL NOT AND SWAP1 DUP4 ISZERO ISZERO MUL OR SWAP1 SSTORE POP JUMPDEST PUSH2 0x17FF PUSH2 0x1A3F JUMP JUMPDEST DUP1 ISZERO PUSH2 0x1820 JUMPI PUSH1 0x0 DUP1 PUSH1 0x1 PUSH2 0x100 EXP DUP2 SLOAD DUP2 PUSH1 0xFF MUL NOT AND SWAP1 DUP4 ISZERO ISZERO MUL OR SWAP1 SSTORE POP JUMPDEST POP JUMP JUMPDEST PUSH1 0x0 PUSH1 0x1 SWAP1 SLOAD SWAP1 PUSH2 0x100 EXP SWAP1 DIV PUSH1 0xFF AND DUP1 PUSH2 0x1842 JUMPI POP PUSH2 0x1841 PUSH2 0x170B JUMP JUMPDEST JUMPDEST DUP1 PUSH2 0x1859 JUMPI POP PUSH1 0x0 DUP1 SWAP1 SLOAD SWAP1 PUSH2 0x100 EXP SWAP1 DIV PUSH1 0xFF AND ISZERO JUMPDEST PUSH2 0x18AE JUMPI PUSH1 0x40 MLOAD PUSH32 0x8C379A000000000000000000000000000000000000000000000000000000000 DUP2 MSTORE PUSH1 0x4 ADD DUP1 DUP1 PUSH1 0x20 ADD DUP3 DUP2 SUB DUP3 MSTORE PUSH1 0x2E DUP2 MSTORE PUSH1 0x20 ADD DUP1 PUSH2 0x1EDF PUSH1 0x2E SWAP2 CODECOPY PUSH1 0x40 ADD SWAP2 POP POP PUSH1 0x40 MLOAD DUP1 SWAP2 SUB SWAP1 REVERT JUMPDEST PUSH1 0x0 DUP1 PUSH1 0x1 SWAP1 SLOAD SWAP1 PUSH2 0x100 EXP SWAP1 DIV PUSH1 0xFF AND ISZERO SWAP1 POP DUP1 ISZERO PUSH2 0x18FE JUMPI PUSH1 0x1 PUSH1 0x0 PUSH1 0x1 PUSH2 0x100 EXP DUP2 SLOAD DUP2 PUSH1 0xFF MUL NOT AND SWAP1 DUP4 ISZERO ISZERO MUL OR SWAP1 SSTORE POP PUSH1 0x1 PUSH1 0x0 DUP1 PUSH2 0x100 EXP DUP2 SLOAD DUP2 PUSH1 0xFF MUL NOT AND SWAP1 DUP4 ISZERO ISZERO MUL OR SWAP1 SSTORE POP JUMPDEST PUSH2 0x1906 PUSH2 0x1A3F JUMP JUMPDEST PUSH2 0x190E PUSH2 0x1B3E JUMP JUMPDEST DUP1 ISZERO PUSH2 0x192F JUMPI PUSH1 0x0 DUP1 PUSH1 0x1 PUSH2 0x100 EXP DUP2 SLOAD DUP2 PUSH1 0xFF MUL NOT AND SWAP1 DUP4 ISZERO ISZERO MUL OR SWAP1 SSTORE POP JUMPDEST POP JUMP JUMPDEST PUSH2 0x19C1 DUP3 DUP1 SLOAD DUP1 PUSH1 0x20 MUL PUSH1 0x20 ADD PUSH1 0x40 MLOAD SWAP1 DUP2 ADD PUSH1 0x40 MSTORE DUP1 SWAP3 SWAP2 SWAP1 DUP2 DUP2 MSTORE PUSH1 0x20 ADD DUP3 DUP1 SLOAD DUP1 ISZERO PUSH2 0x19B6 JUMPI PUSH1 0x20 MUL DUP3 ADD SWAP2 SWAP1 PUSH1 0x0 MSTORE PUSH1 0x20 PUSH1 0x0 KECCAK256 SWAP1 JUMPDEST DUP2 PUSH1 0x0 SWAP1 SLOAD SWAP1 PUSH2 0x100 EXP SWAP1 DIV PUSH20 0xFFFFFFFFFFFFFFFFFFFFFFFFFFFFFFFFFFFFFFFF AND PUSH20 0xFFFFFFFFFFFFFFFFFFFFFFFFFFFFFFFFFFFFFFFF AND DUP2 MSTORE PUSH1 0x20 ADD SWAP1 PUSH1 0x1 ADD SWAP1 DUP1 DUP4 GT PUSH2 0x196C JUMPI JUMPDEST POP POP POP POP POP DUP3 PUSH2 0x14F6 JUMP JUMPDEST PUSH2 0x1A28 JUMPI DUP2 DUP2 SWAP1 DUP1 PUSH1 0x1 DUP2 SLOAD ADD DUP1 DUP3 SSTORE DUP1 SWAP2 POP POP PUSH1 0x1 SWAP1 SUB SWAP1 PUSH1 0x0 MSTORE PUSH1 0x20 PUSH1 0x0 KECCAK256 ADD PUSH1 0x0 SWAP1 SWAP2 SWAP1 SWAP2 SWAP1 SWAP2 PUSH2 0x100 EXP DUP2 SLOAD DUP2 PUSH20 0xFFFFFFFFFFFFFFFFFFFFFFFFFFFFFFFFFFFFFFFF MUL NOT AND SWAP1 DUP4 PUSH20 0xFFFFFFFFFFFFFFFFFFFFFFFFFFFFFFFFFFFFFFFF AND MUL OR SWAP1 SSTORE POP JUMPDEST POP POP JUMP JUMPDEST PUSH1 0x0 DUP1 DUP3 EXTCODESIZE SWAP1 POP PUSH1 0x0 DUP2 GT SWAP2 POP POP SWAP2 SWAP1 POP JUMP JUMPDEST PUSH1 0x0 PUSH1 0x1 SWAP1 SLOAD SWAP1 PUSH2 0x100 EXP SWAP1 DIV PUSH1 0xFF AND DUP1 PUSH2 0x1A5E JUMPI POP PUSH2 0x1A5D PUSH2 0x170B JUMP JUMPDEST JUMPDEST DUP1 PUSH2 0x1A75 JUMPI POP PUSH1 0x0 DUP1 SWAP1 SLOAD SWAP1 PUSH2 0x100 EXP SWAP1 DIV PUSH1 0xFF AND ISZERO JUMPDEST PUSH2 0x1ACA JUMPI PUSH1 0x40 MLOAD PUSH32 0x8C379A000000000000000000000000000000000000000000000000000000000 DUP2 MSTORE PUSH1 0x4 ADD DUP1 DUP1 PUSH1 0x20 ADD DUP3 DUP2 SUB DUP3 MSTORE PUSH1 0x2E DUP2 MSTORE PUSH1 0x20 ADD DUP1 PUSH2 0x1EDF PUSH1 0x2E SWAP2 CODECOPY PUSH1 0x40 ADD SWAP2 POP POP PUSH1 0x40 MLOAD DUP1 SWAP2 SUB SWAP1 REVERT JUMPDEST PUSH1 0x0 DUP1 PUSH1 0x1 SWAP1 SLOAD SWAP1 PUSH2 0x100 EXP SWAP1 DIV PUSH1 0xFF AND ISZERO SWAP1 POP DUP1 ISZERO PUSH2 0x1B1A JUMPI PUSH1 0x1 PUSH1 0x0 PUSH1 0x1 PUSH2 0x100 EXP DUP2 SLOAD DUP2 PUSH1 0xFF MUL NOT AND SWAP1 DUP4 ISZERO ISZERO MUL OR SWAP1 SSTORE POP PUSH1 0x1 PUSH1 0x0 DUP1 PUSH2 0x100 EXP DUP2 SLOAD DUP2 PUSH1 0xFF MUL NOT AND SWAP1 DUP4 ISZERO ISZERO MUL OR SWAP1 SSTORE POP JUMPDEST DUP1 ISZERO PUSH2 0x1B3B JUMPI PUSH1 0x0 DUP1 PUSH1 0x1 PUSH2 0x100 EXP DUP2 SLOAD DUP2 PUSH1 0xFF MUL NOT AND SWAP1 DUP4 ISZERO ISZERO MUL OR SWAP1 SSTORE POP JUMPDEST POP JUMP JUMPDEST PUSH1 0x0 PUSH1 0x1 SWAP1 SLOAD SWAP1 PUSH2 0x100 EXP SWAP1 DIV PUSH1 0xFF AND DUP1 PUSH2 0x1B5D JUMPI POP PUSH2 0x1B5C PUSH2 0x170B JUMP JUMPDEST JUMPDEST DUP1 PUSH2 0x1B74 JUMPI POP PUSH1 0x0 DUP1 SWAP1 SLOAD SWAP1 PUSH2 0x100 EXP SWAP1 DIV PUSH1 0xFF AND ISZERO JUMPDEST PUSH2 0x1BC9 JUMPI PUSH1 0x40 MLOAD PUSH32 0x8C379A000000000000000000000000000000000000000000000000000000000 DUP2 MSTORE PUSH1 0x4 ADD DUP1 DUP1 PUSH1 0x20 ADD DUP3 DUP2 SUB DUP3 MSTORE PUSH1 0x2E DUP2 MSTORE PUSH1 0x20 ADD DUP1 PUSH2 0x1EDF PUSH1 0x2E SWAP2 CODECOPY PUSH1 0x40 ADD SWAP2 POP POP PUSH1 0x40 MLOAD DUP1 SWAP2 SUB SWAP1 REVERT JUMPDEST PUSH1 0x0 DUP1 PUSH1 0x1 SWAP1 SLOAD SWAP1 PUSH2 0x100 EXP SWAP1 DIV PUSH1 0xFF AND ISZERO SWAP1 POP DUP1 ISZERO PUSH2 0x1C19 JUMPI PUSH1 0x1 PUSH1 0x0 PUSH1 0x1 PUSH2 0x100 EXP DUP2 SLOAD DUP2 PUSH1 0xFF MUL NOT AND SWAP1 DUP4 ISZERO ISZERO MUL OR SWAP1 SSTORE POP PUSH1 0x1 PUSH1 0x0 DUP1 PUSH2 0x100 EXP DUP2 SLOAD DUP2 PUSH1 0xFF MUL NOT AND SWAP1 DUP4 ISZERO ISZERO MUL OR SWAP1 SSTORE POP JUMPDEST PUSH1 0x0 PUSH2 0x1C23 PUSH2 0x1703 JUMP JUMPDEST SWAP1 POP DUP1 PUSH1 0x33 PUSH1 0x0 PUSH2 0x100 EXP DUP2 SLOAD DUP2 PUSH20 0xFFFFFFFFFFFFFFFFFFFFFFFFFFFFFFFFFFFFFFFF MUL NOT AND SWAP1 DUP4 PUSH20 0xFFFFFFFFFFFFFFFFFFFFFFFFFFFFFFFFFFFFFFFF AND MUL OR SWAP1 SSTORE POP DUP1 PUSH20 0xFFFFFFFFFFFFFFFFFFFFFFFFFFFFFFFFFFFFFFFF AND PUSH1 0x0 PUSH20 0xFFFFFFFFFFFFFFFFFFFFFFFFFFFFFFFFFFFFFFFF AND PUSH32 0x8BE0079C531659141344CD1FD0A4F28419497F9722A3DAAFE3B4186F6B6457E0 PUSH1 0x40 MLOAD PUSH1 0x40 MLOAD DUP1 SWAP2 SUB SWAP1 LOG3 POP DUP1 ISZERO PUSH2 0x1CE3 JUMPI PUSH1 0x0 DUP1 PUSH1 0x1 PUSH2 0x100 EXP DUP2 SLOAD DUP2 PUSH1 0xFF MUL NOT AND SWAP1 DUP4 ISZERO ISZERO MUL OR SWAP1 SSTORE POP JUMPDEST POP JUMP JUMPDEST PUSH1 0x40 MLOAD DUP1 PUSH1 0xA0 ADD PUSH1 0x40 MSTORE DUP1 PUSH1 0x0 PUSH20 0xFFFFFFFFFFFFFFFFFFFFFFFFFFFFFFFFFFFFFFFF AND DUP2 MSTORE PUSH1 0x20 ADD PUSH1 0x60 DUP2 MSTORE PUSH1 0x20 ADD PUSH1 0x0 ISZERO ISZERO DUP2 MSTORE PUSH1 0x20 ADD PUSH1 0x0 DUP2 MSTORE PUSH1 0x20 ADD PUSH1 0x0 DUP2 MSTORE POP SWAP1 JUMP JUMPDEST DUP3 DUP1 SLOAD DUP3 DUP3 SSTORE SWAP1 PUSH1 0x0 MSTORE PUSH1 0x20 PUSH1 0x0 KECCAK256 SWAP1 DUP2 ADD SWAP3 DUP3 ISZERO PUSH2 0x1DA6 JUMPI SWAP2 PUSH1 0x20 MUL DUP3 ADD JUMPDEST DUP3 DUP2 GT ISZERO PUSH2 0x1DA5 JUMPI DUP3 MLOAD DUP3 PUSH1 0x0 PUSH2 0x100 EXP DUP2 SLOAD DUP2 PUSH20 0xFFFFFFFFFFFFFFFFFFFFFFFFFFFFFFFFFFFFFFFF MUL NOT AND SWAP1 DUP4 PUSH20 0xFFFFFFFFFFFFFFFFFFFFFFFFFFFFFFFFFFFFFFFF AND MUL OR SWAP1 SSTORE POP SWAP2 PUSH1 0x20 ADD SWAP2 SWAP1 PUSH1 0x1 ADD SWAP1 PUSH2 0x1D4D JUMP JUMPDEST JUMPDEST POP SWAP1 POP PUSH2 0x1DB3 SWAP2 SWAP1 PUSH2 0x1E41 JUMP JUMPDEST POP SWAP1 JUMP JUMPDEST DUP3 DUP1 SLOAD DUP3 DUP3 SSTORE SWAP1 PUSH1 0x0 MSTORE PUSH1 0x20 PUSH1 0x0 KECCAK256 SWAP1 DUP2 ADD SWAP3 DUP3 ISZERO PUSH2 0x1E30 JUMPI SWAP2 PUSH1 0x20 MUL DUP3 ADD JUMPDEST DUP3 DUP2 GT ISZERO PUSH2 0x1E2F JUMPI DUP3 MLOAD DUP3 PUSH1 0x0 PUSH2 0x100 EXP DUP2 SLOAD DUP2 PUSH20 0xFFFFFFFFFFFFFFFFFFFFFFFFFFFFFFFFFFFFFFFF MUL NOT AND SWAP1 DUP4 PUSH20 0xFFFFFFFFFFFFFFFFFFFFFFFFFFFFFFFFFFFFFFFF AND MUL OR SWAP1 SSTORE POP SWAP2 PUSH1 0x20 ADD SWAP2 SWAP1 PUSH1 0x1 ADD SWAP1 PUSH2 0x1DD7 JUMP JUMPDEST JUMPDEST POP SWAP1 POP PUSH2 0x1E3D SWAP2 SWAP1 PUSH2 0x1E41 JUMP JUMPDEST POP SWAP1 JUMP JUMPDEST PUSH2 0x1E81 SWAP2 SWAP1 JUMPDEST DUP1 DUP3 GT ISZERO PUSH2 0x1E7D JUMPI PUSH1 0x0 DUP2 DUP2 PUSH2 0x100 EXP DUP2 SLOAD SWAP1 PUSH20 0xFFFFFFFFFFFFFFFFFFFFFFFFFFFFFFFFFFFFFFFF MUL NOT AND SWAP1 SSTORE POP PUSH1 0x1 ADD PUSH2 0x1E47 JUMP JUMPDEST POP SWAP1 JUMP JUMPDEST SWAP1 JUMP INVALID 0x4F PUSH24 0x6E61626C653A206E6577206F776E65722069732074686520 PUSH27 0x65726F20616464726573734D756C7469706C65205369676E617475 PUSH19 0x65203A2063616C6C6572206973206E6F742069 PUSH15 0x20746865206F776E65724C69737421 0x49 PUSH15 0x697469616C697A61626C653A20636F PUSH15 0x747261637420697320616C72656164 PUSH26 0x20696E697469616C697A65644D756C7469706C65205369676E61 PUSH21 0x757265203A204F776E657220696E64657820697320 PUSH16 0x766572666C6F77214D756C7469706C65 KECCAK256 MSTORE8 PUSH10 0x676E6174757265203A20 MSTORE8 PUSH10 0x676E6174757265207468 PUSH19 0x6573686F6C6420697320677265617465722074 PUSH9 0x616E206F776E657273 0x27 KECCAK256 PUSH13 0x656E67746821A2646970667358 0x22 SLT KECCAK256 0xC6 DUP7 0xBC CREATE2 KECCAK256 0x2F 0xDB 0x28 0xB0 0xE5 DUP9 DUP7 CREATE 0xC9 PUSH15 0x8C24FE1787303C8501DDA797BAB0EC 0xAA CREATE2 PUSH5 0x736F6C6343 STOP MOD DIV STOP CALLER "
				},
				"gasEstimates": {
					"creation": {
						"codeDepositCost": "1623800",
						"executionCost": "1701",
						"totalCost": "1625501"
					},
					"external": {
						"Initialize(address[],uint256)": "infinite",
						"createApplication(address,bytes32)": "infinite",
						"getApplicationHash(address,address,bytes32,uint256)": "675",
						"getApplicationInfo(bytes32)": "infinite",
						"nonce()": "1027",
						"owner()": "1128",
						"renounceOwnership()": "24421",
						"revokeSignApplication(bytes32)": "infinite",
						"sigCountMap(address,uint256)": "2145",
						"signApplication(bytes32,uint256)": "infinite",
						"signatureMap(bytes32)": "3793",
						"transferOwner(uint256,address)": "infinite",
						"transferOwnership(address)": "infinite",
						"validPeriod()": "1050"
					},
					"internal": {
						"getApplicationCount(address)": "infinite",
						"getValidSignature(bytes32,address)": "infinite"
					}
				},
				"methodIdentifiers": {
					"Initialize(address[],uint256)": "fa3e1e27",
					"createApplication(address,bytes32)": "4bd23253",
					"getApplicationHash(address,address,bytes32,uint256)": "78b35aee",
					"getApplicationInfo(bytes32)": "1d8a950c",
					"nonce()": "affed0e0",
					"owner()": "8da5cb5b",
					"renounceOwnership()": "715018a6",
					"revokeSignApplication(bytes32)": "25675059",
					"sigCountMap(address,uint256)": "5d40a9f4",
					"signApplication(bytes32,uint256)": "fe8ed3bc",
					"signatureMap(bytes32)": "0dc460c6",
					"transferOwner(uint256,address)": "1ebe85ba",
					"transferOwnership(address)": "f2fde38b",
					"validPeriod()": "7efcc3a2"
				}
			},
			"storageLayout": {
				"storage": [
					{
						"astId": 139,
						"contract": "contracts/mulSignature.sol:multiSignature",
						"label": "_initialized",
						"offset": 0,
						"slot": "0",
						"type": "t_bool"
					},
					{
						"astId": 141,
						"contract": "contracts/mulSignature.sol:multiSignature",
						"label": "_initializing",
						"offset": 1,
						"slot": "0",
						"type": "t_bool"
					},
					{
						"astId": 485,
						"contract": "contracts/mulSignature.sol:multiSignature",
						"label": "__gap",
						"offset": 0,
						"slot": "1",
						"type": "t_array(t_uint256)50_storage"
					},
					{
						"astId": 13,
						"contract": "contracts/mulSignature.sol:multiSignature",
						"label": "_owner",
						"offset": 0,
						"slot": "51",
						"type": "t_address"
					},
					{
						"astId": 132,
						"contract": "contracts/mulSignature.sol:multiSignature",
						"label": "__gap",
						"offset": 0,
						"slot": "52",
						"type": "t_array(t_uint256)49_storage"
					},
					{
						"astId": 629,
						"contract": "contracts/mulSignature.sol:multiSignature",
						"label": "signatureOwners",
						"offset": 0,
						"slot": "101",
						"type": "t_array(t_address)dyn_storage"
					},
					{
						"astId": 631,
						"contract": "contracts/mulSignature.sol:multiSignature",
						"label": "threshold",
						"offset": 0,
						"slot": "102",
						"type": "t_uint256"
					},
					{
						"astId": 633,
						"contract": "contracts/mulSignature.sol:multiSignature",
						"label": "nonce",
						"offset": 0,
						"slot": "103",
						"type": "t_uint256"
					},
					{
						"astId": 635,
						"contract": "contracts/mulSignature.sol:multiSignature",
						"label": "validPeriod",
						"offset": 0,
						"slot": "104",
						"type": "t_uint256"
					},
					{
						"astId": 640,
						"contract": "contracts/mulSignature.sol:multiSignature",
						"label": "sigCountMap",
						"offset": 0,
						"slot": "105",
						"type": "t_mapping(t_address,t_array(t_bytes32)dyn_storage)"
					},
					{
						"astId": 656,
						"contract": "contracts/mulSignature.sol:multiSignature",
						"label": "signatureMap",
						"offset": 0,
						"slot": "106",
						"type": "t_mapping(t_bytes32,t_struct(signatureInfo)652_storage)"
					}
				],
				"types": {
					"t_address": {
						"encoding": "inplace",
						"label": "address",
						"numberOfBytes": "20"
					},
					"t_array(t_address)dyn_storage": {
						"base": "t_address",
						"encoding": "dynamic_array",
						"label": "address[]",
						"numberOfBytes": "32"
					},
					"t_array(t_bytes32)dyn_storage": {
						"base": "t_bytes32",
						"encoding": "dynamic_array",
						"label": "bytes32[]",
						"numberOfBytes": "32"
					},
					"t_array(t_uint256)49_storage": {
						"base": "t_uint256",
						"encoding": "inplace",
						"label": "uint256[49]",
						"numberOfBytes": "1568"
					},
					"t_array(t_uint256)50_storage": {
						"base": "t_uint256",
						"encoding": "inplace",
						"label": "uint256[50]",
						"numberOfBytes": "1600"
					},
					"t_bool": {
						"encoding": "inplace",
						"label": "bool",
						"numberOfBytes": "1"
					},
					"t_bytes32": {
						"encoding": "inplace",
						"label": "bytes32",
						"numberOfBytes": "32"
					},
					"t_mapping(t_address,t_array(t_bytes32)dyn_storage)": {
						"encoding": "mapping",
						"key": "t_address",
						"label": "mapping(address => bytes32[])",
						"numberOfBytes": "32",
						"value": "t_array(t_bytes32)dyn_storage"
					},
					"t_mapping(t_bytes32,t_struct(signatureInfo)652_storage)": {
						"encoding": "mapping",
						"key": "t_bytes32",
						"label": "mapping(bytes32 => struct multiSignature.signatureInfo)",
						"numberOfBytes": "32",
						"value": "t_struct(signatureInfo)652_storage"
					},
					"t_struct(signatureInfo)652_storage": {
						"encoding": "inplace",
						"label": "struct multiSignature.signatureInfo",
						"members": [
							{
								"astId": 642,
								"contract": "contracts/mulSignature.sol:multiSignature",
								"label": "applicant",
								"offset": 0,
								"slot": "0",
								"type": "t_address"
							},
							{
								"astId": 645,
								"contract": "contracts/mulSignature.sol:multiSignature",
								"label": "signatures",
								"offset": 0,
								"slot": "1",
								"type": "t_array(t_address)dyn_storage"
							},
							{
								"astId": 647,
								"contract": "contracts/mulSignature.sol:multiSignature",
								"label": "status",
								"offset": 0,
								"slot": "2",
								"type": "t_bool"
							},
							{
								"astId": 649,
								"contract": "contracts/mulSignature.sol:multiSignature",
								"label": "expiry",
								"offset": 0,
								"slot": "3",
								"type": "t_uint256"
							},
							{
								"astId": 651,
								"contract": "contracts/mulSignature.sol:multiSignature",
								"label": "nonce",
								"offset": 0,
								"slot": "4",
								"type": "t_uint256"
							}
						],
						"numberOfBytes": "160"
					},
					"t_uint256": {
						"encoding": "inplace",
						"label": "uint256",
						"numberOfBytes": "32"
					}
				}
			},
			"userdoc": {
				"methods": {}
			}
		}
	}
}